:100000000C9434000C943E000C943E000C943E0082
:100010000C943E000C943E000C943E000C943E0068
:100020000C943E000C943E000C943E000C943E0058
:100030000C943E000C943E000C943E000C943E0048
:100040000C943E000C943E000C943E000C943E0038
:100050000C943E000C943E000C943E000C943E0028
:100060000C943E000C943E0011241FBECFEFD8E04C
:10007000DEBFCDBF0E9440000C9481000C940000B4
:10008000CF93DF9300D000D0CDB7DEB780E284B944
:1000900019821A821B821C8220E225B919821A82D7
:1000A0001B821C8289819A81AB81BC81803A9648EF
:1000B000A140B10564F489819A81AB81BC8101962C
:1000C000A11DB11D89839A83AB83BC83EBCF15B887
:1000D00019821A821B821C8289819A81AB81BC8120
:1000E000803A9648A140B105C4F689819A81AB81D6
:1000F000BC810196A11DB11D89839A83AB83BC830A
:06010000EBCFF894FFCFE5
:00000001FF
