:100000000C9434000C9449000C9449000C94490061
:100010000C9449000C9449000C9449000C9449003C
:100020000C9449000C9449000C9449000C9449002C
:100030000C9449000C9449000C9449000C9449001C
:100040000C9449000C9449000C9449000C9449000C
:100050000C9449000C9449000C9449000C944900FC
:100060000C9449000C94490011241FBECFEFD8E036
:10007000DEBFCDBF11E0A0E0B1E0ECE2F1E002C0F4
:1000800005900D92A630B107D9F70E947F000C941D
:1000900094000C940000E0910001F091010187E6CA
:1000A0008483158288E1818386E082830895E091CC
:1000B0000001F0910101908195FD02C08683FBCF84
:1000C0000895E0910001F0910101808187FFFDCF4B
:1000D00086810895E0910001F09101018081807294
:1000E00090E00895E0910401F091050180E18083A2
:1000F0000895E0910401F0910501108208950E9495
:100100004B000E946100C82F0E9457008DE00E94A2
:1001100057008AE00E945700C53619F40E94720009
:0C012000F0CF0E947900EDCFF894FFCFE3
:06012C00C00025002400C4
:00000001FF
