:100000000C9434000C9451000C9451000C94510049
:100010000C9451000C9451000C9451000C94AE00BF
:100020000C9451000C9451000C9451000C946A00F3
:100030000C9451000C9451000C9451000C945100FC
:100040000C9451000C9451000C9451000C945100EC
:100050000C9451000C9451000C9451000C945100DC
:100060000C9451000C94510011241FBECFEFD8E026
:10007000DEBFCDBF11E0A0E0B1E0E4E1F2E002C0FC
:1000800005900D92A031B107D9F721E0A0E1B1E0D0
:1000900001C01D92A531B207E1F70E94DE000C9469
:1000A00008010C940000E0910A01F0910B0180819D
:1000B00080838181896081838281828387E28187D5
:1000C00080E18087E0910801F091090180818260E0
:1000D000808308951F920F920FB60F9211242F93D1
:1000E0003F938F939F9380911001909111010196FE
:1000F0009093110180931001883E934091F42091D8
:1001000000013091010181E090E0232B11F080E0AB
:1001100090E09093010180930001109211011092E0
:1001200010019F918F913F912F910F900FBE0F90D3
:100130001F901895E0910E01F0910F018081816070
:10014000808381818960818387E28383E0910C01D0
:10015000F0910D0180818260808308951F920F923B
:100160000FB60F9211242F933F938F939F938091FB
:100170001201909113010196909313018093120143
:10018000883E934091F4209100013091010181E07B
:1001900090E0232B11F080E090E090930101809398
:1001A000000110921301109212019F918F913F91C3
:1001B0002F910F900FBE0F901F901895CF93DF9344
:1001C00000D0CDB7DEB7E0910601F091070180E2E3
:1001D0008083E0910401F091050180830E949A00E0
:1001E0007894F89480910001909101019A83898319
:1001F000789489819A81E0910401F0910501892B1D
:1002000019F08081806202C080818F7D8083E9CF78
:04021000F894FFCF90
:1002140001002300250024006F0080007000B0005E
:00000001FF
