:100000000C9434000C943E000C943E000C943E0082
:100010000C943E000C943E000C943E000C943E0068
:100020000C943E000C943E000C943E000C943E0058
:100030000C943E000C943E000C943E000C943E0048
:100040000C943E000C943E000C943E000C943E0038
:100050000C943E000C943E000C943E000C943E0028
:100060000C943E000C943E0011241FBECFEFD8E04C
:10007000DEBFCDBF0E9440000C9494000C940000A1
:10008000CF93DF9300D000D0CDB7DEB787E284B93D
:1000900088E085B980E090E033B119821A821B8232
:1000A0001C8225B133FD21C00097B1F719821A8255
:1000B0001B821C8289819A81AB81BC8180319742ED
:1000C000A105B10564F489819A81AB81BC81019657
:1000D000A11DB11D89839A83AB83BC83EBCF25FD22
:1000E00002C02D9A1EC02D981CC081309105A1F62A
:1000F00019821A821B821C8289819A81AB81BC8100
:1001000080319742A105B1052CF689819A81AB8196
:10011000BC810196A11DB11D89839A83AB83BC83E9
:0C012000EBCF81E090E0B8CFF894FFCF67
:00000001FF
