:100000004AC1000066C1000064C1000062C1000076
:1000100060C100005EC100005CC100005AC1000068
:1000200058C1000056C1000054C100000C94421099
:1000300050C100004EC100000BC200004AC10000C8
:1000400048C1000046C10000B2C1000042C100002A
:1000500040C100003EC100003CC100003AC10000A8
:1000600038C1000036C100000C944B010C946901AA
:100070000C9469010C9469010C9469010C94690158
:100080000C9469010C9469010C9469010C94690148
:100090000C9469010C9442100C9469010C94690150
:1000A0000C9428020C9469010C9469010C94690168
:1000B0000C94D7010C9469010C9469010C946901AA
:1000C0000C9469010C9469010C9469010C94690108
:1000D0000000000000000000434F4E534F4C45000D
:1000E0000000110811081108110811080F08110863
:1000F00011080F0800000F080001000000010000B7
:10010000004E554C4C444556000000110811081192
:1001100008110811080F08110811080F0800000F36
:10012000080002000000000000004E414D45535001
:1001300041434500F90CA10E0F080F080F080F08E6
:100140000F080F080F0800000F08006E616D696E40
:100150006974202864657669636573293A0D0A001D
:100160004552524F522047455453544B2025730A51
:10017000006E616D6573706163653A2064657669D0
:100180006365206E616D6520257320746F6F206C30
:100190006F6E670D0A006E616D6573706163653A1D
:1001A0002063616E6E6F74206D6F756E74202564B0
:1001B0000D0A000A0A416C6C20757365722070721A
:1001C0006F636573736573206861766520636F6D17
:1001D000706C657465642E0A0A000A57656C636F5B
:1001E0006D6520746F2058696E75210A0A0D0958D3
:1001F000696E75204F5320436F7079726967687418
:100200002028632920323031322C20323031350A17
:100210000D09446F75676C617320452E20436F6D27
:10022000657220616E64204352432050726573737F
:100230002C20496E632E0A0A0D0958696E75204FED
:100240005320666F72204156522061746D6567615C
:10025000333238702076302E312028632920323016
:1002600032300A0D0952616661656C2049676E6122
:1002700063696F205A7572697461203C72616661AE
:100280004066692E756E636F6D612E6564752E61B3
:10029000723E0A0A0D0011241FBECFEFD8E0DEBF68
:1002A000CDBF11E0A0E0B1E0E6E0F8E202C00590C9
:1002B0000D92A637B107D9F724E0A6E7B1E001C057
:1002C0001D92A33FB207E1F70C9457060E94F10E6E
:1002D000FFC296CEFF93EF93FC0100820FB6F89415
:1002E00004A21182228233824482558266827782FE
:1002F00080869186A286B386C486D586E686F786F2
:10030000008B118B228B338B448B558B668B778BB9
:10031000808F918FA28FB38FC48FD58F0F90068E51
:100320000F90078E0DB600A20EB601A2FB0100A031
:100330000DBE01A00EBE078C0F92068C0F92D58DBC
:10034000C48DB38DA28D918D808D778966895589F5
:1003500044893389228911890089F784E684D58408
:10036000C484B384A284918480847780668055801D
:10037000448033802280118004A00FBE0080EF9162
:10038000FF910895E0910001F0910101158287E647
:10039000848386E0828388E181830895E09100016F
:1003A000F0910101908195FFFDCF868308951F9202
:1003B0000F920FB60F9211248F938091C6008093F5
:1003C00088018F910F900FBE0F901F901895A4E099
:1003D000B0E0EDEEF1E00C94E81019821A821B8275
:1003E0001C8219821A821B821C8209811A812B812C
:1003F0003C81061717072807390770F400000981A8
:100400001A812B813C810F5F1F4F2F4F3F4F098374
:100410001A832B833C83E9CF2496E4E00C940411E7
:1004200080E284B92D9A60E47DE083E090E0CFDF44
:100430002D9860E47DE083E090E0C9CF1092B10197
:100440001092B2011092B3011092B40181E00895AC
:100450001F920F920FB60F9211242F933F934F9339
:100460005F936F937F938F939F93AF93BF93EF931C
:10047000FF938091BB019091BC01A091BD01B0910F
:10048000BE010196A11DB11D8093BB019093BC01DB
:10049000A093BD01B093BE01883E9340A105B10574
:1004A000D8F08091BF019091C001A091C101B0919D
:1004B000C2010196A11DB11D8093BF019093C0019F
:1004C000A093C101B093C2011092BB011092BC0174
:1004D0001092BD011092BE018091B5019091B601BC
:1004E00026E0289FF001299FF00D1124EE5AFB4FC2
:1004F000828193818730910584F4289FF001299FA0
:10050000F00D1124EE5AFB4F808191810197918368
:100510008083892B11F40E940D0C8091B70190917A
:10052000B801A091B901B091BA010197A109B1092F
:1005300049F08093B7019093B801A093B901B093AB
:10054000BA010DC081E090E0A0E0B0E08093B70177
:100550009093B801A093B901B093BA0168D7FF9105
:10056000EF91BF91AF919F918F917F916F915F912B
:100570004F913F912F910F900FBE0F901F901895A4
:1005800096D69093B6018093B50181E090E0A0E00B
:10059000B0E08093B7019093B801A093B901B093F4
:1005A000BA011092BF011092C0011092C1011092C5
:1005B000C2011092BB011092BC011092BD011092B9
:1005C000BE0185B5836085BD84B5826084BD89EF39
:1005D00087BDEEE6F0E08081826080830895CF924F
:1005E000DF92EF92FF92CF93DF936B017C010FD5E7
:1005F000D82F83E0C816D104E104F10420F08D2F38
:1006000009D5CFEF11C029E22C9DC0012D9D900D81
:10061000112480539F4FFC0176960590F491E02DB4
:100620000995C82F8D2FF6D48C2FDF91CF91FF9095
:10063000EF90DF90CF900895A6E0B0E0E2E2F3E023
:100640000C94DA102B8D29838C8CED8CFE8C09A1F7
:100650003AA13E83DCD4982E40E4E416F1041CF465
:1006600070E4E72EF12C83E0E80EF11C9CEFE92208
:1006700027010F2C000C66087708C301B20169D26C
:100680001C01019679F480E691E00E94460C892DC8
:10069000C1D4FFEFFA832FEF2B833FEF3C834FEF63
:1006A0004D8309C1309176012091770180917801C5
:1006B00090917901A12CB12C1BE5632F722F27E0BB
:1006C00030E040E050E00E94B4106B017C016A838E
:1006D000DB82EC82FD82169FF001179FF00D112442
:1006E000E953FE4F80819181B701A6014F5F5F4FB3
:1006F0006F4F7F4F892B79F44093760150937701A8
:1007000060937801709379018FEFC816D806E806D8
:10071000F806A1F4B8CF342F252FCB01EFEFAE1A96
:10072000BE0AF7E0AF16B10441F64093760150934C
:1007300077016093780190937901A5CF2F8D38A12F
:10074000121613060CF09FCF80914404909145043B
:10075000A0914604B09147040196A11DB11D80935C
:10076000440490934504A0934604B093470485E065
:1007700090E0918380833383228331AE20AE42AEFA
:1007800053AE64AE75AEDF01AB5BBF4F1C92A02FC2
:10079000BE818F0180E090E02D91F801E80FF91FF4
:1007A00026AF222321F0019687309105A9F72BE58A
:1007B0002C9DC0012D9D900D1124FC01E953FE4F8D
:1007C0005F01EA5BFF4F8FEF9FEF91838083B8D18A
:1007D000F501E85BFF4F60837183828393833896D2
:1007E00010823196118210823296118210823296D6
:1007F000118210828AEAF10180838BA19CA1F5010C
:1008000093A782A720E030E0F801E20FF31F1482E3
:100810002F5F3F4F26323105B9F72BE52C9DF001B4
:100820002D9DF00D1124E953FE4F298124AB85AA9B
:1008300026A387A220E820A7DE01959620E030E0DD
:100840002817390764F44D915D91F901EE0FFF1FF0
:10085000E00FF11F55A744A72F5F3F4FF1CFFC01D9
:100860007696EE0FFF1F4BE54C9D90014D9D300D90
:100870001124E20FF31FE953FE4F11821082F90198
:10088000E953FE4F848F958F2D503E4F228F338F2B
:100890008BE09CE0D10111978C9311979C93119759
:1008A00039813C9311978C9245E0241A310824A297
:1008B00035A2892DAFD36A817B818C819D8126965B
:1008C000E2E10C94F61061E070E080E090E00895C1
:1008D00037D1A9C3A0E0B0E0E0E7F4E00C94E01069
:1008E000EC016A017B0193D3C114D104E104F1044A
:1008F00009F447C020914E0430914F04C217D3072A
:1009000008F43FC020915004309151042C173D074A
:10091000C0F197E0C90ED11CE11CF11C98EFC9226F
:10092000A601DD0C660B770BE0914804F0914904B9
:10093000A8E4B4E0309741F0EC17FD0740F5DF0183
:100940000190F081E02DF6CF94E0A834B907D1F101
:100950001296CD90DD90ED90FC9015978D010B2EA9
:10096000000C220B330B0C0D1D1D2E1D3F1D6E01A7
:100970000D2E000CEE08FF08C016D106E206F306A5
:1009800018F448D38FEF82C0309741F41EC094E032
:10099000A834B907E9F600E010E098016E010D2EC9
:1009A000000CEE08FF08C40ED51EE61EF71E4F0110
:1009B0000F2E000CAA08BB088C149D04AE04BF04C3
:1009C00020F4DFCF00E010E09801C0904A04D090FE
:1009D0004B04E0904C04F0904D04C40ED51EE61E6E
:1009E000F71EC0924A04D0924B04E0924C04F0925D
:1009F0004D046E010D2E000CEE08FF08C016D10646
:100A0000E206F30691F412960D911D912D913C9101
:100A10001597400F511F621F731F12964D935D93E0
:100A20006D937C931597ED0108C0F983E8834A83A1
:100A30005B836C837D83CD93DC934A815B816C8186
:100A40007D818E010D2E000C220B330B040F151F20
:100A5000261F371F6F010F2E000CEE08FF080C1524
:100A60001D052E053F0581F4028113812481358106
:100A7000400F511F621F731F4A835B836C837D830A
:100A80002081318139832883C5D281E0CDB7DEB79B
:100A9000ECE00C94FC1026E0AC01249FC001259FE3
:100AA000900D1124FC01EE5AFB4F428153814730D7
:100AB00051051CF5BA01052E000C880B990B249FDB
:100AC000F001259FF00D1124EE5AFB4FA281B38156
:100AD00044815581249FF001259FF00D1124EE5A89
:100AE000FB4FB383A2832A9FF0012B9FF00D1124AB
:100AF000EE5AFB4F5583448308956FEF7FEFCB0190
:100B0000089546E0469FF001479FF00D1124EE5AEC
:100B1000FB4FA281B38124813581429FF001439F25
:100B2000F00D1124EE5AFB4FB383A2834A9FF001CC
:100B30004B9FF00D1124EE5AFB4F3583248308950B
:100B40006091C3017091C4018091C5019091C6016B
:100B50000895A0E0B0E0EFEAF5E00C94E4106B013A
:100B60007C0155D2C114D104E104F10449F197E0AC
:100B7000C90ED11CE11CF11C98EFC9220D2C000CF0
:100B8000EE08FF08E0914804F0914904A0E0B0E0CD
:100B9000C0E0D0E028E434E0309781F04281538116
:100BA000648175814C155D056E057F0510F0D901D6
:100BB000EF019F010190F081E02DEECF209721F40D
:100BC00029D28FEF9FEF41C00A811B812C813D818B
:100BD000C016D106E206F30629F4288139812D9347
:100BE0003C9311C00C191D092E093F090A831B8370
:100BF0002C833D83AE01DD0F660B770B040F151FB1
:100C0000261F371FE80140914A0450914B04609120
:100C10004C0470914D044C195D096E097F09409395
:100C20004A0450934B0460934C0470934D04F2D1EA
:100C3000D701C6010497A109B109AE01DD0F660B0A
:100C4000770B840F951FA61FB71FCDB7DEB7E8E05F
:100C50000C940011CF92DF92EF92FF92CF93DF932B
:100C60006B017C01D4D1D82F83E0C816D104E104F4
:100C7000F10420F08D2FCED1CFEF11C029E22C9DB1
:100C8000C0012D9D900D112480539F4FFC01729641
:100C90000590F491E02D0995C82F8D2FBBD18C2F95
:100CA000DF91CF91FF90EF90DF90CF9008956AD3BE
:100CB00080E191E09F938F9396D28AED91E0E6D503
:100CC000BFD2109244041092450410924604109230
:100CD0004704109296041092970410929804109270
:100CE0009904E7ECF1E084E494E00F900F90118216
:100CF000108216AE11AE10AE13821282E55AFF4F6B
:100D00008E179F07A1F79ADBD2D290939504809318
:100D1000940460E070E0CB019DDF61E070E080E072
:100D200090E098DF62E070E080E090E093DF28DC04
:100D3000E0914804F091490480E090E0DC013097B4
:100D400061F04281538164817581840F951FA61FD4
:100D5000B71F0190F081E02DF2CFBF93AF939F9327
:100D60008F938EE191E09F938F933DD21F921F92BC
:100D70001F921F9284E391E09F938F931F928AE0CA
:100D80008F931F9280E48F931F921F9255DC2BE567
:100D9000269FF001279FF00D1124E953FE4F81E0BB
:100DA00090E09183808338D11F921F921F921F92EF
:100DB0008AE391E09F938F931F928EE18F9381E05E
:100DC0008F931F9281EF9EE09F938F9335DC00D429
:100DD0008DB79EB74E960FB6F8949EBF0FBE8DBFCF
:100DE000FFCF1F93CF93DF93FA013797339708F024
:100DF00054C0673071058105910508F04EC03BE590
:100E0000369FF001379FF00D1124E953FE4F0190FA
:100E1000F081E02DEF2B09F440C036E0349FF00163
:100E2000359FF00D1124EE5AFB4F42815381022E63
:100E3000000C330BC6E016E0C49FF001C59FF00D17
:100E40001124EE5AFB4FA081B181A217B30718F00D
:100E500042815381F0CFC481D581169FD001179F65
:100E6000B00D1124AE5ABB4F13965C934E9312975C
:100E70001596DC93CE9314972D933C931C9FD00131
:100E80001D9FB00D1124AE5ABB4F13967C936E93E9
:100E900012977583648381E001C08FEFDF91CF915A
:100EA0001F9108954F925F926F927F928F929F92BF
:100EB000AF92BF92CF92DF92EF92FF92CF93DF93E8
:100EC00000D000D0CDB7DEB76B017C01CA01079717
:100ED000039708F088C087E0C816D104E104F10444
:100EE00008F081C08BE58C9DF0018D9DF00D1124E3
:100EF000E953FE4F80819181892B09F474C04A0126
:100F0000052E000CAA08BB0886E0849FF001859F8F
:100F1000F00D1124EE5AFB4F82819381092E000CB3
:100F2000AA0BBB0B4F5F5F4F2A01550F660877086E
:100F300049825A826B827C8266E049805A806B804B
:100F40007C8084159505A605B70569F566E06C9D5E
:100F5000F0016D9DF00D1124EE5AFB4F5382428239
:100F60009582848231832083689DA001699D500D04
:100F70001124FA01EE5AFB4FD382C282649DF00124
:100F8000659DF00D1124EE5AFB4FD582C482841565
:100F90009505A605B70529F180819181821B930BE8
:100FA000918380831EC0689FF001699FF00D11241A
:100FB000EE5AFB4F408151812417350758F0241B0E
:100FC000350B428153814C015D01CA01550FAA0BBB
:100FD000BB0BB3CF2C013D0189819A81AB81BC81D0
:100FE000B5CF81E001C08FEF0F900F900F900F9061
:100FF000DF91CF91FF90EF90DF90CF90BF90AF90B7
:101000009F908F907F906F905F904F9008958FB7D3
:10101000F89408958FBF089578940895FFCF8FEFC7
:10102000089581E00895AF92BF92CF92DF92EF9240
:10103000FF921F93CF93DF936B017C01E8DF182FA2
:1010400087E0C816D104E104F10488F48BE58C9D97
:10105000F0018D9DF00D1124E953FE4F80819181A7
:10106000892B29F0C114D104E104F10421F4812F6A
:10107000D1DF8FEF9DC08091440490914504A091F1
:101080004604B09147040197A109B1098093440433
:1010900090934504A0934604B09347040297A1059A
:1010A000B1050CF4E6D38BE58C9D50018D9DB00C01
:1010B0001124F501E15FFD4F60817181828193818F
:1010C000A7019601BAD2C0E0D0E0FE01EA0DFB1DF7
:1010D000E85EFD4F60817181072E000C880B990B33
:1010E0007EDA2296C630D10581F78BE58C9DE00132
:1010F0008D9DD00D1124C953DE4F4AAD5BAD6CAD53
:101100007DAD495F5F4F6F4F7F4F487F052E000CCD
:10111000660B770B88AD99AD092E000CAA0BBB0BA3
:101120000496A11DB11D841B950BA60BB70BD2DB3A
:10113000888199818430910581F030F48130910566
:1011400049F0029729F127C08630910551F00797A1
:1011500021F021C0198218826AD1C701B6010DD3CE
:101160001AC0CA5BDF4F8881998127E0289FF00170
:10117000299FF00D1124E85BFB4F81819281A381AF
:10118000B4810196A11DB11D81839283A383B48391
:10119000C701B601B6DC8BE58C9DF0018D9DF00D8D
:1011A0001124E953FE4F11821082812F33DF81E039
:1011B000DF91CF911F91FF90EF90DF90CF90BF9084
:1011C000AF900895CF93DF93C82F21DFD82FCA3077
:1011D00011F48DE0E3D88C2FE1D88D2F1BDF81E057
:1011E000DF91CF910895A1E5B0E0E8EFF8E0EEC718
:1011F0008E01065A1F4FF801E190F1908F0121E511
:1012000030E040E050E060E070E0CE0101960E94E6
:1012100051119801A70160E570E0CE0101960E948E
:1012200058118E010F5F1F4FF80181918F018823A4
:1012300011F0C8DFF9CF81E0CF5ADF4FE6E0E2C717
:101240000F931F93CF93DF9383EF94E0A0E8BB2726
:101250000196A11DB11DEC0190934F0480934E04A3
:101260002FEE38E03093510420935004E8E4F4E08A
:101270009183808319821882092E000CAA0BBB0B64
:101280004FEE58E060E070E08A019B01081B190BEB
:101290002A0B3B0B0A831B832C833D83028313831E
:1012A00024833583DF91CF911F910F910895209171
:1012B0000201309103012B30310544F5C90102963A
:1012C0009093030180930201A9014F5F5F4F66E095
:1012D000629FF001639FF00D1124EE5AFB4F538380
:1012E00042838FEF9FEF9583848391838083649FF4
:1012F000F001659FF00D1124EE5AFB4F938382831A
:101300003583248311821082C90108958FEF9FEFE6
:1013100008958F929F92AF92BF92EF92FF920F9398
:101320001F93CF93DF934B015C018A0179016FDE3C
:10133000D82F83E088169104A104B10420F08D2FEA
:1013400069DECFEF13C029E2289DC001299D900DD1
:10135000112480539F4FFC0174960590F491E02D69
:10136000A701B8010995C82F8D2F54DE8C2FDF916E
:10137000CF911F910F91FF90EF90BF90AF909F90F2
:101380008F900895F8944CD84BD80E94C2019BCA04
:10139000CF939C012750310923303105F8F4C6E082
:1013A000C89FF001C99FF00D1124EE5AFB4F228116
:1013B00033812730310594F46EDBC69FF001C79F5F
:1013C000F00D1124EE5AFB4F2FEF3FEF35832483AE
:1013D00033832283462F372F282F04C04FEF3FEF50
:1013E0002FEF9FEF642F732F822FCF9108956730D7
:1013F000710581059105C8F42BE5269FF001279F13
:10140000F00D1124E953FE4F20813181232B69F027
:1014100022E030E031832083409194045091950480
:101420002281DFDC04D081E008958FEF0895CF9210
:10143000DF92EF92FF928091960490919704A09191
:101440009804B0919904181619061A061B0624F47C
:1014500081E080939A046BC0C090C301D090C40116
:10146000E090C501F090C6018BE58C9DF0018D9D4B
:10147000F00D1124E953FE4F80819181019729F5E8
:1014800022813381409194045091950486E0849F99
:10149000D001859FB00D1124AE5ABB4F12966D91AD
:1014A0007C911397869FD001879FB00D1124AE5A6F
:1014B000BB4F8D919C9182179307C8F182E090E019
:1014C00091838083C701B6018CDC80919404909154
:1014D00095045EDF6093C3017093C4018093C501DE
:1014E0009093C6012BE5269FD001279FB00D1124B4
:1014F000FD01E953FE4F41E050E05183408341E05C
:1015000050E060E070E04093B7015093B801609301
:10151000B9017093BA01BD0165537E4F2C9DC00186
:101520002D9D900D112485539E4F0E946A01FF90BE
:10153000EF90DF90CF90089561307105810591059E
:1015400031F06230710581059105F1F03FC0809165
:10155000960490919704A0919804B0919904AC01DD
:10156000BD014F5F5F4F6F4F7F4F40939604509385
:1015700097046093980470939904892B8A2B8B2B82
:1015800019F510929A0420C08091960490919704C6
:10159000A0919804B0919904181619061A061B0612
:1015A000ACF40197A109B109809396049093970434
:1015B000A0939804B0939904892B8A2B8B2B21F448
:1015C00080919A04811133DF81E008958FEF0895AF
:1015D000CF92DF92EF92FF921F93CF93DF936B0135
:1015E0007C0115DD182F87E0C816D104E104F10451
:1015F00070F48BE58C9DF0018D9DF00D1124E95365
:10160000FE4F80819181009711F0059729F0812F7D
:1016100001DD8FEF9FEF09C0D281C381C701B60101
:10162000E6DE812FF7DC8D2F9C2FDF91CF911F916C
:10163000FF90EF90DF90CF9008958F929F92AF929E
:10164000BF92CF92DF92EF92FF92CF934B015C015A
:1016500069017A01DCDCC82F87E088169104A104B7
:10166000B10490F48BE5889DF001899DF00D112463
:10167000E953FE4F80819181009731F0DF01A05B3B
:10168000BF4F2C91222321F08C2FC4DC8FEF16C08A
:10169000E45BFF4FC082D182E282F38221E02C938F
:1016A0008330910529F0079731F4C501B40165D065
:1016B000C501B4019CDE8C2FADDC81E0CF91FF90A1
:1016C000EF90DF90CF90BF90AF909F908F90089554
:1016D000CF92DF92EF92FF92CF93DF9397FD33C0CB
:1016E0006B017C01672B682B692B11F4C6D029C0D4
:1016F0008EDCD82F4091B5015091B6016091C301A5
:101700007091C4018091C5019091C6019601CADB18
:10171000C82F8F3F19F48D2F7DDC16C08091C30137
:101720009091C4012BE5289FF001299FF00D112411
:10173000E953FE4F84E090E09183808378DE8D2F23
:1017400069DCC1E001C0CFEF8C2FDF91CF91FF901A
:10175000EF90DF90CF9008956C3924EC720720E26F
:101760008207910540F49B01AC01A8EEB3E018D5C7
:10177000AFDF81E008958FEF0895CF92DF92EF926F
:10178000FF92CF936B017C0142DCC82F87E0C81623
:10179000D104E104F10488F48BE58C9DF0018D9D6A
:1017A000F00D1124E953FE4F80819181009729F0BB
:1017B0008430910531F0079721F08C2F2BDC8FEFCF
:1017C00024C026E02C9DD0012D9DB00D1124AE5AD1
:1017D000BB4F12968D919C911397873091057CF4A5
:1017E000289FF001299FF00D1124EE5AFB4F208114
:1017F00031818D919C91820F931F91838083C701CA
:10180000B6017FD98C2F06DC81E0CF91FF90EF905D
:10181000DF90CF90089594D906CCCF9361E070E02B
:1018200080E090E089DEC6E08091B5019091B6013C
:10183000C89FF001C99FF00D1124EE5AFB4F228181
:1018400033812730310574F4C29FF001C39FF00D3E
:101850001124EE5AFB4F20813181232B19F498DD9E
:10186000C6DDE2CF62E070E080E090E065DECF911F
:10187000089583EB91E00AD0D1CBCF93C8DBC82F7A
:10188000D6DD8C2FC7DB81E0CF91089508950F93AB
:101890001F9300E010E0980104171507260737078B
:1018A00064F4DC01ED91CD010F5F1F4F2F4F3F4FCF
:1018B000E111F2CFB801C90104C06FEF7FEF8FEFE4
:1018C0009FEF1F910F910895A6E0B0E0E9E6FCE0DC
:1018D00071C4182F9C831B0169017A0198DB082FC2
:1018E00040E150E060E070E0812F9C81D0DF4B014F
:1018F0005C0141E050E060E070E0C101C8DF2B0115
:101900003C012FEF82169206A206B20649F16F3F04
:101910007F4F8F4F9F4F21F153E0C516D104E10453
:10192000F104F0F480919B0490919C04A0919D049B
:10193000B0919E0484309105A105B1058CF4198302
:101940001C811A8325E1289FA001299F500D112495
:101950005E834D8320E030E040E050E0BA0104C0F7
:10196000802F58DB8FEF42C0481559056A057B056B
:101970009CF4E981FA811191FA83E983ED81FE817A
:10198000E20FF31FE156FB4F10834F5F5F4F6F4F26
:101990007F4F2F5F3F4FE8CF141415041604170430
:1019A0005CF4F101208135E1389FF001399FF00DA1
:1019B0001124E156FB4F208B25E1289FF001299F40
:1019C000F00D1124E156FB4FC18AD28AE38AF48AD2
:1019D0000196A11DB11D80939B0490939C04A0933C
:1019E0009D04B0939E04802F15DB81E02696E2E1F2
:1019F000FDC3A0E2B0E0EEEFFCE0E0C386E0EFE381
:101A0000F1E0DE015B9601900D928A95E1F710926C
:101A10009B0410929C0410929D0410929E048BE4EF
:101A200091E034DF80EDA82E80E0B82E88E090E0D1
:101A30009C01205D30404901DE015B968E010F5F05
:101A40001F4FC12CD12C760138018D91F801819363
:101A5000882339F03FEFC31AD30AE30AF30A8F0150
:101A6000F4CFB4016A0D7B1D60537F4F4AE050E014
:101A7000CE01419607D4FE017196BFEFCB1ADB0A67
:101A8000EB0AFB0A20E1C216D104E104F10464F47C
:101A900081919FEB980F9A3108F4805ED8018D9365
:101AA0008D018111EACF09C030E1C316D104E104F0
:101AB000F10419F081E791E00DC0F5012591359110
:101AC0004591559163E371E0C301FEDE8F3F19F448
:101AD00086E991E0DBDEF9E2AF0EB11C2BE4A21641
:101AE00021E0B20609F0A8CF2FEF3FEFA90163E391
:101AF00071E08FE391E0E8DE81E0A096EEE07AC34A
:101B00004F925F926F927F928F929F92AF92BF920D
:101B1000DF92EF92FF920F931F93CF93DF9300D04A
:101B200000D01F92CDB7DEB7E0909B04F0909C04EC
:101B300000919D0410919E04E982FA820B831C831C
:101B40002FE934E0812C912C5401E980FA800B813B
:101B50001C818E149F04A006B106ACF47C01F9012F
:101B6000412C512C3201D70141914423C1F00FEF98
:101B7000E01AF00A5C9145130AC01FEF411A510A9E
:101B8000610A710AF0CF6FEF7FEFCB0165C00FEFF5
:101B9000801A900AA00AB00A2B5E3F4FD6CF7D83F1
:101BA000D62E40E150E060E070E071DE698385E1AF
:101BB000889D8001899D100D112401551B4F40E126
:101BC00050E060E070E0C80162DEA9812A2FAA0F10
:101BD000330B440B550B24193509460957092B01C2
:101BE0003C01B1E04B1A510861087108420E531EC6
:101BF000641E751EE1E14E165104610471041CF669
:101C00002B013C01D801ED2DFD8181E0481A5108DE
:101C10006108710814141504160417041CF48D913E
:101C20008193F3CF12161306140615064CF4D70150
:101C30008D917D0181932150310941095109F2CFE4
:101C400085E1889DF001899DF00D1124E156FB4F3F
:101C500061897289838994890F900F900F900F90FA
:101C60000F90DF91CF911F910F91FF90EF90DF9038
:101C7000BF90AF909F908F907F906F905F904F90AC
:101C80000895CF92DF92EF92FF92FB01C12CD12CED
:101C90007601C216D306E406F50664F46191DC0110
:101CA0006D93CD01662341F0BFEFCB1ADB0AEB0A3F
:101CB000FB0AEFCF8FEF01C081E0FF90EF90DF9044
:101CC000CF900895A0E1B0E0E7E6FEE079C28B0195
:101CD00049015A0120E130E040E050E0BC01CE0172
:101CE0000196CFDF8F3FF1F0C12CD12C76010DC0D2
:101CF00020E130E040E050E0B801CE010196C1DFC4
:101D00008FEFC81AD80AE80AF80A80919B049091CC
:101D10009C04A0919D04B0919E04C816D906EA06C1
:101D2000FB0614F08FEF0AC0B801CE010196E8DE81
:101D3000681579058A059B05D9F2862F6096ECE037
:101D40005BC2A0E1B0E0E6EAFEE042C2FC01CB01EA
:101D50008A012591359145915591BE016F5F7F4F65
:101D6000B1DF682F880F770B880B990B6F3F2FEF30
:101D700072078207920731F09801AE014F5F5F4F03
:101D8000C8DA01C08FEF6096E4E03EC2E091040142
:101D9000F091050180E4848384E88283089581368C
:101DA00071F4FB01EE0FFF1FE658FE4F8081918119
:101DB00018161906ACF48081918144970FC08436BF
:101DC00079F4FB01EE0FFF1FE658FE4F80819181F1
:101DD000843B91052CF4808191814496918380838A
:101DE000089567D0D3DFE0910801F0910901808167
:101DF0008F628083E0910601F091070180818F62FC
:101E0000808365E070E080E090E0A6DC22D11F9244
:101E10001F9285E491E09F938F931F92DEE1DF9301
:101E20001F92C0E8CF938AE49FE09F938F930E9414
:101E30001C03CEDB1F921F9289E491E09F938F9346
:101E40001F92DF931F92CF9382EF9FE09F938F9318
:101E50000E941C03BDDB8EE491E049D08DB79EB794
:101E600044960FB6F8949EBF0FBE8DBF95D0892BB8
:101E700059F034D0813611F0843631F460E070E0EE
:101E8000082E000C990B8BDF6EE170E080E090E093
:101E90001FDCECCF80918201909183010196909399
:101EA00083018093820161E070E080E090E054DC87
:101EB000F1CFE0910A01F0910B01158287E684834E
:101EC00086E0828388E181830895E0910A01F091A0
:101ED0000B01908195FFFDCF86830895E0910A0163
:101EE000F0910B01808187FFFDCF86810895CF930C
:101EF000DF93EC018991882311F0E7DFFBCF8DE0C0
:101F0000E4DF8AE0E2DFDF91CF910895CF93DF93A2
:101F1000EC018991882311F0D8DFFBCFDF91CF91BD
:101F20000895A0E0B0E0E6E9FFE04CC1AC018B0110
:101F3000ADB6BEB68DB79EB7861B970B0FB6F8949D
:101F40009EBF0FBE8DBFEDB7FEB731967F019B01DF
:101F5000EAE0F0E01216130664F4CA01BF01F1D002
:101F6000AB0121503109D701A20FB31F805D8C93C3
:101F7000F1CF6701C6018E199F09801791072CF4D4
:101F8000F60181916F01A1DFF5CF0FB6F894BEBEC7
:101F90000FBEADBEEAE032C1E0910A01F0910B0143
:101FA0008081807890E00895CF93DF9383E691E07D
:101FB000ADDFC0E0D0E0FE01EE0FFF1FE658FE4FA0
:101FC0008081918163E070E0ACDF85E691E09EDF87
:101FD0002196C430D10579F788E691E097DFDF914B
:101FE000CF910895C0E1DEE08CE3E82EF12C209142
:101FF0008201309183018091820190918301BE0121
:102000008CD08C01C901BE0188D0CB0162E070E0A8
:1020100088DF8AE390E059DFC801B7017ED09B01D9
:102020008C0162E070E0C9017CDF8AE390E04DDF63
:1020300062E070E0C80175DF8BE691E067DFB4DF36
:1020400086E691E054DF61E070E080E090E084DBC0
:10205000CECFE0910E01F0910F018081806A8083E4
:1020600081818960818382818283118688E580876E
:10207000E0910C01F0910D0180818260808380E00D
:1020800090E008951F920F920FB60F9211242F9394
:102090008F939F93AF93BF93EF93FF9380918401AE
:1020A00090918501A0918601B09187010196A11DB3
:1020B000B11D8093840190938501A0938601B09314
:1020C0008701803E23E9920724E0A207B10531F49D
:1020D000E0910601F0910701108213C0803C974205
:1020E000A940B10571F4E0910601F091070187E084
:1020F00080831092840110928501109286011092C3
:102100008701FF91EF91BF91AF919F918F912F9197
:102110000F900FBE0F901F901895AA1BBB1B51E18B
:1021200007C0AA1FBB1FA617B70710F0A61BB70B47
:10213000881F991F5A95A9F780959095BC01CD01EC
:10214000089597FB072E16F4009406D077FD08D06B
:10215000E4DF07FC05D03EF4909581959F4F0895EC
:10216000709561957F4F0895052E97FB16F40094A6
:102170000FD057FD05D055D007FC02D046F408C05B
:1021800050954095309521953F4F4F4F5F4F0895A3
:1021900090958095709561957F4F8F4F9F4F0895D3
:1021A00062D0A59F900DB49F900DA49F800D911DAE
:1021B000112408952F923F924F925F926F927F92D7
:1021C0008F929F92AF92BF92CF92DF92EF92FF9247
:1021D0000F931F93CF93DF93CDB7DEB7CA1BDB0BF3
:1021E0000FB6F894DEBF0FBECDBF09942A88398898
:1021F00048885F846E847D848C849B84AA84B9849F
:10220000C884DF80EE80FD800C811B81AA81B981AA
:10221000CE0FD11D0FB6F894DEBF0FBECDBFED01BE
:102220000895A1E21A2EAA1BBB1BFD010DC0AA1F17
:10223000BB1FEE1FFF1FA217B307E407F50720F02F
:10224000A21BB30BE40BF50B661F771F881F991FAA
:102250001A9469F760957095809590959B01AC01F3
:10226000BD01CF010895A29FB001B39FC001A39FFC
:10227000700D811D1124911DB29F700D811D1124BF
:10228000911D0895FB01DC014150504048F005903C
:102290000D920020C9F701C01D9241505040E0F757
:1022A0000895DC0101C06D9341505040E0F708955E
:1022B000AEE0B0E0EDE5F1E18BCF8C01FA0186E014
:1022C0008C831A83098377FF02C060E070E8CB013A
:1022D00001979E838D83A901BF01CE01019611D084
:1022E0004D815E8157FD0AC02F8138854217530703
:1022F0000CF49A01F801E20FF31F10822E96E4E02D
:1023000083CFABE0B0E0E6E8F1E154CF6C017B01B4
:102310008A01FC0117821682838181FFBFC1CE0131
:1023200001963C01F6019381F70193FD859193FF9E
:1023300081917F01882309F4ADC1853239F493FD81
:10234000859193FF81917F01853221F4B60190E060
:10235000C0D1E8CF912C212C312CFFE1F315D8F01E
:102360008B3279F038F4803279F08332A1F4232D66
:1023700020611DC08D3261F0803369F4232D21600E
:1023800016C0832D8260382EE32DE4603E2E2AC0D5
:10239000F32DF8601DC037FC2DC020ED280F2A302A
:1023A00040F08E32B9F436FC75C1232D2064322EF4
:1023B00019C036FE06C08AE0989E200D1124922E88
:1023C00011C0EAE02E9E200D1124222EF32DF06282
:1023D0003F2E08C08C3621F4832D8068382E02C031
:1023E000883641F4F70193FD859193FF81917F0138
:1023F0008111B3CF982F9F7D9554933028F40C5FB3
:102400001F4F9FE399830DC0833631F0833771F0FE
:10241000833509F055C020C0F801808189830E5FA3
:102420001F4F88248394912C530112C02801F2E09D
:102430004F0E511CF801A080B18036FE03C0692DFB
:1024400070E002C06FEF7FEFC50138D14C0182010F
:10245000F32DFF773F2E15C0280122E0420E511CBC
:10246000F801A080B18036FE03C0692D70E002C083
:102470006FEF7FEFC50117D14C01F32DF0683F2EB0
:10248000820133FC19C0822D90E088169906A0F4D1
:10249000B60180E290E01DD12A94F5CFF50137FC1A
:1024A000859137FE81915F01B60190E012D1211034
:1024B0002A9421E0821A91088114910479F7E1C0ED
:1024C000843611F0893639F5F80137FE07C060818E
:1024D0007181828193810C5F1F4F08C0608171817F
:1024E000072E000C880B990B0E5F1F4FF32DFF7604
:1024F0003F2E97FF09C090958095709561957F4F0D
:102500008F4F9F4FF0683F2E2AE030E0A3011DD18E
:10251000882E861844C0853731F4232D2F7EB22EA5
:102520002AE030E025C0932D997FB92E8F36C1F077
:1025300018F4883579F0AEC0803719F0883721F06B
:10254000A9C0E92FE061BE2EB4FE0DC0FB2DF460E2
:10255000BF2E09C034FE0AC0292F2660B22E06C045
:1025600028E030E005C020E130E002C020E132E0A8
:10257000F801B7FE07C060817181828193810C5F91
:102580001F4F06C06081718180E090E00E5F1F4F99
:10259000A301DBD0882E8618FB2DFF773F2E36FE59
:1025A0000DC0232D2E7FA22E891458F434FE0BC0AB
:1025B00032FC09C0832D8E7EA82E05C0B82CA32C1A
:1025C00003C0B82C01C0B92CA4FE0FC0FE01E80D59
:1025D000F11D8081803321F49A2D997EA92E09C0A6
:1025E000A2FE06C0B394B39404C08A2D867809F085
:1025F000B394A3FC10C0A0FE06C0B21480F4280C53
:10260000922C9B180DC0B21458F4B60180E290E0F1
:1026100060D0B394F8CFB21418F42B1802C0982CE1
:10262000212CA4FE0FC0B60180E390E052D0A2FEA0
:1026300016C0A1FC03C088E790E002C088E590E0E6
:10264000B6010CC08A2D867851F0A1FE02C08BE243
:1026500001C080E2A7FC8DE2B60190E03AD0891477
:1026600030F4B60180E390E034D09A94F8CF8A94A5
:10267000F301E80DF11D8081B60190E02AD08110B0
:10268000F6CF222009F44ECEB60180E290E021D0B0
:102690002A94F7CFF6018681978102C08FEF9FEFD2
:1026A0002B96E2E1A3CDFC01059061507040011032
:1026B000D8F7809590958E0F9F1F0895FC0161506B
:1026C000704001900110D8F7809590958E0F9F1F54
:1026D00008950F931F93CF93DF93FB01238121FD77
:1026E00003C08FEF9FEF2CC022FF16C04681578199
:1026F000248135814217530744F4A081B1819D01A3
:102700002F5F3F4F318320838C93268137812F5F4A
:102710003F4F3783268314C08B01EC01FB010084FB
:10272000F185E02D0995892BE1F6D80116968D915A
:102730009C911797019617969C938E931697CE01AE
:10274000DF91CF911F910F910895FA01AA272830A8
:1027500051F1203181F1E8946F936E7F6E5F7F4F6E
:102760008F4F9F4FAF4FB1E03ED0B4E03CD0670FEA
:10277000781F891F9A1FA11D680F791F8A1F911D3D
:10278000A11D6A0F711D811D911DA11D20D009F48D
:1027900068943F912AE0269F11243019305D3193CF
:1027A000DEF6CF010895462F4770405D4193B3E0B8
:1027B0000FD0C9F7F6CF462F4F70405D4A3318F05F
:1027C000495D31FD4052419302D0A9F7EACFB4E010
:1027D000A6959795879577956795BA95C9F70097C8
:1027E0006105710508959B01AC010A2E0694579569
:1027F000479537952795BA95C9F7620F731F841FC0
:06280000951FA01D0895C4
:10280600C0000700780025002400C0006F0080008B
:10281600201B5B306D1B5B324A1B5B3B48000A4644
:102826007265654D454D3A25642028627974657355
:10283600290A0A006E756C6C70006D61696E002F56
:102846006465762F007274630073686F77000D52AB
:10285600544F535F4C414220494E49434941444FEE
:102866000D0A005B002C20005D2000252E207365DC
:0628760072766F733A0058
:00000001FF
