:100000004AC1000066C1000064C1000062C1000076
:1000100060C100005EC100005CC100005AC1000068
:1000200058C1000015C2000054C100000C94AF106C
:1000300050C100004EC100004CC100004AC1000088
:1000400048C1000046C10000B2C1000042C100002A
:1000500040C100003EC100003CC100003AC10000A8
:1000600038C1000036C100000C944B010C946901AA
:100070000C9469010C9469010C9469010C94690158
:100080000C9469010C9469010C9469010C94280288
:100090000C9469010C94AF100C9469010C946901E3
:1000A0000C9469010C9469010C9469010C94690128
:1000B0000C94D7010C9469010C9469010C946901AA
:1000C0000C9469010C9469010C9469010C94690108
:1000D0000000000000000000434F4E534F4C45000D
:1000E00000001E081E081E081E081E081C081E0808
:1000F0001E081C0800001C08000100000001000090
:10010000004E554C4C4445560000001E081E081E6B
:10011000081E081E081C081E081E081C0800001CDB
:10012000080002000000000000004E414D45535001
:1001300041434500F70C9F0E1C081C081C081C08B6
:100140001C081C081C0800001C08006E616D696E0C
:100150006974202864657669636573293A0D0A001D
:100160004552524F522047455453544B2025730A51
:10017000006E616D6573706163653A2064657669D0
:100180006365206E616D6520257320746F6F206C30
:100190006F6E670D0A006E616D6573706163653A1D
:1001A0002063616E6E6F74206D6F756E74202564B0
:1001B0000D0A000A0A416C6C20757365722070721A
:1001C0006F636573736573206861766520636F6D17
:1001D000706C657465642E0A0A000A57656C636F5B
:1001E0006D6520746F2058696E75210A0A0D0958D3
:1001F000696E75204F5320436F7079726967687418
:100200002028632920323031322C20323031350A17
:100210000D09446F75676C617320452E20436F6D27
:10022000657220616E64204352432050726573737F
:100230002C20496E632E0A0A0D0958696E75204FED
:100240005320666F72204156522061746D6567615C
:10025000333238702076302E312028632920323016
:1002600032300A0D0952616661656C2049676E6122
:1002700063696F205A7572697461203C72616661AE
:100280004066692E756E636F6D612E6564752E61B3
:10029000723E0A0A0D0011241FBECFEFD8E0DEBF68
:1002A000CDBF11E0A0E0B1E0E4E1F9E202C00590C9
:1002B0000D92A239B107D9F723E0A2E9B1E001C05C
:1002C0001D92AF3CB207E1F70C9455060E94E00E78
:1002D000FDC296CEFF93EF93FC0100820FB6F89417
:1002E00004A21182228233824482558266827782FE
:1002F00080869186A286B386C486D586E686F786F2
:10030000008B118B228B338B448B558B668B778BB9
:10031000808F918FA28FB38FC48FD58F0F90068E51
:100320000F90078E0DB600A20EB601A2FB0100A031
:100330000DBE01A00EBE078C0F92068C0F92D58DBC
:10034000C48DB38DA28D918D808D778966895589F5
:1003500044893389228911890089F784E684D58408
:10036000C484B384A284918480847780668055801D
:10037000448033802280118004A00FBE0080EF9162
:10038000FF910895E0910001F0910101158287E647
:10039000848386E0828388E181830895E09100016F
:1003A000F0910101908195FFFDCF868308951F9202
:1003B0000F920FB60F9211248F938091C6008093F5
:1003C000AE018F910F900FBE0F901F901895A4E073
:1003D000B0E0EDEEF1E00C946A1119821A821B82F2
:1003E0001C8219821A821B821C8209811A812B812C
:1003F0003C81061717072807390770F400000981A8
:100400001A812B813C810F5F1F4F2F4F3F4F098374
:100410001A832B833C83E9CF2496E4E00C94861165
:1004200080E284B92D9A60E47DE083E090E0CFDF44
:100430002D9860E47DE083E090E0C9CF1092D70171
:100440001092D8011092D9011092DA0181E008953A
:100450001F920F920FB60F9211242F933F934F9339
:100460005F936F937F938F939F93AF93BF93EF931C
:10047000FF938091E1019091E201A091E301B0919D
:10048000E4010196A11DB11D8093E1019093E20169
:10049000A093E301B093E401883E9340A105B10528
:1004A000D8F08091E5019091E601A091E701B0912B
:1004B000E8010196A11DB11D8093E5019093E6012D
:1004C000A093E701B093E8011092E1011092E201DC
:1004D0001092E3011092E4018091DB019091DC0124
:1004E00026E0289FF001299FF00D1124EF5DFC4FBD
:1004F000828193818330910584F4289FF001299FA4
:10050000F00D1124EF5DFC4F808191810197918363
:100510008083892B11F40E940B0C8091DD01909156
:10052000DE01A091DF01B091E0010197A109B109BD
:1005300049F08093DD019093DE01A093DF01B09339
:10054000E0010DC081E090E0A0E0B0E08093DD012B
:100550009093DE01A093DF01B093E00177D7FF9184
:10056000EF91BF91AF919F918F917F916F915F912B
:100570004F913F912F910F900FBE0F901F901895A4
:10058000A5D69093DC018093DB0181E090E0A0E0B0
:10059000B0E08093DD019093DE01A093DF01B09382
:1005A000E0011092E5011092E6011092E70110922D
:1005B000E8011092E1011092E2011092E301109221
:1005C000E40180E88093B00085E08093B10081E091
:1005D000809370001092B6000895CF92DF92EF9250
:1005E000FF92CF93DF936B017C011ED5D82F83E060
:1005F000C816D104E104F10420F08D2F18D5CFEFF7
:1006000011C029E22C9DC0012D9D900D1124805315
:100610009F4FFC0176960590F491E02D0995C82F27
:100620008D2F05D58C2FDF91CF91FF90EF90DF902C
:10063000CF900895A6E0B0E0E0E2F3E00C945C1106
:100640002B8D29838C8CED8CFE8C09A13AA13E83E5
:10065000EBD4982E40E4E416F1041CF470E4E72E89
:10066000F12C83E0E80EF11C9CEFE92227010F2C0E
:10067000000C66087708C301B20169D21C0101961B
:1006800079F480E691E00E94440C892DD0D4FFEFEC
:10069000FA832FEF2B833FEF3C834FEF4D8309C14C
:1006A0003091920120919301809194019091950154
:1006B000A12CB12C1BE5632F722F23E030E040E02A
:1006C00050E00E9440116B017C016A83DB82EC8266
:1006D000FD82169FF001179FF00D1124E351FE4F8C
:1006E00080819181B701A6014F5F5F4F6F4F7F4FB0
:1006F000892B79F440939201509393016093940174
:10070000709395018FEFC816D806E806F806A1F495
:10071000B8CF342F252FCB01EFEFAE1ABE0AF3E08E
:10072000AF16B10441F64093920150939301609348
:10073000940190939501A5CF2F8D38A11216130621
:100740000CF09FCF8091FE029091FF02A0910003D8
:10075000B09101030196A11DB11D8093FE029093FB
:10076000FF02A0930003B093010385E090E0918322
:1007700080833383228331AE20AE42AE53AE64AE6B
:1007800075AEDF01AB5BBF4F1C92A02FBE818F0106
:1007900080E090E02D91F801E80FF91F26AF2223A9
:1007A00021F0019687309105A9F72BE52C9DC0011A
:1007B0002D9D900D1124FC01E351FE4F5F01EA5B7A
:1007C000FF4F8FEF9FEF91838083B8D1F501E85BF6
:1007D000FF4F6083718382839383389610823196B2
:1007E000118210823296118210823296118210820A
:1007F0008AEAF10180838BA19CA1F50193A782A7CE
:1008000020E030E0F801E20FF31F14822F5F3F4F2A
:1008100026323105B9F72BE52C9DF0012D9DF00D09
:100820001124E351FE4F298124AB85AA26A387A278
:1008300020E820A7DE01959620E030E02817390750
:1008400064F44D915D91F901EE0FFF1FE00FF11F70
:1008500055A744A72F5F3F4FF1CFFC017696EE0FCF
:10086000FF1F4BE54C9D90014D9D300D1124E20F73
:10087000F31FE351FE4F11821082F901E351FE4F45
:10088000848F958F275E3D4F228F338F89E09CE0C8
:10089000D10111978C9311979C93119739813C93B7
:1008A00011978C9245E0241A310824A235A2892D93
:1008B000BED36A817B818C819D812696E2E10C9476
:1008C000781161E070E080E090E0089537D1B8C31E
:1008D000A0E0B0E0EEE6F4E00C946211EC016A01F5
:1008E0007B01A2D3C114D104E104F10409F447C08F
:1008F00020911D0330911E03C217D30708F43FC097
:1009000020911F03309120032C173D07C0F197E081
:10091000C90ED11CE11CF11C98EFC922A601DD0C07
:10092000660B770BE0911703F0911803A7E1B3E092
:10093000309741F0EC17FD0740F5DF010190F081A1
:10094000E02DF6CF93E0A731B907D1F11296CD9003
:10095000DD90ED90FC9015978D010B2E000C220B75
:10096000330B0C0D1D1D2E1D3F1D6E010D2E000C99
:10097000EE08FF08C016D106E206F30618F457D3B6
:100980008FEF82C0309741F41EC093E0A731B907C2
:10099000E9F600E010E098016E010D2E000CEE0863
:1009A000FF08C40ED51EE61EF71E4F010F2E000CC9
:1009B000AA08BB088C149D04AE04BF0420F4DFCF4A
:1009C00000E010E09801C0901903D0901A03E09065
:1009D0001B03F0901C03C40ED51EE61EF71EC0922A
:1009E0001903D0921A03E0921B03F0921C036E01CC
:1009F0000D2E000CEE08FF08C016D106E206F30625
:100A000091F412960D911D912D913C911597400FE7
:100A1000511F621F731F12964D935D936D937C93CC
:100A20001597ED0108C0F983E8834A835B836C83E3
:100A30007D83CD93DC934A815B816C817D818E01C6
:100A40000D2E000C220B330B040F151F261F371F12
:100A50006F010F2E000CEE08FF080C151D052E056A
:100A60003F0581F40281138124813581400F511F9C
:100A7000621F731F4A835B836C837D832081318176
:100A800039832883D4D281E0CDB7DEB7ECE00C9473
:100A90007E1126E0AC01249FC001259F900D1124FA
:100AA000FC01EF5DFC4F42815381433051051CF541
:100AB000BA01052E000C880B990B249FF001259F8D
:100AC000F00D1124EF5DFC4FA281B381448155816B
:100AD000249FF001259FF00D1124EF5DFC4FB3839F
:100AE000A2832A9FF0012B9FF00D1124EF5DFC4F94
:100AF0005583448308956FEF7FEFCB01089546E05F
:100B0000469FF001479FF00D1124EF5DFC4FA2813D
:100B1000B38124813581429FF001439FF00D112460
:100B2000EF5DFC4FB383A2834A9FF0014B9FF00D12
:100B30001124EF5DFC4F3583248308956091E90112
:100B40007091EA018091EB019091EC010895A0E091
:100B5000B0E0EDEAF5E00C9466116B017C0164D223
:100B6000C114D104E104F10449F197E0C90ED11C8C
:100B7000E11CF11C98EFC9220D2C000CEE08FF08B7
:100B8000E0911703F0911803A0E0B0E0C0E0D0E0DE
:100B900027E133E0309781F0428153816481758190
:100BA0004C155D056E057F0510F0D901EF019F0121
:100BB0000190F081E02DEECF209721F438D28FEF15
:100BC0009FEF41C00A811B812C813D81C016D10657
:100BD000E206F30629F4288139812D933C9311C054
:100BE0000C191D092E093F090A831B832C833D83A1
:100BF000AE01DD0F660B770B040F151F261F371F85
:100C0000E8014091190350911A0360911B03709100
:100C10001C034C195D096E097F0940931903509319
:100C20001A0360931B0370931C0301D2D701C60102
:100C30000497A109B109AE01DD0F660B770B840F94
:100C4000951FA61FB71FCDB7DEB7E8E00C94821141
:100C5000CF92DF92EF92FF92CF93DF936B017C01F3
:100C6000E3D1D82F83E0C816D104E104F10420F0C9
:100C70008D2FDDD1CFEF11C029E22C9DC0012D9D1C
:100C8000900D112480539F4FFC0172960590F491B2
:100C9000E02D0995C82F8D2FCAD18C2FDF91CF91D0
:100CA000FF90EF90DF90CF9008957BD38EE191E09D
:100CB0009F938F93A5D28AED91E0E6D5D0D2109282
:100CC000FE021092FF021092000310920103109294
:100CD0007103109272031092730310927403EDEE7D
:100CE000F1E00F900F901182108216AE11AE10AE8F
:100CF00013821282E55AFF4F82E0EE3FF80799F720
:100D0000C2E0D3E007E113E0188219821A821B8245
:100D10001C82DCD29E838D8327960C171D07A1F7BA
:100D20008DDBD4D29093700380936F0360E070E00A
:100D3000CB018EDF61E070E080E090E089DF62E06F
:100D400070E080E090E084DF1BDCE0911703F0911D
:100D5000180380E090E0DC01309761F0428153811C
:100D600064817581840F951FA61FB71F0190F081C4
:100D7000E02DF2CFBF93AF939F938F938CE291E0DE
:100D80009F938F933DD21F921F921F921F9282E4D6
:100D900091E09F938F931F928AE08F931F9280E43C
:100DA0008F931F921F9246DC2BE5269FF001279F11
:100DB000F00D1124E351FE4F81E090E09183808398
:100DC00038D11F921F921F921F9288E491E09F9347
:100DD0008F931F928EE18F9382E08F931F9280EE0C
:100DE0009EE09F938F9326DC02D48DB79EB74E96DC
:100DF0000FB6F8949EBF0FBE8DBFFFCF1F93CF934A
:100E0000DF93FA013397399708F054C063307105C6
:100E10008105910508F04EC03BE5369FF001379FF4
:100E2000F00D1124E351FE4F0190F081E02DEF2BE6
:100E300009F440C036E0349FF001359FF00D1124D5
:100E4000EF5DFC4F42815381022E000C330BC6E054
:100E500016E0C49FF001C59FF00D1124EF5DFC4F1B
:100E6000A081B181A217B30718F042815381F0CF5E
:100E7000C481D581169FD001179FB00D1124AF5D9D
:100E8000BC4F13965C934E9312971596DC93CE93BA
:100E900014972D933C931C9FD0011D9FB00D1124DE
:100EA000AF5DBC4F13967C936E93129775836483EA
:100EB00081E001C08FEFDF91CF911F9108954F9294
:100EC0005F926F927F928F929F92AF92BF92CF92DA
:100ED000DF92EF92FF92CF93DF9300D000D0CDB797
:100EE000DEB76B017C01CA010397099708F088C03F
:100EF00083E0C816D104E104F10408F081C08BE559
:100F00008C9DF0018D9DF00D1124E351FE4F8081E9
:100F10009181892B09F474C04A01052E000CAA089E
:100F2000BB0886E0849FF001859FF00D1124EF5DE2
:100F3000FC4F82819381092E000CAA0BBB0B4F5FE3
:100F40005F4F2A01550F6608770849825A826B82E3
:100F50007C8266E049805A806B807C808415950590
:100F6000A605B70569F566E06C9DF0016D9DF00D75
:100F70001124EF5DFC4F538242829582848231833B
:100F80002083689DA001699D500D1124FA01EF5D39
:100F9000FC4FD382C282649DF001659DF00D112447
:100FA000EF5DFC4FD582C48284159505A605B70573
:100FB00029F180819181821B930B918380831EC0D4
:100FC000689FF001699FF00D1124EF5DFC4F408197
:100FD00051812417350758F0241B350B428153816A
:100FE0004C015D01CA01550FAA0BBB0BB3CF2C01FD
:100FF0003D0189819A81AB81BC81B5CF81E001C07F
:101000008FEF0F900F900F900F90DF91CF91FF9087
:10101000EF90DF90CF90BF90AF909F908F907F9098
:101020006F905F904F9008958FB7F89408958FBF99
:10103000089578940895FFCF8FEF089581E0089583
:10104000AF92BF92CF92DF92EF92FF921F93CF9316
:10105000DF936B017C01E8DF182F83E0C816D10411
:10106000E104F10488F48BE58C9DF0018D9DF00D79
:101070001124E351FE4F80819181892B29F0C11405
:10108000D104E104F10421F4812FD1DF8FEF9DC061
:101090008091FE029091FF02A0910003B0910103A4
:1010A0000197A109B1098093FE029093FF02A093DA
:1010B0000003B09301030297A105B1050CF4D7D347
:1010C0008BE58C9D50018D9DB00C1124F501EB5CDE
:1010D000FD4F6081718182819381A7019601BCD20D
:1010E000C0E0D0E0FE01EA0DFB1DE25CFD4F608137
:1010F0007181072E000C880B990B6FDA2296C6308F
:10110000D10581F78BE58C9DE0018D9DD00D1124DB
:10111000C351DE4F4AAD5BAD6CAD7DAD495F5F4FF6
:101120006F4F7F4F487F052E000C660B770B88AD05
:1011300099AD092E000CAA0BBB0B0496A11DB11D85
:10114000841B950BA60BB70BC3DB88819981843078
:10115000910581F030F48130910549F0029729F131
:1011600027C08630910551F0079721F021C01982E0
:1011700018826CD1C701B601FED21AC0CA5BDF4F1C
:101180008881998127E0289FF001299FF00D112483
:10119000EE5FFC4F81819281A381B4810196A11DF4
:1011A000B11D81839283A383B483C701B601A7DCF9
:1011B0008BE58C9DF0018D9DF00D1124E351FE4FC8
:1011C00011821082812F33DF81E0DF91CF911F9157
:1011D000FF90EF90DF90CF90BF90AF900895CF93A6
:1011E000DF93C82F21DFD82FCA3011F48DE0D6D875
:1011F0008C2FD4D88D2F1BDF81E0DF91CF91089504
:10120000A1E5B0E0E6E0F9E00C9468118E01065A21
:101210001F4FF801E190F1908F0121E530E040E0AF
:1012200050E060E070E0CE0101960E94D811980174
:10123000A70160E570E0CE0101960E94DF118E01EA
:101240000F5F1F4FF80181918F01882311F0C7DFD5
:10125000F9CF81E0CF5ADF4FE6E00C9484110F9371
:101260001F93CF93DF938FEC93E0A0E8BB27019609
:10127000A11DB11DEC0190931E0380931D032FEE61
:1012800038E03093200320931F03E7E1F3E09183DC
:10129000808319821882092E000CAA0BBB0B4FEE1B
:1012A00058E060E070E08A019B01081B190B2A0BD3
:1012B0003B0B0A831B832C833D830283138324838C
:1012C0003583DF91CF911F910F91089520910201F5
:1012D000309103012D30310544F5C90102969093F8
:1012E000030180930201A9014F5F5F4F66E0629F97
:1012F000F001639FF00D1124EF5DFC4F5383428397
:101300008FEF9FEF9583848391838083649FF001A7
:10131000659FF00D1124EF5DFC4F9383828335832D
:10132000248311821082C90108958FEF9FEF0895E1
:101330008F929F92AF92BF92EF92FF920F931F9363
:10134000CF93DF934B015C018A0179016DDED82FC9
:1013500083E088169104A104B10420F08D2F67DE8C
:10136000CFEF13C029E2289DC001299D900D1124C3
:1013700080539F4FFC0174960590F491E02DA701D6
:10138000B8010995C82F8D2F52DE8C2FDF91CF9198
:101390001F910F91FF90EF90BF90AF909F908F9013
:1013A0000895F8943DD83CD80E94C2018ACACF93D0
:1013B0009C012350310929303105F8F4C6E0C89F5B
:1013C000F001C99FF00D1124EF5DFC4F22813381A4
:1013D0002330310594F45DDBC69FF001C79FF00D0B
:1013E0001124EF5DFC4F2FEF3FEF358324833383D0
:1013F0002283462F372F282F04C04FEF3FEF2FEFC8
:101400009FEF642F732F822FCF9108956330710562
:1014100081059105C8F42BE5269FF001279FF00D6B
:101420001124E351FE4F20813181232B69F022E00A
:1014300030E03183208340916F035091700322810B
:10144000DDDC04D081E008958FEF0895CF92DF9224
:10145000EF92FF928091710390917203A0917303B8
:10146000B0917403181619061A061B0624F481E0BD
:10147000809375036BC0C090E901D090EA01E090C1
:10148000EB01F090EC018BE58C9DF0018D9DF00D52
:101490001124E351FE4F80819181019729F522812A
:1014A000338140916F035091700386E0849FD00197
:1014B000859FB00D1124AF5DBC4F12966D917C914C
:1014C0001397869FD001879FB00D1124AF5DBC4F4D
:1014D0008D919C9182179307C8F182E090E09183EF
:1014E0008083C701B6018ADC80916F0390917003FD
:1014F0005EDF6093E9017093EA018093EB019093C2
:10150000EC012BE5269FD001279FB00D1124FD0192
:10151000E351FE4F41E050E05183408341E050E011
:1015200060E070E04093DD015093DE016093DF01E5
:101530007093E001BD016F507E4F2C9DC0012D9D29
:10154000900D11248F509E4F0E946A01FF90EF90E2
:10155000DF90CF900895613071058105910531F0DC
:101560006230710581059105F1F03FC080917103F2
:1015700090917203A0917303B0917403AC01BD010B
:101580004F5F5F4F6F4F7F4F4093710350937203D4
:101590006093730370937403892B8A2B8B2B19F53B
:1015A0001092750320C08091710390917203A091F5
:1015B0007303B0917403181619061A061B06ACF4CF
:1015C0000197A109B1098093710390937203A093CD
:1015D0007303B0937403892B8A2B8B2B21F4809196
:1015E0007503811133DF81E008958FEF0895CF9265
:1015F000DF92EF92FF921F93CF93DF936B017C01F9
:1016000013DD182F83E0C816D104E104F10470F44F
:101610008BE58C9DF0018D9DF00D1124E351FE4F63
:1016200080819181009711F0059729F0812FFFDCCF
:101630008FEF9FEF09C0D281C381C701B601E6DEFB
:10164000812FF5DC8D2F9C2FDF91CF911F91FF9083
:10165000EF90DF90CF9008958F929F92AF92BF92BC
:10166000CF92DF92EF92FF92CF934B015C01690121
:101670007A01DADCC82F83E088169104A104B10452
:1016800090F48BE5889DF001899DF00D1124E351C4
:10169000FE4F80819181009731F0DF01A05BBF4F49
:1016A0002C91222321F08C2FC2DC8FEF16C0E45B3B
:1016B000FF4FC082D182E282F38221E02C938330FB
:1016C000910529F0079731F4C501B40154D0C50143
:1016D000B4019CDE8C2FABDC81E0CF91FF90EF90CA
:1016E000DF90CF90BF90AF909F908F900895CF9252
:1016F000DF92EF92FF92CF93DF9397FD33C06B01A0
:101700007C01672B682B692B11F4B5D029C08CDCC8
:10171000D82F4091DB015091DC016091E90170917B
:10172000EA018091EB019091EC019601C8DBC82F92
:101730008F3F19F48D2F7BDC16C08091E9019091C9
:10174000EA012BE5289FF001299FF00D1124E351B8
:10175000FE4F84E090E09183808378DE8D2F67DCFC
:10176000C1E001C0CFEF8C2FDF91CF91FF90EF90C0
:10177000DF90CF900895CF92DF92EF92FF92CF93B8
:101780006B017C0151DCC82F83E0C816D104E10451
:10179000F10488F48BE58C9DF0018D9DF00D1124F2
:1017A000E351FE4F80819181009729F084309105AB
:1017B00031F0079721F08C2F3ADC8FEF24C026E020
:1017C0002C9DD0012D9DB00D1124AF5DBC4F129604
:1017D0008D919C911397833091057CF4289FF001A3
:1017E000299FF00D1124EF5DFC4F208131818D91F7
:1017F0009C91820F931F91838083C701B6017FD98B
:101800008C2F15DC81E0CF91FF90EF90DF90CF908F
:10181000089594D915CCCF9361E070E080E090E01A
:101820009ADEC6E08091DB019091DC01C89FF00157
:10183000C99FF00D1124EF5DFC4F228133812330CD
:10184000310574F4C29FF001C39FF00D1124EF5DC8
:10185000FC4F20813181232B19F4A9DDD7DDE2CFA4
:1018600062E070E080E090E076DECF91089583EB57
:1018700091E00AD0E0CBCF93D7DBC82FE7DD8C2FE8
:10188000D6DB81E0CF91089508950F931F9300E078
:1018900010E09801041715072607370764F4DC01E8
:1018A000ED91CD010F5F1F4F2F4F3F4FE111F2CF51
:1018B000B801C90104C06FEF7FEF8FEF9FEF1F9159
:1018C0000F910895A6E0B0E0E7E6FCE0F5C4182F1C
:1018D0009C831B0169017A01A7DB082F40E150E0DE
:1018E00060E070E0812F9C81D0DF4B015C0141E022
:1018F00050E060E070E0C101C8DF2B013C012FEF38
:1019000082169206A206B20649F16F3F7F4F8F4FB3
:101910009F4F21F153E0C516D104E104F104F0F426
:101920008091760390917703A0917803B091790329
:1019300084309105A105B1058CF419831C811A83AB
:1019400025E1289FA001299F500D11245E834D831E
:1019500020E030E040E050E0BA0104C0802F67DBB7
:101960008FEF42C0481559056A057B059CF4E98153
:10197000FA811191FA83E983ED81FE81E20FF31F71
:10198000E658FC4F10834F5F5F4F6F4F7F4F2F5FC5
:101990003F4FE8CF14141504160417045CF4F1014A
:1019A000208135E1389FF001399FF00D1124E65870
:1019B000FC4F208B25E1289FF001299FF00D112479
:1019C000E658FC4FC18AD28AE38AF48A0196A11DA7
:1019D000B11D8093760390937703A0937803B0931F
:1019E0007903802F24DB81E02696E2E181C4A0E226
:1019F000B0E0ECEFFCE064C486E0EDE4F1E0DE0191
:101A00005B9601900D928A95E1F710927603109201
:101A1000770310927803109279038BE491E034DF1E
:101A200080EDA82E80E0B82E88E090E09C01205D3B
:101A300030404901DE015B968E010F5F1F4FC12CC4
:101A4000D12C760138018D91F8018193882339F0EA
:101A50003FEFC31AD30AE30AF30A8F01F4CFB401AC
:101A60006A0D7B1D60537F4F4AE050E0CE014196E6
:101A700090D4FE017196BFEFCB1ADB0AEB0AFB0A8A
:101A800020E1C216D104E104F10464F481919FEBDA
:101A9000980F9A3108F4805ED8018D938D018111E1
:101AA000EACF09C030E1C316D104E104F10419F012
:101AB00081E791E00DC0F501259135914591559152
:101AC00061E471E0C301FEDE8F3F19F486E991E025
:101AD000DBDEF9E2AF0EB11C2BE4A21621E0B20668
:101AE00009F0A8CF2FEF3FEFA90161E471E08DE489
:101AF00091E0E8DE81E0A096EEE0FEC34F925F92B7
:101B00006F927F928F929F92AF92BF92DF92EF92ED
:101B1000FF920F931F93CF93DF9300D000D01F92BB
:101B2000CDB7DEB7E0907603F090770300917803AD
:101B300010917903E982FA820B831C832AE733E050
:101B4000812C912C5401E980FA800B811C818E1428
:101B50009F04A006B106ACF47C01F901412C512C84
:101B60003201D70141914423C1F00FEFE01AF00A8E
:101B70005C9145130AC01FEF411A510A610A710AAC
:101B8000F0CF6FEF7FEFCB0165C00FEF801A900AA7
:101B9000A00AB00A2B5E3F4FD6CF7D83D62E40E100
:101BA00050E060E070E071DE698385E1889D80012E
:101BB000899D100D112406571C4F40E150E060E054
:101BC00070E0C80162DEA9812A2FAA0F330B440BF3
:101BD000550B24193509460957092B013C01B1E081
:101BE0004B1A510861087108420E531E641E751E7F
:101BF000E1E14E165104610471041CF62B013C0115
:101C0000D801ED2DFD8181E0481A51086108710865
:101C100014141504160417041CF48D918193F3CF4A
:101C200012161306140615064CF4D7018D917D018A
:101C300081932150310941095109F2CF85E1889DF5
:101C4000F001899DF00D1124E658FC4F61897289DD
:101C5000838994890F900F900F900F900F90DF91D0
:101C6000CF911F910F91FF90EF90DF90BF90AF90B9
:101C70009F908F907F906F905F904F900895CF923C
:101C8000DF92EF92FF92FB01C12CD12C7601C2169C
:101C9000D306E406F50664F46191DC016D93CD0191
:101CA000662341F0BFEFCB1ADB0AEB0AFB0AEFCF4A
:101CB0008FEF01C081E0FF90EF90DF90CF9008950B
:101CC000A0E1B0E0E5E6FEE0FDC28B0149015A016A
:101CD00020E130E040E050E0BC01CE010196CFDFD2
:101CE0008F3FF1F0C12CD12C76010DC020E130E006
:101CF00040E050E0B801CE010196C1DF8FEFC81A75
:101D0000D80AE80AF80A8091760390917703A091A7
:101D10007803B0917903C816D906EA06FB0614F0D9
:101D20008FEF0AC0B801CE010196E8DE681579058B
:101D30008A059B05D9F2862F6096ECE0DFC2A0E110
:101D4000B0E0E4EAFEE0C6C2FC01CB018A012591C5
:101D5000359145915591BE016F5F7F4FB1DF682F7F
:101D6000880F770B880B990B6F3F2FEF7207820755
:101D7000920731F09801AE014F5F5F4FD9DA01C091
:101D80008FEF6096E4E0C2C2E0910401F09105019A
:101D900080E4848384E882830895E0910401F091D3
:101DA00005019481907F892B848382818064828362
:101DB000828186FDFDCF8081218190E0922B089564
:101DC000E0910E01F0910F018FE38083E0910C010F
:101DD000F0910D018083E0910801F09109011082DA
:101DE000E0910601F09107018CE080839DD145D000
:101DF000CBDF1F921F9283E591E09F938F931F92F9
:101E00008EE18F9382E08F931F9287E690E19F93FC
:101E10008F930E941A03EBDB68EC70E080E090E0A7
:101E200066DC87E591E03ED08DB79EB70A960FB687
:101E3000F8949EBF0FBE8DBF80E090E00895CF93D1
:101E4000DF9382E791E03DD0C0E0D0E0FE01EE0FED
:101E5000FF1FE056FE4F8081918163E070E03CD02F
:101E600084E791E02ED02196C530D10579F787E738
:101E700091E027D0DF91CF910895E0911801F09182
:101E80001901158287E6848386E0828388E1818355
:101E90000895E0911801F0911901908195FFFDCF0F
:101EA00086830895CF93DF93EC018991882311F005
:101EB000F0DFFBCF8DE0EDDF8AE0EBDFDF91CF914C
:101EC0000895CF93DF93EC018991882311F0E1DF2E
:101ED000FBCFDF91CF910895A0E0B0E0E1E7FFE014
:101EE000F3C1AC018B01ADB6BEB68DB79EB7861BF4
:101EF000970B0FB6F8949EBF0FBE8DBFEDB7FEB720
:101F000031967F019B01EAE0F0E01216130664F4BB
:101F1000CA01BF01A2D1AB0121503109D701A20FE3
:101F2000B31F805D8C93F1CF6701C6018E199F09A5
:101F3000801791072CF4F60181916F01AADFF5CF8C
:101F40000FB6F894BEBE0FBEADBEEAE0D9C1613394
:101F500022E0720724F4683B714084F00895FC018C
:101F6000EE0FFF1FEA56FE4F208131811216130635
:101F700044F520813181255031090EC0FC01EE0F5E
:101F8000FF1FEA56FE4F20813181243B3105D4F4F6
:101F9000208131812B5F3F4F31832083880F991F30
:101FA000FC01EA56FE4F408151812091160130918B
:101FB0001701240F351FFC01E056FE4F31832083AB
:101FC0003ECF089508950F931F93CF93DF93EC01B5
:101FD0008B01452B79F56AE070E080E090E087DBCB
:101FE0000115110571F4FE01EE0FFF1FEA56FE4FB9
:101FF0008081918118161906B4F48081918105972A
:1020000010C00130110579F4FE01EE0FFF1FEA56F2
:10201000FE4F80819181843B91052CF480819181D8
:1020200005969183808381E090E09093AB0180934B
:10203000AA0111C08091AA019091AB01019749F4C6
:102040006AE070E080E090E052DB1092AB01109209
:10205000AA0180E090E00115110551F4FE01EE0F98
:10206000FF1FEA56FE4F2081318137FF0EC021C08D
:102070000130110551F4FE01EE0FFF1FEA56FE4F2D
:1020800020813181253B3105A4F4892B91F0CC0FBF
:10209000DD1FFE01EA56FE4F20813181809116013D
:1020A00090911701820F931FC056DE4F998388834A
:1020B000C6DEDF91CF911F910F91089560E971E025
:1020C00080E090E014DB8AE791E0ECDEB8CEF6DF4A
:1020D00080E090E062DE8C0181E090E05EDEEC0169
:1020E00082E090E05ADE83E090E057DEB80180E0C5
:1020F00090E02DDFBE0181E090E029DFE0910A0150
:10210000F0910B014081C081447050E060E070E0CC
:1021100084E090E058DFC8704C2F50E061E070E040
:1021200084E090E050DFD4CFE0911C01F0911D01DC
:102130008081808381818960818382818283809193
:1021400010019091110191878087E0911A01F0911F
:102150001B0180818260808380E090E008951F925F
:102160000F920FB60F9211242F933F934F935F93CB
:102170006F937F938F939F93EF93FF938091AC0125
:102180009091AD0101969093AD018093AC012091A7
:1021900012013091130182179307E1F41092AD01FF
:1021A0001092AC0180E090E041E050E09A01082EEE
:1021B00001C0220F0A94EAF72093CE03E0910C01AC
:1021C000F0910D013081232B2083019685309105FC
:1021D00069F734C0209116013091170182179307D7
:1021E0006CF120911401309115012817390734F151
:1021F00080E090E041E050E0FC01EE0FFF1FE05670
:10220000FE4F608171812091AC013091AD01621768
:10221000730781F49A01082E01C0220F0A94EAF78D
:1022200020952093CE03E0910C01F0910D013081B7
:1022300023232083019685309105F1F6FF91EF91DC
:102240009F918F917F916F915F914F913F912F91CE
:102250000F900FBE0F901F90189597FB072E16F446
:10226000009406D077FD08D05ED007FC05D03EF480
:10227000909581959F4F0895709561957F4F089532
:10228000052E97FB16F400940FD057FD05D05FD0B4
:1022900007FC02D046F408C0509540953095219532
:1022A0003F4F4F4F5F4F0895909580957095619582
:1022B0007F4F8F4F9F4F08952F923F924F925F9283
:1022C0006F927F928F929F92AF92BF92CF92DF9246
:1022D000EF92FF920F931F93CF93DF93CDB7DEB7AB
:1022E000CA1BDB0B0FB6F894DEBF0FBECDBF09943F
:1022F0002A88398848885F846E847D848C849B8496
:10230000AA84B984C884DF80EE80FD800C811B81A3
:10231000AA81B981CE0FD11D0FB6F894DEBF0FBED2
:10232000CDBFED010895AA1BBB1B51E107C0AA1F39
:10233000BB1FA617B70710F0A61BB70B881F991F66
:102340005A95A9F780959095BC01CD010895A1E219
:102350001A2EAA1BBB1BFD010DC0AA1FBB1FEE1F1F
:10236000FF1FA217B307E407F50720F0A21BB30B6A
:10237000E40BF50B661F771F881F991F1A9469F7E6
:1023800060957095809590959B01AC01BD01CF0142
:102390000895FB01DC014150504048F005900D923A
:1023A0000020C9F701C01D9241505040E0F7089548
:1023B000DC0101C06D9341505040E0F70895AEE05C
:1023C000B0E0E4EEF1E186CF8C01FA0186E08C8387
:1023D0001A83098377FF02C060E070E8CB010197A0
:1023E0009E838D83A901BF01CE01019611D04D813D
:1023F0005E8157FD0AC02F813885421753070CF4C0
:102400009A01F801E20FF31F10822E96E4E07ECFCE
:10241000ABE0B0E0EDE0F2E14FCF6C017B018A016F
:10242000FC0117821682838181FFBFC1CE01019614
:102430003C01F6019381F70193FD859193FF819112
:102440007F01882309F4ADC1853239F493FD85916C
:1024500093FF81917F01853221F4B60190E0C0D1D4
:10246000E8CF912C212C312CFFE1F315D8F08B32E1
:1024700079F038F4803279F08332A1F4232D206191
:102480001DC08D3261F0803369F4232D216016C0A8
:10249000832D8260382EE32DE4603E2E2AC0F32D7A
:1024A000F8601DC037FC2DC020ED280F2A3040F009
:1024B0008E32B9F436FC75C1232D2064322E19C03A
:1024C00036FE06C08AE0989E200D1124922E11C07F
:1024D000EAE02E9E200D1124222EF32DF0623F2ED5
:1024E00008C08C3621F4832D8068382E02C08836CF
:1024F00041F4F70193FD859193FF81917F01811153
:10250000B3CF982F9F7D9554933028F40C5F1F4FC5
:102510009FE399830DC0833631F0833771F08335A3
:1025200009F055C020C0F801808189830E5F1F4FDC
:1025300088248394912C530112C02801F2E04F0E9D
:10254000511CF801A080B18036FE03C0692D70E0F7
:1025500002C06FEF7FEFC50138D14C018201F32D2E
:10256000FF773F2E15C0280122E0420E511CF801D2
:10257000A080B18036FE03C0692D70E002C06FEF0D
:102580007FEFC50117D14C01F32DF0683F2E82017A
:1025900033FC19C0822D90E088169906A0F4B6018C
:1025A00080E290E01DD12A94F5CFF50137FC8591AA
:1025B00037FE81915F01B60190E012D121102A947B
:1025C00021E0821A91088114910479F7E1C08436E0
:1025D00011F0893639F5F80137FE07C06081718145
:1025E000828193810C5F1F4F08C060817181072E2B
:1025F000000C880B990B0E5F1F4FF32DFF763F2EBB
:1026000097FF09C090958095709561957F4F8F4F8A
:102610009F4FF0683F2E2AE030E0A3011DD1882EA5
:10262000861844C0853731F4232D2F7EB22E2AE040
:1026300030E025C0932D997FB92E8F36C1F018F464
:10264000883579F0AEC0803719F0883721F0A9C0FD
:10265000E92FE061BE2EB4FE0DC0FB2DF460BF2E4D
:1026600009C034FE0AC0292F2660B22E06C028E019
:1026700030E005C020E130E002C020E132E0F801A6
:10268000B7FE07C060817181828193810C5F1F4F0B
:1026900006C06081718180E090E00E5F1F4FA30152
:1026A000DBD0882E8618FB2DFF773F2E36FE0DC01F
:1026B000232D2E7FA22E891458F434FE0BC032FC39
:1026C00009C0832D8E7EA82E05C0B82CA32C03C074
:1026D000B82C01C0B92CA4FE0FC0FE01E80DF11DFD
:1026E0008081803321F49A2D997EA92E09C0A2FE03
:1026F00006C0B394B39404C08A2D867809F0B394CD
:10270000A3FC10C0A0FE06C0B21480F4280C922CCA
:102710009B180DC0B21458F4B60180E290E060D06E
:10272000B394F8CFB21418F42B1802C0982C212CB3
:10273000A4FE0FC0B60180E390E052D0A2FE16C006
:10274000A1FC03C088E790E002C088E590E0B601F4
:102750000CC08A2D867851F0A1FE02C08BE201C028
:1027600080E2A7FC8DE2B60190E03AD0891430F403
:10277000B60180E390E034D09A94F8CF8A94F301C4
:10278000E80DF11D8081B60190E02AD08110F6CFCE
:10279000222009F44ECEB60180E290E021D02A94A6
:1027A000F7CFF6018681978102C08FEF9FEF2B96BE
:1027B000E2E19ECDFC010590615070400110D8F718
:1027C000809590958E0F9F1F0895FC016150704079
:1027D00001900110D8F7809590958E0F9F1F089556
:1027E0000F931F93CF93DF93FB01238121FD03C040
:1027F0008FEF9FEF2CC022FF16C0468157812481A6
:1028000035814217530744F4A081B1819D012F5FA8
:102810003F4F318320838C93268137812F5F3F4F39
:102820003783268314C08B01EC01FB010084F18502
:10283000E02D0995892BE1F6D80116968D919C9192
:102840001797019617969C938E931697CE01DF915A
:10285000CF911F910F910895FA01AA27283051F1C5
:10286000203181F1E8946F936E7F6E5F7F4F8F4FC1
:102870009F4FAF4FB1E03ED0B4E03CD0670F781F20
:10288000891F9A1FA11D680F791F8A1F911DA11D05
:102890006A0F711D811D911DA11D20D009F468943E
:1028A0003F912AE0269F11243019305D3193DEF6E6
:1028B000CF010895462F4770405D4193B3E00FD09C
:1028C000C9F7F6CF462F4F70405D4A3318F0495D87
:1028D00031FD4052419302D0A9F7EACFB4E0A6956A
:1028E0009795879577956795BA95C9F7009761058C
:1028F000710508959B01AC010A2E069457954795E2
:1029000037952795BA95C9F7620F731F841F951FD6
:04291000A01D089569
:10291400C000030078002B002A00290025002400B1
:102924005300350E6C015A00C0006F008000201B5C
:102934005B306D1B5B324A1B5B3B48000A46726589
:10294400654D454D3A256420286279746573290ADA
:102954000A006E756C6C70006D61696E002F6465A1
:10296400762F00737469000D4252415A4F204D4531
:1029740043414E49434F20494E49434941444F0D39
:102984000A005B002C20005D2000414E47554C4F4F
:1029940053204445204C4F5320534552564F533AED
:0229A400200011
:00000001FF
