:100000004AC1000066C1000064C1000062C1000076
:1000100060C100005EC100005CC100005AC1000068
:1000200058C1000056C1000054C1000052C1000078
:1000300050C100004EC100000BC200004AC10000C8
:1000400048C1000046C10000B2C1000042C100002A
:1000500040C100003EC100003CC100003AC10000A8
:1000600038C1000036C100000C944B010C946901AA
:100070000C9469010C9469010C9469010C94690158
:100080000C9469010C9469010C9469010C94690148
:100090000C9469010C9469010C9469010C94690138
:1000A0000C9428020C9469010C9469010C94690168
:1000B0000C94D7010C9469010C9469010C946901AA
:1000C0000C9469010C9469010C9469010C94690108
:1000D0000000000000000000434F4E534F4C45000D
:1000E0000000200820082008200820081E082008FA
:1000F00020081E0800001E0800010000000100008A
:10010000004E554C4C444556000000200820082065
:1001100008200820081E08200820081E0800001ECD
:10012000080002000000000000004E414D45535001
:1001300041434500270DCF0E1E081E081E081E084D
:100140001E081E081E0800001E08006E616D696E04
:100150006974202864657669636573293A0D0A001D
:100160004552524F522047455453544B2025730A51
:10017000006E616D6573706163653A2064657669D0
:100180006365206E616D6520257320746F6F206C30
:100190006F6E670D0A006E616D6573706163653A1D
:1001A0002063616E6E6F74206D6F756E74202564B0
:1001B0000D0A000A0A416C6C20757365722070721A
:1001C0006F636573736573206861766520636F6D17
:1001D000706C657465642E0A0A000A57656C636F5B
:1001E0006D6520746F2058696E75210A0A0D0958D3
:1001F000696E75204F5320436F7079726967687418
:100200002028632920323031322C20323031350A17
:100210000D09446F75676C617320452E20436F6D27
:10022000657220616E64204352432050726573737F
:100230002C20496E632E0A0A0D0958696E75204FED
:100240005320666F72204156522061746D6567615C
:10025000333238702076302E312028632920323016
:1002600032300A0D0952616661656C2049676E6122
:1002700063696F205A7572697461203C72616661AE
:100280004066692E756E636F6D612E6564752E61B3
:10029000723E0A0A0D0011241FBECFEFD8E0DEBF68
:1002A000CDBF11E0A0E0B1E0E6E2F7E202C00590C8
:1002B0000D92A037B107D9F724E0A0E7B1E001C063
:1002C0001D92A431B207E1F70C9457060E94720FF9
:1002D000FFC296CEFF93EF93FC0100820FB6F89415
:1002E00004A21182228233824482558266827782FE
:1002F00080869186A286B386C486D586E686F786F2
:10030000008B118B228B338B448B558B668B778BB9
:10031000808F918FA28FB38FC48FD58F0F90068E51
:100320000F90078E0DB600A20EB601A2FB0100A031
:100330000DBE01A00EBE078C0F92068C0F92D58DBC
:10034000C48DB38DA28D918D808D778966895589F5
:1003500044893389228911890089F784E684D58408
:10036000C484B384A284918480847780668055801D
:10037000448033802280118004A00FBE0080EF9162
:10038000FF910895E0910001F0910101158287E647
:10039000848386E0828388E181830895E09100016F
:1003A000F0910101908195FFFDCF868308951F9202
:1003B0000F920FB60F9211248F938091C6008093F5
:1003C0007C018F910F900FBE0F901F901895A4E0A5
:1003D000B0E0EDEEF1E00C94731019821A821B82EA
:1003E0001C8219821A821B821C8209811A812B812C
:1003F0003C81061717072807390770F400000981A8
:100400001A812B813C810F5F1F4F2F4F3F4F098374
:100410001A832B833C83E9CF2496E4E00C948F105D
:1004200080E284B92D9A60E47DE083E090E0CFDF44
:100430002D9860E47DE083E090E0C9CF1092A501A3
:100440001092A6011092A7011092A80181E00895D0
:100450001F920F920FB60F9211242F933F934F9339
:100460005F936F937F938F939F93AF93BF93EF931C
:10047000FF938091AF019091B001A091B101B09133
:10048000B2010196A11DB11D8093AF019093B001FF
:10049000A093B101B093B201883E9340A105B1058C
:1004A000D8F08091B3019091B401A091B501B091C1
:1004B000B6010196A11DB11D8093B3019093B401C3
:1004C000A093B501B093B6011092AF011092B001A4
:1004D0001092B1011092B2018091A9019091AA01EC
:1004E00026E0289FF001299FF00D1124EF5AFC4FC0
:1004F000828193818430910584F4289FF001299FA3
:10050000F00D1124EF5AFC4F808191810197918366
:100510008083892B11F40E94090C8091AB0190918A
:10052000AC01A091AD01B091AE010197A109B10953
:1005300049F08093AB019093AC01A093AD01B093CF
:10054000AE010DC081E090E0A0E0B0E08093AB018F
:100550009093AC01A093AD01B093AE0175D7FF911C
:10056000EF91BF91AF919F918F917F916F915F912B
:100570004F913F912F910F900FBE0F901F901895A4
:10058000A3D69093AA018093A90181E090E0A0E016
:10059000B0E08093AB019093AC01A093AD01B09318
:1005A000AE011092B3011092B4011092B5011092F5
:1005B000B6011092AF011092B0011092B1011092E9
:1005C000B20185B5836085BD84B5826084BD89EF45
:1005D00087BDEEE6F0E08081826080830895CF924F
:1005E000DF92EF92FF92CF93DF936B017C011ED5D8
:1005F000D82F83E0C816D104E104F10420F08D2F38
:1006000018D5CFEF11C029E22C9DC0012D9D900D72
:10061000112480539F4FFC0176960590F491E02DB4
:100620000995C82F8D2F05D58C2FDF91CF91FF9085
:10063000EF90DF90CF900895A6E0B0E0E2E2F3E023
:100640000C9465102B8D29838C8CED8CFE8C09A16C
:100650003AA13E83EBD4982E40E4E416F1041CF456
:1006600070E4E72EF12C83E0E80EF11C9CEFE92208
:1006700027010F2C000C66087708C301B20169D26C
:100680001C01019679F480E691E00E94420C892DCC
:10069000D0D4FFEFFA832FEF2B833FEF3C834FEF54
:1006A0004D8309C1309170012091710180917201D7
:1006B00090917301A12CB12C1BE5632F722F24E0C4
:1006C00030E040E050E00E9449106B017C016A83F9
:1006D000DB82EC82FD82169FF001179FF00D112442
:1006E000E554FE4F80819181B701A6014F5F5F4FB6
:1006F0006F4F7F4F892B79F44093700150937101B4
:1007000060937201709373018FEFC816D806E806E4
:10071000F806A1F4B8CF342F252FCB01EFEFAE1A96
:10072000BE0AF4E0AF16B10441F640937001509355
:1007300071016093720190937301A5CF2F8D38A141
:10074000121613060CF09FCF809127039091280377
:10075000A0912903B0912A030196A11DB11D809398
:10076000270390932803A0932903B0932A0385E0DD
:1007700090E0918380833383228331AE20AE42AEFA
:1007800053AE64AE75AEDF01AB5BBF4F1C92A02FC2
:10079000BE818F0180E090E02D91F801E80FF91FF4
:1007A00026AF222321F0019687309105A9F72BE58A
:1007B0002C9DC0012D9D900D1124FC01E554FE4F90
:1007C0005F01EA5BFF4F8FEF9FEF91838083B8D18A
:1007D000F501E85BFF4F60837183828393833896D2
:1007E00010823196118210823296118210823296D6
:1007F000118210828AEAF10180838BA19CA1F5010C
:1008000093A782A720E030E0F801E20FF31F1482E3
:100810002F5F3F4F26323105B9F72BE52C9DF001B4
:100820002D9DF00D1124E554FE4F298124AB85AA9E
:1008300026A387A220E820A7DE01959620E030E0DD
:100840002817390764F44D915D91F901EE0FFF1FF0
:10085000E00FF11F55A744A72F5F3F4FF1CFFC01D9
:100860007696EE0FFF1F4BE54C9D90014D9D300D90
:100870001124E20FF31FE554FE4F11821082F9019B
:10088000E554FE4F848F958F29513E4F228F338F31
:1008900087E09CE0D10111978C9311979C9311975D
:1008A00039813C9311978C9245E0241A310824A297
:1008B00035A2892DBED36A817B818C819D8126964C
:1008C000E2E10C94811061E070E080E090E0089536
:1008D00037D1B8C3A0E0B0E0E0E7F4E00C946B10CF
:1008E000EC016A017B01A2D3C114D104E104F1043B
:1008F00009F447C020914D0330914E03C217D3072E
:1009000008F43FC020914F03309150032C173D074E
:10091000C0F197E0C90ED11CE11CF11C98EFC9226F
:10092000A601DD0C660B770BE0914703F0914803BD
:10093000A7E4B3E0309741F0EC17FD0740F5DF0185
:100940000190F081E02DF6CF93E0A734B907D1F103
:100950001296CD90DD90ED90FC9015978D010B2EA9
:10096000000C220B330B0C0D1D1D2E1D3F1D6E01A7
:100970000D2E000CEE08FF08C016D106E206F306A5
:1009800018F457D38FEF82C0309741F41EC093E024
:10099000A734B907E9F600E010E098016E010D2ECA
:1009A000000CEE08FF08C40ED51EE61EF71E4F0110
:1009B0000F2E000CAA08BB088C149D04AE04BF04C3
:1009C00020F4DFCF00E010E09801C0904903D09000
:1009D0004A03E0904B03F0904C03C40ED51EE61E74
:1009E000F71EC0924903D0924A03E0924B03F09263
:1009F0004C036E010D2E000CEE08FF08C016D10648
:100A0000E206F30691F412960D911D912D913C9101
:100A10001597400F511F621F731F12964D935D93E0
:100A20006D937C931597ED0108C0F983E8834A83A1
:100A30005B836C837D83CD93DC934A815B816C8186
:100A40007D818E010D2E000C220B330B040F151F20
:100A5000261F371F6F010F2E000CEE08FF080C1524
:100A60001D052E053F0581F4028113812481358106
:100A7000400F511F621F731F4A835B836C837D830A
:100A80002081318139832883D4D281E0CDB7DEB78C
:100A9000ECE00C94871026E0AC01249FC001259F58
:100AA000900D1124FC01EF5AFC4F428153814430D8
:100AB00051051CF5BA01052E000C880B990B249FDB
:100AC000F001259FF00D1124EF5AFC4FA281B38154
:100AD00044815581249FF001259FF00D1124EF5A88
:100AE000FC4FB383A2832A9FF0012B9FF00D1124AA
:100AF000EF5AFC4F5583448308956FEF7FEFCB018E
:100B0000089546E0469FF001479FF00D1124EF5AEB
:100B1000FC4FA281B38124813581429FF001439F24
:100B2000F00D1124EF5AFC4FB383A2834A9FF001CA
:100B30004B9FF00D1124EF5AFC4F35832483089509
:100B40006091B7017091B8018091B9019091BA019B
:100B50000895A0E0B0E0EFEAF5E00C946F106B01AF
:100B60007C0164D2C114D104E104F10449F197E09D
:100B7000C90ED11CE11CF11C98EFC9220D2C000CF0
:100B8000EE08FF08E0914703F0914803A0E0B0E0D1
:100B9000C0E0D0E027E433E0309781F04281538118
:100BA000648175814C155D056E057F0510F0D901D6
:100BB000EF019F010190F081E02DEECF209721F40D
:100BC00038D28FEF9FEF41C00A811B812C813D817C
:100BD000C016D106E206F30629F4288139812D9347
:100BE0003C9311C00C191D092E093F090A831B8370
:100BF0002C833D83AE01DD0F660B770B040F151FB1
:100C0000261F371FE8014091490350914A03609124
:100C10004B0370914C034C195D096E097F09409399
:100C2000490350934A0360934B0370934C0301D2E2
:100C3000D701C6010497A109B109AE01DD0F660B0A
:100C4000770B840F951FA61FB71FCDB7DEB7E8E05F
:100C50000C948B10CF92DF92EF92FF92CF93DF93A1
:100C60006B017C01E3D1D82F83E0C816D104E104E5
:100C7000F10420F08D2FDDD1CFEF11C029E22C9DA2
:100C8000C0012D9D900D112480539F4FFC01729641
:100C90000590F491E02D0995C82F8D2FCAD18C2F86
:100CA000DF91CF91FF90EF90DF90CF90089577D3B1
:100CB0008EE091E09F938F93A5D28AED91E0E2D5EB
:100CC000CCD210922703109228031092290310927D
:100CD0002A031092B3031092B4031092B50310923A
:100CE000B603EBEBF1E00F900F901182108216AE7D
:100CF00011AE10AE13821282E55AFF4F83E0E73245
:100D0000F80799F7CBE2D3E007E413E018821982E1
:100D10001A821B821C82D8D29E838D8327960C1741
:100D20001D07A1F78BDBD0D29093B2038093B10360
:100D300060E070E0CB018EDF61E070E080E090E089
:100D400089DF62E070E080E090E084DF19DCE09110
:100D50004703F091480380E090E0DC01309761F0B8
:100D60004281538164817581840F951FA61FB71F2F
:100D70000190F081E02DF2CFBF93AF939F938F93BB
:100D80008CE191E09F938F933DD21F921F921F920F
:100D90001F9282E391E09F938F931F928AE08F933B
:100DA0001F9280E48F931F921F9246DC2BE5269FB3
:100DB000F001279FF00D1124E554FE4F81E090E0F3
:100DC0009183808338D11F921F921F921F9288E3D4
:100DD00091E09F938F931F9284E18F9381E08F9393
:100DE0001F9282E79FE09F938F9326DCFED38DB7FF
:100DF0009EB74E960FB6F8949EBF0FBE8DBFFFCF25
:100E00001F93CF93DF93FA0134973B9708F054C0B8
:100E1000643071058105910508F04EC03BE5369FB1
:100E2000F001379FF00D1124E554FE4F0190F08141
:100E3000E02DEF2B09F440C036E0349FF001359FE0
:100E4000F00D1124EF5AFC4F42815381022E000C09
:100E5000330BC6E016E0C49FF001C59FF00D1124CE
:100E6000EF5AFC4FA081B181A217B30718F042815D
:100E70005381F0CFC481D581169FD001179FB00D4B
:100E80001124AF5ABC4F13965C934E93129715964C
:100E9000DC93CE9314972D933C931C9FD0011D9F00
:100EA000B00D1124AF5ABC4F13967C936E931297DA
:100EB0007583648381E001C08FEFDF91CF911F9133
:100EC00008954F925F926F927F928F929F92AF920E
:100ED000BF92CF92DF92EF92FF92CF93DF9300D039
:100EE00000D0CDB7DEB76B017C01CA0104970B9728
:100EF00008F088C084E0C816D104E104F10408F0C9
:100F000081C08BE58C9DF0018D9DF00D1124E55481
:100F1000FE4F80819181892B09F474C04A01052E0E
:100F2000000CAA08BB0886E0849FF001859FF00DA5
:100F30001124EF5AFC4F82819381092E000CAA0BD9
:100F4000BB0B4F5F5F4F2A01550F66087708498238
:100F50005A826B827C8266E049805A806B807C80FA
:100F600084159505A605B70569F566E06C9DF00149
:100F70006D9DF00D1124EF5AFC4F538242829582F1
:100F8000848231832083689DA001699D500D1124C6
:100F9000FA01EF5AFC4FD382C282649DF001659D35
:100FA000F00D1124EF5AFC4FD582C48284159505AB
:100FB000A605B70529F180819181821B930B91834E
:100FC00080831EC0689FF001699FF00D1124EF5AC5
:100FD000FC4F408151812417350758F0241B350BF5
:100FE000428153814C015D01CA01550FAA0BBB0B15
:100FF000B3CF2C013D0189819A81AB81BC81B5CFF2
:1010000081E001C08FEF0F900F900F900F90DF9154
:10101000CF91FF90EF90DF90CF90BF90AF909F90D7
:101020008F907F906F905F904F9008958FB7F89456
:1010300008958FBF089578940895FFCF8FEF089596
:1010400081E00895AF92BF92CF92DF92EF92FF922C
:101050001F93CF93DF936B017C01E8DF182F84E0AF
:10106000C816D104E104F10488F48BE58C9DF001ED
:101070008D9DF00D1124E554FE4F80819181892BC7
:1010800029F0C114D104E104F10421F4812FD1DF4E
:101090008FEF9DC08091270390912803A091290391
:1010A000B0912A030197A109B10980932703909376
:1010B0002803A0932903B0932A030297A105B10541
:1010C0000CF4D3D38BE58C9D50018D9DB00C112475
:1010D000F501ED5FFD4F6081718182819381A701F0
:1010E0009601B8D2C0E0D0E0FE01EA0DFB1DE45F3E
:1010F000FD4F60817181072E000C880B990B6FDA10
:101100002296C630D10581F78BE58C9DE0018D9D3F
:10111000D00D1124C554DE4F4AAD5BAD6CAD7DAD35
:10112000495F5F4F6F4F7F4F487F052E000C660B66
:10113000770B88AD99AD092E000CAA0BBB0B04965A
:10114000A11DB11D841B950BA60BB70BC3DB8881BA
:1011500099818430910581F030F48130910549F016
:10116000029729F127C08630910551F0079721F0A9
:1011700021C01982188268D1C701B601FAD21AC0FB
:10118000CA5BDF4F8881998127E0289FF001299F62
:10119000F00D1124E55DFC4F81819281A381B48122
:1011A0000196A11DB11D81839283A383B483C701DE
:1011B000B601A7DC8BE58C9DF0018D9DF00D11240F
:1011C000E554FE4F11821082812F33DF81E0DF91E1
:1011D000CF911F91FF90EF90DF90CF90BF90AF9095
:1011E0000895CF93DF93C82F21DFD82FCA3011F491
:1011F0008DE0D4D88C2FD2D88D2F1BDF81E0DF91EA
:10120000CF910895A1E5B0E0E7E0F9E06AC78E016B
:10121000065A1F4FF801E190F1908F0121E530E06F
:1012200040E050E060E070E0CE010196CAD798013E
:10123000A70160E570E0CE010196CAD78E010F5F6D
:101240001F4FF80181918F01882311F0CADFF9CF78
:1012500081E0CF5ADF4FE6E060C70F931F93CF9333
:10126000DF9384E194E0A0E8BB270196A11DB11DA6
:10127000EC0190934E0380934D032FEF38E03093B1
:10128000500320934F03E7E4F3E0918380831982B6
:101290001882092E000CAA0BBB0B4FEF58E060E040
:1012A00070E08A019B01081B190B2A0B3B0B0A8378
:1012B0001B832C833D830283138324833583DF9137
:1012C000CF911F910F910895209102013091030158
:1012D0002031310544F5C9010296909303018093B2
:1012E0000201A9014F5F5F4F66E0629FF001639FBB
:1012F000F00D1124EF5AFC4F538342838FEF9FEF81
:101300009583848391838083649FF001659FF00DB2
:101310001124EF5AFC4F93838283358324831182F7
:101320001082C90108958FEF9FEF08958F929F92C9
:10133000AF92BF92EF92FF920F931F93CF93DF93E1
:101340004B015C018A01790171DED82F83E0881698
:101350009104A104B10420F08D2F6BDECFEF13C0F8
:1013600029E2289DC001299D900D112480539F4F93
:10137000FC0174960590F491E02DA701B801099540
:10138000C82F8D2F56DE8C2FDF91CF911F910F919B
:10139000FF90EF90BF90AF909F908F900895F8943A
:1013A0003FD83ED80E94C2018ECACF939C012450E0
:1013B00031092B303105F8F4C6E0C89FF001C99F10
:1013C000F00D1124EF5AFC4F228133812430310576
:1013D00094F461DBC69FF001C79FF00D1124EF5A12
:1013E000FC4F2FEF3FEF3583248333832283462F37
:1013F000372F282F04C04FEF3FEF2FEF9FEF642FC1
:10140000732F822FCF910895643071058105910566
:10141000C8F42BE5269FF001279FF00D1124E55419
:10142000FE4F20813181232B69F022E030E03183AF
:1014300020834091B1035091B2032281E1DC04D0BA
:1014400081E008958FEF0895CF92DF92EF92FF929F
:101450008091B3039091B403A091B503B091B6030A
:10146000181619061A061B0624F481E08093B703A8
:101470006BC0C090B701D090B801E090B901F09076
:10148000BA018BE58C9DF0018D9DF00D1124E55482
:10149000FE4F80819181019729F52281338140910E
:1014A000B1035091B20386E0849FD001859FB00DB7
:1014B0001124AF5ABC4F12966D917C911397869F61
:1014C000D001879FB00D1124AF5ABC4F8D919C91D4
:1014D00082179307C8F182E090E091838083C7016F
:1014E000B6018EDC8091B1039091B2035EDF609310
:1014F000B7017093B8018093B9019093BA012BE5BD
:10150000269FD001279FB00D1124FD01E554FE4F09
:1015100041E050E05183408341E050E060E070E002
:101520004093AB015093AC016093AD017093AE0159
:10153000BD0161547E4F2C9DC0012D9D900D112445
:1015400081549E4F0E946A01FF90EF90DF90CF90F0
:101550000895613071058105910531F062307105A2
:1015600081059105F1F03FC08091B3039091B403E0
:10157000A091B503B091B603AC01BD014F5F5F4FC1
:101580006F4F7F4F4093B3035093B4036093B50301
:101590007093B603892B8A2B8B2B19F51092B70306
:1015A00020C08091B3039091B403A091B503B09192
:1015B000B603181619061A061B06ACF40197A10902
:1015C000B1098093B3039093B403A093B503B09390
:1015D000B603892B8A2B8B2B21F48091B7038111C1
:1015E00033DF81E008958FEF0895CF92DF92EF927D
:1015F000FF921F93CF93DF936B017C0117DD182FB0
:1016000084E0C816D104E104F10470F48BE58C9DEC
:10161000F0018D9DF00D1124E554FE4F80819181E4
:10162000009711F0059729F0812F03DD8FEF9FEFD1
:1016300009C0D281C381C701B601E6DE812FF9DC82
:101640008D2F9C2FDF91CF911F91FF90EF90DF9016
:10165000CF9008958F929F92AF92BF92CF92DF92D8
:10166000EF92FF92CF934B015C0169017A01DEDCBE
:10167000C82F84E088169104A104B10490F48BE58E
:10168000889DF001899DF00D1124E554FE4F808165
:101690009181009731F0DF01A05BBF4F2C91222395
:1016A00021F08C2FC6DC8FEF16C0E45BFF4FC082A9
:1016B000D182E282F38221E02C938330910529F0DC
:1016C000079731F4C501B40154D0C501B4019CDEC3
:1016D0008C2FAFDC81E0CF91FF90EF90DF90CF9027
:1016E000BF90AF909F908F900895CF92DF92EF922E
:1016F000FF92CF93DF9397FD33C06B017C01672B83
:10170000682B692B11F4B5D029C090DCD82F4091FB
:10171000A9015091AA016091B7017091B80180911F
:10172000B9019091BA019601CCDBC82F8F3F19F413
:101730008D2F7FDC16C08091B7019091B8012BE509
:10174000289FF001299FF00D1124E554FE4F84E0FD
:1017500090E09183808378DE8D2F6BDCC1E001C047
:10176000CFEF8C2FDF91CF91FF90EF90DF90CF9054
:101770000895CF92DF92EF92FF92CF936B017C019D
:1017800055DCC82F84E0C816D104E104F10488F4C4
:101790008BE58C9DF0018D9DF00D1124E554FE4FDD
:1017A00080819181009729F08430910531F007976D
:1017B00021F08C2F3EDC8FEF24C026E02C9DD00141
:1017C0002D9DB00D1124AF5ABC4F12968D919C9156
:1017D0001397843091057CF4289FF001299FF00D28
:1017E0001124EF5AFC4F208131818D919C91820F01
:1017F000931F91838083C701B60183D98C2F19DC95
:1018000081E0CF91FF90EF90DF90CF90089598D92D
:1018100019CCCF9361E070E080E090E09ADEC6E002
:101820008091A9019091AA01C89FF001C99FF00D74
:101830001124EF5AFC4F228133812430310574F496
:10184000C29FF001C39FF00D1124EF5AFC4F20817D
:101850003181232B19F4A9DDD7DDE2CF62E070E0FE
:1018600080E090E076DECF91089583EB91E00AD09E
:10187000E4CBCF93DBDBC82FE7DD8C2FDADB81E015
:10188000CF9108950895CF93DF93C82FD62FCEDB45
:10189000EC2FF0E0E854FC4FD083CBDBDF91CF910D
:1018A0000895CF93DF93C82FD0E0C854DC4FBEDB40
:1018B000988119163CF0BDDB61E070E080E090E0BB
:1018C00014DFF5CF91509883B4DBDF91CF91089569
:1018D000CF93C82FABDBEC2FF0E0E854FC4F9081A6
:1018E0009F5F9083A6DBCF9108950F931F9300E035
:1018F00010E09801041715072607370764F4DC0188
:10190000ED91CD010F5F1F4F2F4F3F4FE111F2CFF0
:10191000B801C90104C06FEF7FEF8FEF9FEF1F91F8
:101920000F910895A6E0B0E0E7E9FCE0CEC3182FE0
:101930009C831B0169017A0179DB082F40E150E0AB
:1019400060E070E0812F9C81D0DF4B015C0141E0C1
:1019500050E060E070E0C101C8DF2B013C012FEFD7
:1019600082169206A206B20649F16F3F7F4F8F4F53
:101970009F4F21F153E0C516D104E104F104F0F4C6
:101980008091BC039091BD03A091BE03B091BF03B1
:1019900084309105A105B1058CF419831C811A834B
:1019A00025E1289FA001299F500D11245E834D83BE
:1019B00020E030E040E050E0BA0104C0802F39DB85
:1019C0008FEF42C0481559056A057B059CF4E981F3
:1019D000FA811191FA83E983ED81FE81E20FF31F11
:1019E000E054FC4F10834F5F5F4F6F4F7F4F2F5F6F
:1019F0003F4FE8CF14141504160417045CF4F101EA
:101A0000208135E1389FF001399FF00D1124E05419
:101A1000FC4F208B25E1289FF001299FF00D112418
:101A2000E054FC4FC18AD28AE38AF48A0196A11D50
:101A3000B11D8093BC039093BD03A093BE03B093EC
:101A4000BF03802FF6DA81E02696E2E15AC3A0E2D6
:101A5000B0E0ECE2FDE03DC386E0EDE3F1E0DE0165
:101A60005B9601900D928A95E1F71092BC0310925B
:101A7000BD031092BE031092BF038BE491E002DF1E
:101A800080EDA82E80E0B82E88E090E09C01205DDB
:101A900030404901DE015B968E010F5F1F4FC12C64
:101AA000D12C760138018D91F8018193882339F08A
:101AB0003FEFC31AD30AE30AF30A8F01F4CFB4014C
:101AC0006A0D7B1D60537F4F4AE050E0CE01419686
:101AD00069D3FE017196BFEFCB1ADB0AEB0AFB0A52
:101AE00020E1C216D104E104F10464F481919FEB7A
:101AF000980F9A3108F4805ED8018D938D01811181
:101B0000EACF09C030E1C316D104E104F10419F0B1
:101B100081E791E00DC0F5012591359145915591F1
:101B200061E371E0C301FEDE8F3F19F486E991E0C5
:101B3000A9DEF9E2AF0EB11C2BE4A21621E0B20639
:101B400009F0A8CF2FEF3FEFA90161E371E08DE32A
:101B500091E0E8DE81E0A096EEE0D7C24F925F927E
:101B60006F927F928F929F92AF92BF92DF92EF928D
:101B7000FF920F931F93CF93DF9300D000D01F925B
:101B8000CDB7DEB7E090BC03F090BD030091BE037B
:101B90001091BF03E982FA820B831C8320EC33E0AF
:101BA000812C912C5401E980FA800B811C818E14C8
:101BB0009F04A006B106ACF47C01F901412C512C24
:101BC0003201D70141914423C1F00FEFE01AF00A2E
:101BD0005C9145130AC01FEF411A510A610A710A4C
:101BE000F0CF6FEF7FEFCB0165C00FEF801A900A47
:101BF000A00AB00A2B5E3F4FD6CF7D83D62E40E1A0
:101C000050E060E070E071DE698385E1889D8001CD
:101C1000899D100D112400531C4F40E150E060E0FD
:101C200070E0C80162DEA9812A2FAA0F330B440B92
:101C3000550B24193509460957092B013C01B1E020
:101C40004B1A510861087108420E531E641E751E1E
:101C5000E1E14E165104610471041CF62B013C01B4
:101C6000D801ED2DFD8181E0481A51086108710805
:101C700014141504160417041CF48D918193F3CFEA
:101C800012161306140615064CF4D7018D917D012A
:101C900081932150310941095109F2CF85E1889D95
:101CA000F001899DF00D1124E054FC4F6189728987
:101CB000838994890F900F900F900F900F90DF9170
:101CC000CF911F910F91FF90EF90DF90BF90AF9059
:101CD0009F908F907F906F905F904F900895CF92DC
:101CE000DF92EF92FF92FB01C12CD12C7601C2163C
:101CF000D306E406F50664F46191DC016D93CD0131
:101D0000662341F0BFEFCB1ADB0AEB0AFB0AEFCFE9
:101D10008FEF01C081E0FF90EF90DF90CF900895AA
:101D2000A0E1B0E0E5E9FEE0D6C18B0149015A012E
:101D300020E130E040E050E0BC01CE010196CFDF71
:101D40008F3FF1F0C12CD12C76010DC020E130E0A5
:101D500040E050E0B801CE010196C1DF8FEFC81A14
:101D6000D80AE80AF80A8091BC039091BD03A091BB
:101D7000BE03B091BF03C816D906EA06FB0614F0ED
:101D80008FEF0AC0B801CE010196E8DE681579052B
:101D90008A059B05D9F2862F6096ECE0B8C1A0E1D8
:101DA000B0E0E4EDFEE09FC1FC01CB018A0125918A
:101DB000359145915591BE016F5F7F4FB1DF682F1F
:101DC000880F770B880B990B6F3F2FEF72078207F5
:101DD000920731F09801AE014F5F5F4FA7DA01C063
:101DE0008FEF6096E4E09BC1E0910401F091050162
:101DF00080E4848384E882830895E0910401F09173
:101E000005019481907F892B848382818064828301
:101E1000828186FDFDCF8081218190E0922B089503
:101E20008091760190917701892B31F08091780132
:101E300090917901892B99F4E0910801F0910901C1
:101E400080818F7D8083109279011092780180E0EB
:101E500028DD81E090E090937901809378010895E6
:101E6000E0910A01F0910B0180E28083E09108018A
:101E7000F091090181E08083C4EFD1E0D1DFE091EE
:101E80000601F09107018081E0910801F0910901BC
:101E900085FD03C08081806202C080818F7D808348
:101EA0008091740190917501892B29F464EF71E0A0
:101EB00080E090E015C080917401909175010A97BF
:101EC00029F46EE170E080E090E00AC06091740156
:101ED00070917501CE01CAD0072E000C880B990BAA
:101EE00004DCCCCF8ED080DF60E080E0CCDC60E032
:101EF00080E0C9DC1F921F9283E491E09F938F934F
:101F00001F92DEE1DF93C1E0CF931F9288EE9FE046
:101F10009F938F930E941C0368DB1F921F9288E49B
:101F200091E09F938F931F92DF93CF931F9280E353
:101F30009FE09F938F930E941C0357DB8DB79EB742
:101F400044960FB6F8949EBF0FBE8DBF01E010E01F
:101F500085D0892BE9F36AD0C82F082E000C990B85
:101F60005CD0CE3661F48CE491E069D010937701B7
:101F70000093760180E0ACDC80E0AADCE9CFC236D9
:101F800039F78091760190917701892B19F08FE5CF
:101F900091E055D01092770110927601D9CF8091BF
:101FA000760190917701892B31F080917A0190919F
:101FB0007B01892B61F410927B0110927A0180E001
:101FC00070DC81E090E090937B0180937A0108952A
:101FD000E0910A01F0910B0180E28083E091080119
:101FE000F091090181E08083C6E6D0E0D8DF80E08F
:101FF00090E003DFBE013AD07093750160937401E5
:10200000F5CFE0910C01F0910D01158287E68483F4
:1020100086E0828388E181830895E0910C01F0914C
:102020000D01908195FFFDCF86830895E0910C010D
:10203000F0910D01808187FFFDCF86810895CF93B8
:10204000DF93EC018991882311F0E7DFFBCF8DE06E
:10205000E4DF8AE0E2DFDF91CF910895E0910C01A7
:10206000F0910D018081807890E0089597FB072E14
:1020700016F4009406D077FD08D05ED007FC05D09A
:102080003EF4909581959F4F0895709561957F4F8F
:102090000895052E97FB16F400940FD057FD05D038
:1020A0005FD007FC02D046F408C0509540953095AB
:1020B00021953F4F4F4F5F4F0895909580957095B4
:1020C00061957F4F8F4F9F4F08952F923F924F9270
:1020D0005F926F927F928F929F92AF92BF92CF92B8
:1020E000DF92EF92FF920F931F93CF93DF93CDB7C1
:1020F000DEB7CA1BDB0B0FB6F894DEBF0FBECDBF39
:1021000009942A88398848885F846E847D848C8409
:102110009B84AA84B984C884DF80EE80FD800C8112
:102120001B81AA81B981CE0FD11D0FB6F894DEBFF5
:102130000FBECDBFED010895AA1BBB1B51E107C027
:10214000AA1FBB1FA617B70710F0A61BB70B881F47
:10215000991F5A95A9F780959095BC01CD010895D6
:10216000A1E21A2EAA1BBB1BFD010DC0AA1FBB1F9B
:10217000EE1FFF1FA217B307E407F50720F0A21B0D
:10218000B30BE40BF50B661F771F881F991F1A947A
:1021900069F760957095809590959B01AC01BD01A4
:1021A000CF010895FB01DC014150504048F00590FB
:1021B0000D920020C9F701C01D9241505040E0F738
:1021C0000895DC0101C06D9341505040E0F708953F
:1021D000AEE0B0E0EDEEF0E186CF8C01FA0186E0F2
:1021E0008C831A83098377FF02C060E070E8CB011B
:1021F00001979E838D83A901BF01CE01019611D065
:102200004D815E8157FD0AC02F81388542175307E3
:102210000CF49A01F801E20FF31F10822E96E4E00D
:102220007ECFABE0B0E0E6E1F1E14FCF6C017B01A6
:102230008A01FC0117821682838181FFBFC1CE0112
:1022400001963C01F6019381F70193FD859193FF7F
:1022500081917F01882309F4ADC1853239F493FD62
:10226000859193FF81917F01853221F4B60190E041
:10227000C0D1E8CF912C212C312CFFE1F315D8F0FF
:102280008B3279F038F4803279F08332A1F4232D47
:1022900020611DC08D3261F0803369F4232D2160EF
:1022A00016C0832D8260382EE32DE4603E2E2AC0B6
:1022B000F32DF8601DC037FC2DC020ED280F2A300B
:1022C00040F08E32B9F436FC75C1232D2064322ED5
:1022D00019C036FE06C08AE0989E200D1124922E69
:1022E00011C0EAE02E9E200D1124222EF32DF06263
:1022F0003F2E08C08C3621F4832D8068382E02C012
:10230000883641F4F70193FD859193FF81917F0118
:102310008111B3CF982F9F7D9554933028F40C5F93
:102320001F4F9FE399830DC0833631F0833771F0DF
:10233000833509F055C020C0F801808189830E5F84
:102340001F4F88248394912C530112C02801F2E07E
:102350004F0E511CF801A080B18036FE03C0692DDC
:1023600070E002C06FEF7FEFC50138D14C018201F0
:10237000F32DFF773F2E15C0280122E0420E511C9D
:10238000F801A080B18036FE03C0692D70E002C064
:102390006FEF7FEFC50117D14C01F32DF0683F2E91
:1023A000820133FC19C0822D90E088169906A0F4B2
:1023B000B60180E290E01DD12A94F5CFF50137FCFB
:1023C000859137FE81915F01B60190E012D1211015
:1023D0002A9421E0821A91088114910479F7E1C0CE
:1023E000843611F0893639F5F80137FE07C060816F
:1023F0007181828193810C5F1F4F08C06081718160
:10240000072E000C880B990B0E5F1F4FF32DFF76E4
:102410003F2E97FF09C090958095709561957F4FED
:102420008F4F9F4FF0683F2E2AE030E0A3011DD16F
:10243000882E861844C0853731F4232D2F7EB22E86
:102440002AE030E025C0932D997FB92E8F36C1F058
:1024500018F4883579F0AEC0803719F0883721F04C
:10246000A9C0E92FE061BE2EB4FE0DC0FB2DF460C3
:10247000BF2E09C034FE0AC0292F2660B22E06C026
:1024800028E030E005C020E130E002C020E132E089
:10249000F801B7FE07C060817181828193810C5F72
:1024A0001F4F06C06081718180E090E00E5F1F4F7A
:1024B000A301DBD0882E8618FB2DFF773F2E36FE3A
:1024C0000DC0232D2E7FA22E891458F434FE0BC08C
:1024D00032FC09C0832D8E7EA82E05C0B82CA32CFB
:1024E00003C0B82C01C0B92CA4FE0FC0FE01E80D3A
:1024F000F11D8081803321F49A2D997EA92E09C087
:10250000A2FE06C0B394B39404C08A2D867809F065
:10251000B394A3FC10C0A0FE06C0B21480F4280C33
:10252000922C9B180DC0B21458F4B60180E290E0D2
:1025300060D0B394F8CFB21418F42B1802C0982CC2
:10254000212CA4FE0FC0B60180E390E052D0A2FE81
:1025500016C0A1FC03C088E790E002C088E590E0C7
:10256000B6010CC08A2D867851F0A1FE02C08BE224
:1025700001C080E2A7FC8DE2B60190E03AD0891458
:1025800030F4B60180E390E034D09A94F8CF8A9486
:10259000F301E80DF11D8081B60190E02AD0811091
:1025A000F6CF222009F44ECEB60180E290E021D091
:1025B0002A94F7CFF6018681978102C08FEF9FEFB3
:1025C0002B96E2E19ECDFC01059061507040011018
:1025D000D8F7809590958E0F9F1F0895FC0161504C
:1025E000704001900110D8F7809590958E0F9F1F35
:1025F00008950F931F93CF93DF93FB01238121FD58
:1026000003C08FEF9FEF2CC022FF16C04681578179
:10261000248135814217530744F4A081B1819D0183
:102620002F5F3F4F318320838C93268137812F5F2B
:102630003F4F3783268314C08B01EC01FB010084DC
:10264000F185E02D0995892BE1F6D80116968D913B
:102650009C911797019617969C938E931697CE018F
:10266000DF91CF911F910F910895FA01AA27283089
:1026700051F1203181F1E8946F936E7F6E5F7F4F4F
:102680008F4F9F4FAF4FB1E03ED0B4E03CD0670FCB
:10269000781F891F9A1FA11D680F791F8A1F911D1E
:1026A000A11D6A0F711D811D911DA11D20D009F46E
:1026B00068943F912AE0269F11243019305D3193B0
:1026C000DEF6CF010895462F4770405D4193B3E099
:1026D0000FD0C9F7F6CF462F4F70405D4A3318F040
:1026E000495D31FD4052419302D0A9F7EACFB4E0F1
:1026F000A6959795879577956795BA95C9F70097A9
:102700006105710508959B01AC010A2E0694579549
:10271000479537952795BA95C9F7620F731F841FA0
:06272000951FA01D0895A5
:10272600C00004007800230025002400C000201B00
:102736005B306D1B5B324A1B5B3B48000A46726589
:10274600654D454D3A256420286279746573290ADA
:102756000A006E756C6C70006D61696E002F6465A1
:10276600762F006D6F7472006C6564000D4D4F54CA
:102776004F5220454E43454E4449444F0D0A000DE5
:102786004D4F544F52204150414741444F0D0A008E
:00000001FF
