:100000004AC1000066C1000064C1000062C1000076
:1000100060C100005EC100005CC100005AC1000068
:1000200058C1000056C1000054C100000C94770F65
:1000300050C100004EC100000BC200004AC10000C8
:1000400048C1000046C10000B2C1000042C100002A
:1000500040C100003EC100003CC100003AC10000A8
:1000600038C1000036C100000C944B010C946901AA
:100070000C9469010C9469010C9469010C94690158
:100080000C9469010C9469010C9469010C94690148
:100090000C9469010C94770F0C9469010C9469011C
:1000A0000C9428020C9469010C9469010C94690168
:1000B0000C94D7010C9469010C9469010C946901AA
:1000C0000C9469010C9469010C9469010C94690108
:1000D0000000000000000000434F4E534F4C45000D
:1000E00000005B075B075B075B075B0759075B0764
:1000F0005B075907000059070001000000010000DC
:10010000004E554C4C4445560000005B075B075BB6
:10011000075B075B0759075B075B07590700005937
:10012000070002000000000000004E414D45535002
:1001300041434500E40B8C0D5907590759075907EE
:1001400059075907590700005907006E616D696E1C
:100150006974202864657669636573293A0D0A001D
:100160004552524F522047455453544B2025730A51
:10017000006E616D6573706163653A2064657669D0
:100180006365206E616D6520257320746F6F206C30
:100190006F6E670D0A006E616D6573706163653A1D
:1001A0002063616E6E6F74206D6F756E74202564B0
:1001B0000D0A000A0A416C6C20757365722070721A
:1001C0006F636573736573206861766520636F6D17
:1001D000706C657465642E0A0A000A57656C636F5B
:1001E0006D6520746F2058696E75210A0A0D0958D3
:1001F000696E75204F5320436F7079726967687418
:100200002028632920323031322C20323031350A17
:100210000D09446F75676C617320452E20436F6D27
:10022000657220616E64204352432050726573737F
:100230002C20496E632E0A0A0D0958696E75204FED
:100240005320666F72204156522061746D6567615C
:10025000333238702076302E312028632920323016
:1002600032300A0D0952616661656C2049676E6122
:1002700063696F205A7572697461203C72616661AE
:100280004066692E756E636F6D612E6564752E61B3
:10029000723E0A0A0D0011241FBECFEFD8E0DEBF68
:1002A000CDBF11E0A0E0B1E0E2E9F6E202C00590C6
:1002B0000D92AC37B107D9F724E0ACE7B1E001C04B
:1002C0001D92AE3FB207E1F70C9456060E94CD0D89
:1002D000FEC296CEFF93EF93FC0100820FB6F89416
:1002E00004A21182228233824482558266827782FE
:1002F00080869186A286B386C486D586E686F786F2
:10030000008B118B228B338B448B558B668B778BB9
:10031000808F918FA28FB38FC48FD58F0F90068E51
:100320000F90078E0DB600A20EB601A2FB0100A031
:100330000DBE01A00EBE078C0F92068C0F92D58DBC
:10034000C48DB38DA28D918D808D778966895589F5
:1003500044893389228911890089F784E684D58408
:10036000C484B384A284918480847780668055801D
:10037000448033802280118004A00FBE0080EF9162
:10038000FF910895E0910001F0910101158287E647
:10039000848386E0828388E181830895E09100016F
:1003A000F0910101908195FFFDCF868308951F9202
:1003B0000F920FB60F9211248F938091C6008093F5
:1003C00092018F910F900FBE0F901F901895A4E08F
:1003D000B0E0EDEEF1E00C94291019821A821B8234
:1003E0001C8219821A821B821C8209811A812B812C
:1003F0003C81061717072807390770F400000981A8
:100400001A812B813C810F5F1F4F2F4F3F4F098374
:100410001A832B833C83E9CF2496E4E00C944510A7
:1004200080E284B92D9A60E47DE083E090E0CFDF44
:100430002D9860E47DE083E090E0C9CF1092BB018D
:100440001092BC011092BD011092BE0181E008958E
:100450001F920F920FB60F9211242F933F934F9339
:100460005F936F937F938F939F93AF93BF93EF931C
:10047000FF938091C5019091C601A091C701B091F1
:10048000C8010196A11DB11D8093C5019093C601BD
:10049000A093C701B093C801883E9340A105B10560
:1004A000D8F08091C9019091CA01A091CB01B0917F
:1004B000CC010196A11DB11D8093C9019093CA0181
:1004C000A093CB01B093CC011092C5011092C6014C
:1004D0001092C7011092C8018091BF019091C00194
:1004E00026E0289FF001299FF00D1124E45AFB4FCC
:1004F000828193818730910584F4289FF001299FA0
:10050000F00D1124E45AFB4F808191810197918372
:100510008083892B11F40E94010B8091C10190917D
:10052000C201A091C301B091C4010197A109B10911
:1005300049F08093C1019093C201A093C301B0938D
:10054000C4010DC081E090E0A0E0B0E08093C10163
:100550009093C201A093C301B093C401B1D6FF919F
:10056000EF91BF91AF919F918F917F916F915F912B
:100570004F913F912F910F900FBE0F901F901895A4
:10058000E0D59093C0018093BF0181E090E0A0E0AE
:10059000B0E08093C1019093C201A093C301B093D6
:1005A000C4011092C9011092CA011092CB0110929D
:1005B000CC011092C5011092C6011092C701109291
:1005C000C80185B5836085BD84B5826084BD89EF2F
:1005D00087BDEEE6F0E08081826080830895CF924F
:1005E000DF92EF92FF92CF93DF936B017C0159D49E
:1005F000D82F83E0C816D104E104F10420F08D2F38
:1006000053D4CFEF11C029E22C9DC0012D9D900D38
:10061000112480539F4FFC0176960590F491E02DB4
:100620000995C82F8D2F40D48C2FDF91CF91FF904B
:10063000EF90DF90CF900895A6E0B0E0E2E2F3E023
:100640000C941B102B8D29838C8CED8CFE8C09A1B6
:100650003AA13E8326D4982E40E4E416F1041CF41B
:1006600070E4E72EF12C83E0E80EF11C9CEFE92208
:1006700027010F2C000C66087708C301B20168D26D
:100680001C01019671F480E691E0EBD7892D0CD422
:10069000FFEFFA832FEF2B833FEF3C834FEF4D8328
:1006A00009C130917C0120917D0180917E01909162
:1006B0007F01A12CB12C1BE5632F722F27E030E0C6
:1006C00040E050E00E94FF0F6B017C016A83DB82F7
:1006D000EC82FD82169FF001179FF00D1124EF525E
:1006E000FE4F80819181B701A6014F5F5F4F6F4F31
:1006F0007F4F892B79F440937C0150937D01609367
:100700007E0170937F018FEFC816D806E806F806C1
:10071000A1F4B9CF342F252FCB01EFEFAE1ABE0ACB
:10072000F7E0AF16B10441F640937C0150937D0190
:1007300060937E0190937F01A6CF2F8D38A1121672
:1007400013060CF0A0CF80914E0490914F04A0911D
:100750005004B09151040196A11DB11D80934E0427
:1007600090934F04A0935004B093510485E090E01F
:10077000918380833383228331AE20AE42AE53AE69
:1007800064AE75AEDF01AB5BBF4F1C92A02FBE8184
:100790008F0180E090E02D91F801E80FF91F26AF5E
:1007A000222321F0019687309105A9F72BE52C9D96
:1007B000C0012D9D900D1124FC01EF52FE4F5F01F1
:1007C000EA5BFF4F8FEF9FEF91838083B8D1F501F4
:1007D000E85BFF4F60837183828393833896108236
:1007E00031961182108232961182108232961182D5
:1007F00010828AEAF10180838BA19CA1F50193A765
:1008000082A720E030E0F801E20FF31F14822F5F8F
:100810003F4F26323105B9F72BE52C9DF0012D9D78
:10082000F00D1124EF52FE4F298124AB85AA26A397
:1008300087A220E820A7DE01959620E030E0281767
:10084000390764F44D915D91F901EE0FFF1FE00F40
:10085000F11F55A744A72F5F3F4FF1CFFC017696BC
:10086000EE0FFF1F4BE54C9D90014D9D300D112467
:10087000E20FF31FEF52FE4F11821082F901EF5287
:10088000FE4F848F958F23503E4F228F338F8FEFF3
:100890009AE0D10111978C9311979C93119739810C
:1008A0003C9311978C9245E0241A310824A235A27A
:1008B000892DFAD26A817B818C819D812696E2E125
:1008C0000C94371061E070E080E090E0089537D13B
:1008D000F4C2A0E0B0E0EFE6F4E00C942110EC01EB
:1008E0006A017B01DED2C114D104E104F10409F4F0
:1008F00047C02091580430915904C217D30708F417
:100900003FC020915A0430915B042C173D07C0F181
:1009100097E0C90ED11CE11CF11C98EFC922A60179
:10092000DD0C660B770BE0915204F0915304A2E5C5
:10093000B4E0309741F0EC17FD0740F5DF0101907E
:10094000F081E02DF6CF94E0A235B907D1F11296EF
:10095000CD90DD90ED90FC9015978D010B2E000C45
:10096000220B330B0C0D1D1D2E1D3F1D6E010D2E78
:10097000000CEE08FF08C016D106E206F30618F4D4
:1009800093D28FEF82C0309741F41EC094E0A2351D
:10099000B907E9F600E010E098016E010D2E000C99
:1009A000EE08FF08C40ED51EE61EF71E4F010F2EDF
:1009B000000CAA08BB088C149D04AE04BF0420F4EC
:1009C000DFCF00E010E09801C0905404D0905504AF
:1009D000E0905604F0905704C40ED51EE61EF71E94
:1009E000C0925404D0925504E0925604F0925704F9
:1009F0006E010D2E000CEE08FF08C016D106E206AF
:100A0000F30691F412960D911D912D913C9115973D
:100A1000400F511F621F731F12964D935D936D938C
:100A20007C931597ED0108C0F983E8834A835B83C3
:100A30006C837D83CD93DC934A815B816C817D8166
:100A40008E010D2E000C220B330B040F151F261FD9
:100A5000371F6F010F2E000CEE08FF080C151D0547
:100A60002E053F0581F40281138124813581400FD9
:100A7000511F621F731F4A835B836C837D832081B8
:100A800031813983288310D281E0CDB7DEB7ECE025
:100A90000C943D1026E0AC01249FC001259F900DD1
:100AA0001124FC01E45AFB4F428153814730510528
:100AB0001CF5BA01052E000C880B990B249FF00140
:100AC000259FF00D1124E45AFB4FA281B38144818C
:100AD0005581249FF001259FF00D1124E45AFB4F0E
:100AE000B383A2832A9FF0012B9FF00D1124E45AB7
:100AF000FB4F5583448308956FEF7FEFCB0108953B
:100B000046E0469FF001479FF00D1124E45AFB4F49
:100B1000A281B38124813581429FF001439FF00D72
:100B20001124E45AFB4FB383A2834A9FF0014B9FE9
:100B3000F00D1124E45AFB4F35832483089560910E
:100B4000CD017091CE018091CF019091D001089597
:100B5000A0E0B0E0EEEAF5E00C9425106B017C011A
:100B6000A0D1C114D104E104F10449F197E0C90E08
:100B7000D11CE11CF11C98EFC9220D2C000CEE08D1
:100B8000FF08E0915204F0915304A0E0B0E0C0E00F
:100B9000D0E022E534E0309781F0428153816481D6
:100BA00075814C155D056E057F0510F0D901EF01CB
:100BB0009F010190F081E02DEECF209721F474D1B8
:100BC0008FEF9FEF41C00A811B812C813D81C016B0
:100BD000D106E206F30629F4288139812D933C934E
:100BE00011C00C191D092E093F090A831B832C8390
:100BF0003D83AE01DD0F660B770B040F151F261F1B
:100C0000371FE801409154045091550460915604F7
:100C1000709157044C195D096E097F094093540483
:100C20005093550460935604709357043DD1D701F7
:100C3000C6010497A109B109AE01DD0F660B770B60
:100C4000840F951FA61FB71FCDB7DEB7E8E00C9441
:100C50004110CF92DF92EF92FF92CF93DF936B011F
:100C60007C011FD1D82F83E0C816D104E104F10420
:100C700020F08D2F19D1CFEF11C029E22C9DC0019A
:100C80002D9D900D112480539F4FFC01729605906D
:100C9000F491E02D0995C82F8D2F06D18C2FDF916F
:100CA000CF91FF90EF90DF90CF900895B5D286E17D
:100CB00091E09F938F93E1D18AED91E0D2D40AD253
:100CC00010924E0410924F0410925004109251044E
:100CD0001092A0041092A1041092A2041092A304F6
:100CE000E1EDF1E08EE494E00F900F90118210821C
:100CF00016AE11AE10AE13821282E55AFF4F8E1758
:100D00009F07A1F79BDB1DD290939F0480939E04C5
:100D100060E070E0CB019DDF61E070E080E090E09A
:100D200098DF62E070E080E090E093DF29DCE09102
:100D30005204F091530480E090E0DC01309761F0C0
:100D40004281538164817581840F951FA61FB71F4F
:100D50000190F081E02DF2CFBF93AF939F938F93DB
:100D600084E291E09F938F9388D11F921F921F92EC
:100D70001F928AE391E09F938F931F928AE08F9353
:100D80001F9280E48F931F921F9256DC2BE5269FC3
:100D9000F001279FF00D1124EF52FE4F81E090E00B
:100DA0009183808383D01F921F921F921F9280E4B1
:100DB00091E09F938F931F928EE18F9382E08F93A8
:100DC0001F928DEC9DE09F938F9336DC4AD38DB7B5
:100DD0009EB74E960FB6F8949EBF0FBE8DBFFFCF45
:100DE0001F93CF93DF93FA013797339708F054C0DE
:100DF000673071058105910508F04EC03BE5369FCF
:100E0000F001379FF00D1124EF52FE4F0190F08159
:100E1000E02DEF2B09F440C036E0349FF001359F00
:100E2000F00D1124E45AFB4F42815381022E000C35
:100E3000330BC6E016E0C49FF001C59FF00D1124EE
:100E4000E45AFB4FA081B181A217B30718F0428189
:100E50005381F0CFC481D581169FD001179FB00D6B
:100E60001124A45ABB4F13965C934E931297159678
:100E7000DC93CE9314972D933C931C9FD0011D9F20
:100E8000B00D1124A45ABB4F13967C936E93129706
:100E90007583648381E001C08FEFDF91CF911F9153
:100EA00008958FB7F89408958FBF089578940895A2
:100EB000FFCF8FEF089581E00895AF92BF92CF9258
:100EC000DF92EF92FF921F93CF93DF936B017C0130
:100ED000E8DF182F87E0C816D104E104F10488F494
:100EE0008BE58C9DF0018D9DF00D1124EF52FE4F8E
:100EF00080819181892B29F0C114D104E104F1048E
:100F000021F4812FD1DF8FEF9DC080914E0490910D
:100F10004F04A0915004B09151040197A109B10967
:100F200080934E0490934F04A0935004B0935104C7
:100F30000297A105B1050CF490D38BE58C9D50016F
:100F40008D9DB00C1124F501E75EFD4F608171812C
:100F500082819381A7019601B9D2C0E0D0E0FE0161
:100F6000EA0DFB1DEE5DFD4F60817181072E000CC7
:100F7000880B990B34DB2296C630D10581F78BE5BF
:100F80008C9DE0018D9DD00D1124CF52DE4F4AADD6
:100F90005BAD6CAD7DAD495F5F4F6F4F7F4F487F5D
:100FA000052E000C660B770B88AD99AD092E000C51
:100FB000AA0BBB0B0496A11DB11D841B950BA60BA0
:100FC000B70B87DC888199818430910581F030F4FA
:100FD0008130910549F0029729F127C086309105AB
:100FE00051F0079721F021C01982188269D1C701F9
:100FF000B601B7D21AC0CA5BDF4F8881998127E05A
:10100000289FF001299FF00D1124EE5AFB4F81819A
:101010009281A381B4810196A11DB11D8183928328
:10102000A383B483C701B6016BDD8BE58C9DF00112
:101030008D9DF00D1124EF52FE4F11821082812FF1
:1010400033DF81E0DF91CF911F91FF90EF90DF9030
:10105000CF90BF90AF900895CF93DF93C82F21DF3B
:10106000D82FCA3011F48DE099D98C2F97D98D2FB4
:101070001BDF81E0DF91CF910895A1E5B0E0E2E4CC
:10108000F8E0E5C78E01065A1F4FF801E190F19094
:101090008F0121E530E040E050E060E070E0CE01FB
:1010A00001960E9497109801A70160E570E0CE01BB
:1010B00001960E949E108E010F5F1F4FF8018191D3
:1010C0008F01882311F0C8DFF9CF81E0CF5ADF4FBD
:1010D000E6E0D9C70F931F93CF93DF938EEF94E091
:1010E000A0E8BB270196A11DB11DEC019093590406
:1010F000809358042FEE38E030935B0420935A0419
:10110000E2E5F4E09183808319821882092E000CB5
:10111000AA0BBB0B4FEE58E060E070E08A019B0128
:10112000081B190B2A0B3B0B0A831B832C833D8363
:101130000283138324833583DF91CF911F910F9115
:10114000089520910201309103012B30310544F5BF
:10115000C90102969093030180930201A9014F5F98
:101160005F4F66E0629FF001639FF00D1124E45A27
:10117000FB4F538342838FEF9FEF9583848391834B
:101180008083649FF001659FF00D1124E45AFB4FAA
:10119000938382833583248311821082C901089549
:1011A0008FEF9FEF08958F929F92AF92BF92EF9231
:1011B000FF920F931F93CF93DF934B015C018A0142
:1011C00079016FDED82F83E088169104A104B10461
:1011D00020F08D2F69DECFEF13C029E2289DC001DA
:1011E000299D900D112480539F4FFC01749605900A
:1011F000F491E02DA701B8010995C82F8D2F54DE79
:101200008C2FDF91CF911F910F91FF90EF90BF90A6
:10121000AF909F908F900895F89402D901D9B2D8D9
:1012200051CBCF939C012750310923303105F8F47D
:10123000C6E0C89FF001C99FF00D1124E45AFB4F8E
:10124000228133812730310594F424DCC69FF001DC
:10125000C79FF00D1124E45AFB4F2FEF3FEF35836A
:10126000248333832283462F372F282F04C04FEF48
:101270003FEF2FEF9FEF642F732F822FCF910895B1
:101280006730710581059105C8F42BE5269FF001B3
:10129000279FF00D1124EF52FE4F20813181232B27
:1012A00069F022E030E03183208340919E04509128
:1012B0009F04228195DD04D081E008958FEF089589
:1012C000CF92DF92EF92FF928091A0049091A104BF
:1012D000A091A204B091A304181619061A061B06C1
:1012E00024F481E08093A4046BC0C090CD01D09021
:1012F000CE01E090CF01F090D0018BE58C9DF00104
:101300008D9DF00D1124EF52FE4F80819181019748
:1013100029F52281338140919E0450919F0486E0FB
:10132000849FD001859FB00D1124A45ABB4F129603
:101330006D917C911397869FD001879FB00D1124EA
:10134000A45ABB4F8D919C9182179307C8F182E0FC
:1013500090E091838083C701B60142DD80919E04B5
:1013600090919F045EDF6093CD017093CE018093D6
:10137000CF019093D0012BE5269FD001279FB00D80
:101380001124FD01EF52FE4F41E050E051834083B4
:1013900041E050E060E070E04093C1015093C20131
:1013A0006093C3017093C401BD016B527E4F2C9DAD
:1013B000C0012D9D900D11248B529E4F0E946A01F9
:1013C000FF90EF90DF90CF90089561307105810517
:1013D000910531F06230710581059105F1F03FC052
:1013E0008091A0049091A104A091A204B091A304C3
:1013F000AC01BD014F5F5F4F6F4F7F4F4093A00423
:101400005093A1046093A2047093A304892B8A2BA8
:101410008B2B19F51092A40420C08091A004909108
:10142000A104A091A204B091A304181619061A06EB
:101430001B06ACF40197A109B1098093A004909315
:10144000A104A093A204B093A304892B8A2B8B2B15
:1014500021F48091A404811133DF81E008958FEF9E
:101460000895CF92DF92EF92FF921F93CF93DF9375
:101470006B017C0116DD182F87E0C816D104E1044A
:10148000F10470F48BE58C9DF0018D9DF00D11241D
:10149000EF52FE4F80819181009711F0059729F05E
:1014A000812F02DD8FEF9FEF09C0D281C381C70179
:1014B000B601E6DE812FF8DC8D2F9C2FDF91CF91D6
:1014C0001F91FF90EF90DF90CF9008958F929F92A1
:1014D000AF92BF92CF92DF92EF92FF92CF934B01E8
:1014E0005C0169017A01DDDCC82F87E08816910470
:1014F000A104B10490F48BE5889DF001899DF00D65
:101500001124EF52FE4F80819181009731F0DF016D
:10151000A05BBF4F2C91222321F08C2FC5DC8FEFD5
:1015200016C0E45BFF4FC082D182E282F38221E0E9
:101530002C938330910529F0079731F4C501B4014C
:1015400010D0C501B4019CDE8C2FAEDC81E0CF91C0
:10155000FF90EF90DF90CF90BF90AF909F908F90D3
:101560000895CF92DF92EF92FF92CF936B017C01AF
:1015700098DCC82F87E0C816D104E104F10488F490
:101580008BE58C9DF0018D9DF00D1124EF52FE4FE7
:1015900080819181009729F08430910531F007977F
:1015A00021F08C2F81DC8FEF24C026E02C9DD00110
:1015B0002D9DB00D1124A45ABB4F12968D919C9174
:1015C0001397873091057CF4289FF001299FF00D37
:1015D0001124E45AFB4F208131818D919C91820F1F
:1015E000931F91838083C701B6018ADA8C2F5CDC5C
:1015F00081E0CF91FF90EF90DF90CF9008959FDA38
:101600005CCCCF9361E070E080E090E0DEDEC6E08D
:101610008091BF019091C001C89FF001C99FF00D5A
:101620001124E45AFB4F228133812730310574F4B1
:10163000C29FF001C39FF00D1124E45AFB4F20819B
:101640003181232B19F4EDDD1BDEE2CF62E070E087
:1016500080E090E0BADECF91089583EB91E001D075
:1016600027CC08950F931F9300E010E09801041712
:1016700015072607370764F4DC01ED91CD010F5FF4
:101680001F4F2F4F3F4FE111F2CFB801C90104C0E6
:101690006FEF7FEF8FEF9FEF1F910F910895A6E0FF
:1016A000B0E0E4E5FBE0C7C4182F9C831B0169018F
:1016B0007A01F7DB082F40E150E060E070E0812F15
:1016C0009C81D0DF4B015C0141E050E060E070E0C4
:1016D000C101C8DF2B013C012FEF82169206A20642
:1016E000B20649F16F3F7F4F8F4F9F4F21F153E07B
:1016F000C516D104E104F104F0F48091A5049091A1
:10170000A604A091A704B091A80484309105A10576
:10171000B1058CF419831C811A8325E1289FA0014F
:10172000299F500D11245E834D8320E030E040E07E
:1017300050E0BA0104C0802FB7DB8FEF42C04815DC
:1017400059056A057B059CF4E981FA811191FA83B8
:10175000E983ED81FE81E20FF31FE755FB4F108314
:101760004F5F5F4F6F4F7F4F2F5F3F4FE8CF141496
:101770001504160417045CF4F101208135E1389F4B
:10178000F001399FF00D1124E755FB4F208B25E127
:10179000289FF001299FF00D1124E755FB4FC18AC6
:1017A000D28AE38AF48A0196A11DB11D8093A50413
:1017B0009093A604A093A704B093A804802F74DB91
:1017C00081E02696E2E153C4A0E2B0E0E9EEFBE05E
:1017D00036C486E0E5E4F1E0DE015B9601900D920F
:1017E0008A95E1F71092A5041092A6041092A7041E
:1017F0001092A8048BE491E034DF80EDA82E80E005
:10180000B82E88E090E09C01205D30404901DE0167
:101810005B968E010F5F1F4FC12CD12C76013801D2
:101820008D91F8018193882339F03FEFC31AD30AD1
:10183000E30AF30A8F01F4CFB4016A0D7B1D6053F4
:101840007F4F4AE050E0CE01419662D4FE0171968E
:10185000BFEFCB1ADB0AEB0AFB0A20E1C216D10468
:10186000E104F10464F481919FEB980F9A3108F43C
:10187000805ED8018D938D018111EACF09C030E1DE
:10188000C316D104E104F10419F081E791E00DC021
:10189000F501259135914591559169E371E0C301B9
:1018A000FEDE8F3F19F486E991E0DBDEF9E2AF0E50
:1018B000B11C2BE4A21621E0B20609F0A8CF2FEF4D
:1018C0003FEFA90169E371E085E491E0E8DE81E0A2
:1018D000A096EEE0D0C34F925F926F927F928F926C
:1018E0009F92AF92BF92DF92EF92FF920F931F935E
:1018F000CF93DF9300D000D01F92CDB7DEB7E0903A
:10190000A504F090A6040091A7041091A804E98210
:10191000FA820B831C8329EA34E0812C912C540138
:10192000E980FA800B811C818E149F04A006B10609
:10193000ACF47C01F901412C512C3201D7014191C9
:101940004423C1F00FEFE01AF00A5C9145130AC07E
:101950001FEF411A510A610A710AF0CF6FEF7FEF52
:10196000CB0165C00FEF801A900AA00AB00A2B5E67
:101970003F4FD6CF7D83D62E40E150E060E070E04F
:1019800071DE698385E1889D8001899D100D112498
:1019900007541B4F40E150E060E070E0C80162DE98
:1019A000A9812A2FAA0F330B440B550B2419350993
:1019B000460957092B013C01B1E04B1A5108610857
:1019C0007108420E531E641E751EE1E14E1651044D
:1019D000610471041CF62B013C01D801ED2DFD8141
:1019E00081E0481A5108610871081414150416049E
:1019F00017041CF48D918193F3CF1216130614066D
:101A000015064CF4D7018D917D0181932150310948
:101A100041095109F2CF85E1889DF001899DF00DC2
:101A20001124E755FB4F61897289838994890F904E
:101A30000F900F900F900F90DF91CF911F910F910A
:101A4000FF90EF90DF90BF90AF909F908F907F902E
:101A50006F905F904F900895CF92DF92EF92FF9238
:101A6000FB01C12CD12C7601C216D306E406F50683
:101A700064F46191DC016D93CD01662341F0BFEF09
:101A8000CB1ADB0AEB0AFB0AEFCF8FEF01C081E034
:101A9000FF90EF90DF90CF900895A0E1B0E0E2E5F5
:101AA000FDE0CFC28B0149015A0120E130E040E066
:101AB00050E0BC01CE010196CFDF8F3FF1F0C12C89
:101AC000D12C76010DC020E130E040E050E0B801BB
:101AD000CE010196C1DF8FEFC81AD80AE80AF80ACA
:101AE0008091A5049091A604A091A704B091A804A8
:101AF000C816D906EA06FB0614F08FEF0AC0B80133
:101B0000CE010196E8DE681579058A059B05D9F2B4
:101B1000862F6096ECE0B1C2A0E1B0E0E1E9FDE023
:101B200098C2FC01CB018A012591359145915591CF
:101B3000BE016F5F7F4FB1DF682F880F770B880B77
:101B4000990B6F3F2FEF72078207920731F09801D0
:101B5000AE014F5F5F4F27DB01C08FEF6096E4E07F
:101B600094C2E0910401F091050180E4848384E84B
:101B700082830895E0910401F09105019481907FA2
:101B8000892B8483828180648283828186FDFDCF5C
:101B90008081218190E0922B0895A4E0B0E0E2EDF5
:101BA000FDE059C2E0910E01F0910F0180818F6339
:101BB0008083E0910C01F0910D0180818F6380831F
:101BC000E0910801F091090180818083E091060194
:101BD000F091070180818460808371D124D0C1DFBE
:101BE0001F921F928BE491E09F938F931F928EE13F
:101BF0008F931F9286E98F9386E39FE09F938F9345
:101C00000E941C032EDC8FE491E022D076D08FEF6F
:101C10009FEF9C838B839A8389830FB6F894DEBFF2
:101C20000FBECDBFFFCFE0911001F09111011582E1
:101C300087E6848386E0828388E181830895E0914A
:101C40001001F0911101908195FFFDCF86830895D9
:101C5000CF93DF93EC018991882311F0F0DFFBCF64
:101C60008DE0EDDF8AE0EBDFDF91CF910895CF9338
:101C7000DF93EC018991882311F0E1DFFBCFDF9145
:101C8000CF910895A0E0B0E0E7E4FEE0DCC1AC0154
:101C90008B01ADB6BEB68DB79EB7861B970B0FB640
:101CA000F8949EBF0FBE8DBFEDB7FEB731967F0192
:101CB0009B01EAE0F0E01216130664F4CA01BF01CA
:101CC0008BD1AB0121503109D701A20FB31F805D29
:101CD0008C93F1CF6701C6018E199F098017910778
:101CE0002CF4F60181916F01AADFF5CF0FB6F894BD
:101CF000BEBE0FBEADBEEAE0C2C1CF93DF9384E6A5
:101D000091E0B5DFC0E0D0E0FE01EE0FFF1FE85725
:101D1000FE4F8081918163E070E0B4DF86E691E060
:101D2000A6DF2196C430D10579F789E691E09FDFDF
:101D3000DF91CF91089597FD2FC06115710579F45A
:101D4000880F991FFC01E058FE4F20813181121647
:101D5000130614F5208131812550310911C06130FD
:101D60007105D1F4880F991FFC01E058FE4F2081C6
:101D700031812436310584F4208131812B5F3F4F3E
:101D800031832083208131812A543F4FFC01E85761
:101D9000FE4F31832083B1CF0895A8E0B0E0E2ED9B
:101DA000FEE057C18B012FEF3FEF38872F833E8333
:101DB0002D833C832B833A8329838E3122E0920743
:101DC0002CF018861F821E821D8209C0813E914020
:101DD00034F418861F8281E090E09E838D838F818A
:101DE000988597FD09C08D819E8197FD05C06D8105
:101DF0007E818F8198859FDF0E3082E018073CF04E
:101E000081E090E09C838B831A8219820AC0013D95
:101E100021E0120734F481E090E09C838B839A8365
:101E200089838B819C8197FD09C089819A8197FD67
:101E300005C069817A818B819C817DDF2896E4E0F1
:101E400024C1E0910A01F0910B019081E0910C0115
:101E5000F0910D01808192FD08C085FD03C0808155
:101E6000806202C080818F7D80830895A0E0B0E011
:101E7000EBE3FFE0EAC08CE691E0EADE80E090E090
:101E800079DEEC0181E090E075DE8C01C7010296FD
:101E90008C179D076CF00497C817D9074CF0C60142
:101EA00002968017910724F00497081719072CF45D
:101EB000B801CE0172DF68017E01C3DFDFCFE091A0
:101EC0001401F09115018081808381818960818373
:101ED00082818283118683E58087E0911201F091EF
:101EE000130180818260808380E090E008951F92DA
:101EF0000F920FB60F9211242F933F934F935F933E
:101F00006F937F938F939F93EF93FF9380919001B3
:101F1000909191019C012F5F3F4F3093910120934D
:101F2000900125333E40E1F410929101109290010E
:101F300080E090E041E050E09A01082E01C0220FBD
:101F40000A94EAF72093FD04E0910C01F0910D0151
:101F50003081232B208301968430910569F72DC0B1
:101F6000855B91098536910540F520E030E041E040
:101F700050E0F901EE0FFF1FE857FE4F60817181BD
:101F800080919001909191016817790789F4CA01B5
:101F9000022E01C0880F0A94EAF78095877C80930F
:101FA000FD04E0910C01F0910D0190818923808363
:101FB0002F5F3F4F24303105E1F6FF91EF919F9164
:101FC0008F917F916F915F914F913F912F910F90E2
:101FD0000FBE0F901F90189597FB072E16F40094D4
:101FE00006D077FD08D05ED007FC05D03EF4909572
:101FF00081959F4F0895709561957F4F0895052EA7
:1020000097FB16F400940FD057FD05D05FD007FC66
:1020100002D046F408C050954095309521953F4F29
:102020004F4F5F4F089590958095709561957F4FC4
:102030008F4F9F4F08952F923F924F925F926F92D2
:102040007F928F929F92AF92BF92CF92DF92EF9248
:10205000FF920F931F93CF93DF93CDB7DEB7CA1BC9
:10206000DB0B0FB6F894DEBF0FBECDBF09942A88F4
:10207000398848885F846E847D848C849B84AA849C
:10208000B984C884DF80EE80FD800C811B81AA8129
:10209000B981CE0FD11D0FB6F894DEBF0FBECDBFF4
:1020A000ED010895AA1BBB1B51E107C0AA1FBB1F6E
:1020B000A617B70710F0A61BB70B881F991F5A95D4
:1020C000A9F780959095BC01CD010895A1E21A2E43
:1020D000AA1BBB1BFD010DC0AA1FBB1FEE1FFF1FCC
:1020E000A217B307E407F50720F0A21BB30BE40B1C
:1020F000F50B661F771F881F991F1A9469F7609563
:102100007095809590959B01AC01BD01CF0108951C
:10211000FB01DC014150504048F005900D92002039
:10212000C9F701C01D9241505040E0F70895DC010D
:1021300001C06D9341505040E0F70895AEE0B0E02B
:10214000E3EAF0E186CF8C01FA0186E08C831A8302
:10215000098377FF02C060E070E8CB0101979E839E
:102160008D83A901BF01CE01019611D04D815E8101
:1021700057FD0AC02F813885421753070CF49A0186
:10218000F801E20FF31F10822E96E4E07ECFABE061
:10219000B0E0ECECF0E14FCF6C017B018A01FC0177
:1021A00017821682838181FFBFC1CE0101963C0157
:1021B000F6019381F70193FD859193FF81917F0152
:1021C000882309F4ADC1853239F493FD859193FFDD
:1021D00081917F01853221F4B60190E0C0D1E8CF32
:1021E000912C212C312CFFE1F315D8F08B3279F0B2
:1021F00038F4803279F08332A1F4232D20611DC0A0
:102200008D3261F0803369F4232D216016C0832D57
:102210008260382EE32DE4603E2E2AC0F32DF86054
:102220001DC037FC2DC020ED280F2A3040F08E3223
:10223000B9F436FC75C1232D2064322E19C036FE48
:1022400006C08AE0989E200D1124922E11C0EAE06B
:102250002E9E200D1124222EF32DF0623F2E08C059
:102260008C3621F4832D8068382E02C0883641F4E4
:10227000F70193FD859193FF81917F018111B3CF88
:10228000982F9F7D9554933028F40C5F1F4F9FE348
:1022900099830DC0833631F0833771F0833509F0AF
:1022A00055C020C0F801808189830E5F1F4F8824AC
:1022B0008394912C530112C02801F2E04F0E511C5F
:1022C000F801A080B18036FE03C0692D70E002C025
:1022D0006FEF7FEFC50138D14C018201F32DFF77FD
:1022E0003F2E15C0280122E0420E511CF801A080AB
:1022F000B18036FE03C0692D70E002C06FEF7FEF42
:10230000C50117D14C01F32DF0683F2E820133FC3B
:1023100019C0822D90E088169906A0F4B60180E2DB
:1023200090E01DD12A94F5CFF50137FC859137FE59
:1023300081915F01B60190E012D121102A9421E031
:10234000821A91088114910479F7E1C0843611F062
:10235000893639F5F80137FE07C0608171818281C5
:1023600093810C5F1F4F08C060817181072E000CA4
:10237000880B990B0E5F1F4FF32DFF763F2E97FFB3
:1023800009C090958095709561957F4F8F4F9F4FB5
:10239000F0683F2E2AE030E0A3011DD1882E861878
:1023A00044C0853731F4232D2F7EB22E2AE030E051
:1023B00025C0932D997FB92E8F36C1F018F488353A
:1023C00079F0AEC0803719F0883721F0A9C0E92F25
:1023D000E061BE2EB4FE0DC0FB2DF460BF2E09C01F
:1023E00034FE0AC0292F2660B22E06C028E030E055
:1023F00005C020E130E002C020E132E0F801B7FE84
:1024000007C060817181828193810C5F1F4F06C07C
:102410006081718180E090E00E5F1F4FA301DBD0EF
:10242000882E8618FB2DFF773F2E36FE0DC0232DFC
:102430002E7FA22E891458F434FE0BC032FC09C042
:10244000832D8E7EA82E05C0B82CA32C03C0B82CDB
:1024500001C0B92CA4FE0FC0FE01E80DF11D808162
:10246000803321F49A2D997EA92E09C0A2FE06C0C0
:10247000B394B39404C08A2D867809F0B394A3FC76
:1024800010C0A0FE06C0B21480F4280C922C9B1839
:102490000DC0B21458F4B60180E290E060D0B3945D
:1024A000F8CFB21418F42B1802C0982C212CA4FEDB
:1024B0000FC0B60180E390E052D0A2FE16C0A1FC8E
:1024C00003C088E790E002C088E590E0B6010CC048
:1024D0008A2D867851F0A1FE02C08BE201C080E215
:1024E000A7FC8DE2B60190E03AD0891430F4B60131
:1024F00080E390E034D09A94F8CF8A94F301E80D09
:10250000F11D8081B60190E02AD08110F6CF222003
:1025100009F44ECEB60180E290E021D02A94F7CFA4
:10252000F6018681978102C08FEF9FEF2B96E2E143
:102530009ECDFC010590615070400110D8F7809548
:1025400090958E0F9F1F0895FC016150704001907F
:102550000110D8F7809590958E0F9F1F08950F93C7
:102560001F93CF93DF93FB01238121FD03C08FEFE6
:102570009FEF2CC022FF16C04681578124813581F0
:102580004217530744F4A081B1819D012F5F3F4F53
:10259000318320838C93268137812F5F3F4F378390
:1025A000268314C08B01EC01FB010084F185E02D32
:1025B0000995892BE1F6D80116968D919C91179774
:1025C000019617969C938E931697CE01DF91CF912B
:1025D0001F910F910895FA01AA27283051F1203157
:1025E00081F1E8946F936E7F6E5F7F4F8F4F9F4FA7
:1025F000AF4FB1E03ED0B4E03CD0670F781F891FE9
:102600009A1FA11D680F791F8A1F911DA11D6A0FB6
:10261000711D811D911DA11D20D009F468943F9169
:102620002AE0269F11243019305D3193DEF6CF0168
:102630000895462F4770405D4193B3E00FD0C9F72E
:10264000F6CF462F4F70405D4A3318F0495D31FD9B
:102650004052419302D0A9F7EACFB4E0A6959795EE
:10266000879577956795BA95C9F7009761057105C4
:1026700008959B01AC010A2E06945795479537950E
:102680002795BA95C9F7620F731F841F951FA01D68
:022690000895AB
:10269200C000070078002B002A0029002500240032
:1026A200C0006F008000201B5B306D1B5B324A1B39
:1026B2005B3B48000A467265654D454D3A256420EC
:1026C200286279746573290A0A006E756C6C700051
:1026D2006D61696E002F6465762F00737469000D59
:1026E20052544F535F4C414220494E494349414461
:1026F2004F0D0A005B002C20005D20000D53746911
:0C270200636B2073746172740D0A000098
:00000001FF
