:100000004AC1000066C1000064C1000062C1000076
:1000100060C100005EC100005CC100005AC1000068
:1000200058C1000056C1000054C100000C94280FB4
:1000300050C100004EC100000BC200004AC10000C8
:1000400048C1000046C10000B2C1000042C100002A
:1000500040C100003EC100003CC100003AC10000A8
:1000600038C1000036C100000C944B010C946901AA
:100070000C9469010C9469010C9469010C94690158
:100080000C9469010C9469010C9469010C94690148
:100090000C9469010C94280F0C9469010C9469016B
:1000A0000C9428020C9469010C9469010C94690168
:1000B0000C94D7010C9469010C9469010C946901AA
:1000C0000C9469010C9469010C9469010C94690108
:1000D0000000000000000000434F4E534F4C45000D
:1000E00000005B075B075B075B075B0759075B0764
:1000F0005B075907000059070001000000010000DC
:10010000004E554C4C4445560000005B075B075BB6
:10011000075B075B0759075B075B07590700005937
:10012000070002000000000000004E414D45535002
:1001300041434500E20B8A0D5907590759075907F2
:1001400059075907590700005907006E616D696E1C
:100150006974202864657669636573293A0D0A001D
:100160004552524F522047455453544B2025730A51
:10017000006E616D6573706163653A2064657669D0
:100180006365206E616D6520257320746F6F206C30
:100190006F6E670D0A006E616D6573706163653A1D
:1001A0002063616E6E6F74206D6F756E74202564B0
:1001B0000D0A000A0A416C6C20757365722070721A
:1001C0006F636573736573206861766520636F6D17
:1001D000706C657465642E0A0A000A57656C636F5B
:1001E0006D6520746F2058696E75210A0A0D0958D3
:1001F000696E75204F5320436F7079726967687418
:100200002028632920323031322C20323031350A17
:100210000D09446F75676C617320452E20436F6D27
:10022000657220616E64204352432050726573737F
:100230002C20496E632E0A0A0D0958696E75204FED
:100240005320666F72204156522061746D6567615C
:10025000333238702076302E312028632920323016
:1002600032300A0D0952616661656C2049676E6122
:1002700063696F205A7572697461203C72616661AE
:100280004066692E756E636F6D612E6564752E61B3
:10029000723E0A0A0D0011241FBECFEFD8E0DEBF68
:1002A000CDBF11E0A0E0B1E0E4EFF5E202C00590BF
:1002B0000D92A637B107D9F724E0A6E7B1E001C057
:1002C0001D92A83FB207E1F70C9456060E94080E53
:1002D000FEC296CEFF93EF93FC0100820FB6F89416
:1002E00004A21182228233824482558266827782FE
:1002F00080869186A286B386C486D586E686F786F2
:10030000008B118B228B338B448B558B668B778BB9
:10031000808F918FA28FB38FC48FD58F0F90068E51
:100320000F90078E0DB600A20EB601A2FB0100A031
:100330000DBE01A00EBE078C0F92068C0F92D58DBC
:10034000C48DB38DA28D918D808D778966895589F5
:1003500044893389228911890089F784E684D58408
:10036000C484B384A284918480847780668055801D
:10037000448033802280118004A00FBE0080EF9162
:10038000FF910895E0910001F0910101158287E647
:10039000848386E0828388E181830895E09100016F
:1003A000F0910101908195FFFDCF868308951F9202
:1003B0000F920FB60F9211248F938091C6008093F5
:1003C0008C018F910F900FBE0F901F901895A4E095
:1003D000B0E0EDEEF1E00C94DA0F19821A821B8284
:1003E0001C8219821A821B821C8209811A812B812C
:1003F0003C81061717072807390770F400000981A8
:100400001A812B813C810F5F1F4F2F4F3F4F098374
:100410001A832B833C83E9CF2496E4E00C94F60FF7
:1004200080E284B92D9A60E47DE083E090E0CFDF44
:100430002D9860E47DE083E090E0C9CF1092B50193
:100440001092B6011092B7011092B80181E00895A0
:100450001F920F920FB60F9211242F933F934F9339
:100460005F936F937F938F939F93AF93BF93EF931C
:10047000FF938091BF019091C001A091C101B09103
:10048000C2010196A11DB11D8093BF019093C001CF
:10049000A093C101B093C201883E9340A105B1056C
:1004A000D8F08091C3019091C401A091C501B09191
:1004B000C6010196A11DB11D8093C3019093C40193
:1004C000A093C501B093C6011092BF011092C00164
:1004D0001092C1011092C2018091B9019091BA01AC
:1004E00026E0289FF001299FF00D1124EA5AFB4FC6
:1004F000828193818730910584F4289FF001299FA0
:10050000F00D1124EA5AFB4F80819181019791836C
:100510008083892B11F40E94FF0A8091BB01909186
:10052000BC01A091BD01B091BE010197A109B10923
:1005300049F08093BB019093BC01A093BD01B0939F
:10054000BE010DC081E090E0A0E0B0E08093BB016F
:100550009093BC01A093BD01B093BE01AFD6FF91B3
:10056000EF91BF91AF919F918F917F916F915F912B
:100570004F913F912F910F900FBE0F901F901895A4
:10058000DED59093BA018093B90181E090E0A0E0BC
:10059000B0E08093BB019093BC01A093BD01B093E8
:1005A000BE011092C3011092C4011092C5011092B5
:1005B000C6011092BF011092C0011092C1011092A9
:1005C000C20185B5836085BD84B5826084BD89EF35
:1005D00087BDEEE6F0E08081826080830895CF924F
:1005E000DF92EF92FF92CF93DF936B017C0159D49E
:1005F000D82F83E0C816D104E104F10420F08D2F38
:1006000053D4CFEF11C029E22C9DC0012D9D900D38
:10061000112480539F4FFC0176960590F491E02DB4
:100620000995C82F8D2F40D48C2FDF91CF91FF904B
:10063000EF90DF90CF900895A6E0B0E0E2E2F3E023
:100640000C94CC0F2B8D29838C8CED8CFE8C09A106
:100650003AA13E8326D4982E40E4E416F1041CF41B
:1006600070E4E72EF12C83E0E80EF11C9CEFE92208
:1006700027010F2C000C66087708C301B20168D26D
:100680001C01019671F480E691E0E9D7892D0CD424
:10069000FFEFFA832FEF2B833FEF3C834FEF4D8328
:1006A00009C1309176012091770180917801909174
:1006B0007901A12CB12C1BE5632F722F27E030E0CC
:1006C00040E050E00E94B00F6B017C016A83DB8246
:1006D000EC82FD82169FF001179FF00D1124E55367
:1006E000FE4F80819181B701A6014F5F5F4F6F4F31
:1006F0007F4F892B79F44093760150937701609373
:100700007801709379018FEFC816D806E806F806CD
:10071000A1F4B9CF342F252FCB01EFEFAE1ABE0ACB
:10072000F7E0AF16B10441F640937601509377019C
:100730006093780190937901A6CF2F8D38A112167E
:1007400013060CF0A0CF8091480490914904A09129
:100750004A04B0914B040196A11DB11D8093480439
:1007600090934904A0934A04B0934B0485E090E031
:10077000918380833383228331AE20AE42AE53AE69
:1007800064AE75AEDF01AB5BBF4F1C92A02FBE8184
:100790008F0180E090E02D91F801E80FF91F26AF5E
:1007A000222321F0019687309105A9F72BE52C9D96
:1007B000C0012D9D900D1124FC01E553FE4F5F01FA
:1007C000EA5BFF4F8FEF9FEF91838083B8D1F501F4
:1007D000E85BFF4F60837183828393833896108236
:1007E00031961182108232961182108232961182D5
:1007F00010828AEAF10180838BA19CA1F50193A765
:1008000082A720E030E0F801E20FF31F14822F5F8F
:100810003F4F26323105B9F72BE52C9DF0012D9D78
:10082000F00D1124E553FE4F298124AB85AA26A3A0
:1008300087A220E820A7DE01959620E030E0281767
:10084000390764F44D915D91F901EE0FFF1FE00F40
:10085000F11F55A744A72F5F3F4FF1CFFC017696BC
:10086000EE0FFF1F4BE54C9D90014D9D300D112467
:10087000E20FF31FE553FE4F11821082F901E55399
:10088000FE4F848F958F29503E4F228F338F8DEFEF
:100890009AE0D10111978C9311979C93119739810C
:1008A0003C9311978C9245E0241A310824A235A27A
:1008B000892DFAD26A817B818C819D812696E2E125
:1008C0000C94E80F61E070E080E090E0089537D18B
:1008D000F4C2A0E0B0E0EFE6F4E00C94D20FEC013B
:1008E0006A017B01DED2C114D104E104F10409F4F0
:1008F00047C02091520430915304C217D30708F423
:100900003FC020915404309155042C173D07C0F18D
:1009100097E0C90ED11CE11CF11C98EFC922A60179
:10092000DD0C660B770BE0914C04F0914D04ACE4C8
:10093000B4E0309741F0EC17FD0740F5DF0101907E
:10094000F081E02DF6CF94E0AC34B907D1F11296E6
:10095000CD90DD90ED90FC9015978D010B2E000C45
:10096000220B330B0C0D1D1D2E1D3F1D6E010D2E78
:10097000000CEE08FF08C016D106E206F30618F4D4
:1009800093D28FEF82C0309741F41EC094E0AC3414
:10099000B907E9F600E010E098016E010D2E000C99
:1009A000EE08FF08C40ED51EE61EF71E4F010F2EDF
:1009B000000CAA08BB088C149D04AE04BF0420F4EC
:1009C000DFCF00E010E09801C0904E04D0904F04BB
:1009D000E0905004F0905104C40ED51EE61EF71EA0
:1009E000C0924E04D0924F04E0925004F092510411
:1009F0006E010D2E000CEE08FF08C016D106E206AF
:100A0000F30691F412960D911D912D913C9115973D
:100A1000400F511F621F731F12964D935D936D938C
:100A20007C931597ED0108C0F983E8834A835B83C3
:100A30006C837D83CD93DC934A815B816C817D8166
:100A40008E010D2E000C220B330B040F151F261FD9
:100A5000371F6F010F2E000CEE08FF080C151D0547
:100A60002E053F0581F40281138124813581400FD9
:100A7000511F621F731F4A835B836C837D832081B8
:100A800031813983288310D281E0CDB7DEB7ECE025
:100A90000C94EE0F26E0AC01249FC001259F900D21
:100AA0001124FC01EA5AFB4F428153814730510522
:100AB0001CF5BA01052E000C880B990B249FF00140
:100AC000259FF00D1124EA5AFB4FA281B381448186
:100AD0005581249FF001259FF00D1124EA5AFB4F08
:100AE000B383A2832A9FF0012B9FF00D1124EA5AB1
:100AF000FB4F5583448308956FEF7FEFCB0108953B
:100B000046E0469FF001479FF00D1124EA5AFB4F43
:100B1000A281B38124813581429FF001439FF00D72
:100B20001124EA5AFB4FB383A2834A9FF0014B9FE3
:100B3000F00D1124EA5AFB4F358324830895609108
:100B4000C7017091C8018091C9019091CA010895AF
:100B5000A0E0B0E0EEEAF5E00C94D60F6B017C016A
:100B6000A0D1C114D104E104F10449F197E0C90E08
:100B7000D11CE11CF11C98EFC9220D2C000CEE08D1
:100B8000FF08E0914C04F0914D04A0E0B0E0C0E01B
:100B9000D0E02CE434E0309781F0428153816481CD
:100BA00075814C155D056E057F0510F0D901EF01CB
:100BB0009F010190F081E02DEECF209721F474D1B8
:100BC0008FEF9FEF41C00A811B812C813D81C016B0
:100BD000D106E206F30629F4288139812D933C934E
:100BE00011C00C191D092E093F090A831B832C8390
:100BF0003D83AE01DD0F660B770B040F151F261F1B
:100C0000371FE80140914E0450914F046091500409
:100C1000709151044C195D096E097F0940934E048F
:100C200050934F0460935004709351043DD1D70109
:100C3000C6010497A109B109AE01DD0F660B770B60
:100C4000840F951FA61FB71FCDB7DEB7E8E00C9441
:100C5000F20FCF92DF92EF92FF92CF93DF936B016F
:100C60007C011FD1D82F83E0C816D104E104F10420
:100C700020F08D2F19D1CFEF11C029E22C9DC0019A
:100C80002D9D900D112480539F4FFC01729605906D
:100C9000F491E02D0995C82F8D2F06D18C2FDF916F
:100CA000CF91FF90EF90DF90CF900895B3D280E185
:100CB00091E09F938F93E1D18AED91E0D0D408D257
:100CC000109248041092490410924A0410924B0466
:100CD00010929A0410929B0410929C0410929D040E
:100CE000EBECF1E088E494E00F900F901182108219
:100CF00016AE11AE10AE13821282E55AFF4F8E1758
:100D00009F07A1F79BDB1BD29093990480939804D3
:100D100060E070E0CB019DDF61E070E080E090E09A
:100D200098DF62E070E080E090E093DF29DCE09102
:100D30004C04F0914D0480E090E0DC01309761F0CC
:100D40004281538164817581840F951FA61FB71F4F
:100D50000190F081E02DF2CFBF93AF939F938F93DB
:100D60008EE191E09F938F9388D11F921F921F92E3
:100D70001F9284E391E09F938F931F928AE08F9359
:100D80001F9280E48F931F921F9256DC2BE5269FC3
:100D9000F001279FF00D1124E553FE4F81E090E014
:100DA0009183808383D01F921F921F921F928AE3A8
:100DB00091E09F938F931F928EE18F9382E08F93A8
:100DC0001F9288E09EE09F938F9336DC48D38DB7C7
:100DD0009EB74E960FB6F8949EBF0FBE8DBFFFCF45
:100DE0001F93CF93DF93FA013797339708F054C0DE
:100DF000673071058105910508F04EC03BE5369FCF
:100E0000F001379FF00D1124E553FE4F0190F08162
:100E1000E02DEF2B09F440C036E0349FF001359F00
:100E2000F00D1124EA5AFB4F42815381022E000C2F
:100E3000330BC6E016E0C49FF001C59FF00D1124EE
:100E4000EA5AFB4FA081B181A217B30718F0428183
:100E50005381F0CFC481D581169FD001179FB00D6B
:100E60001124AA5ABB4F13965C934E931297159672
:100E7000DC93CE9314972D933C931C9FD0011D9F20
:100E8000B00D1124AA5ABB4F13967C936E93129700
:100E90007583648381E001C08FEFDF91CF911F9153
:100EA00008958FB7F89408958FBF089578940895A2
:100EB000FFCF8FEF089581E00895AF92BF92CF9258
:100EC000DF92EF92FF921F93CF93DF936B017C0130
:100ED000E8DF182F87E0C816D104E104F10488F494
:100EE0008BE58C9DF0018D9DF00D1124E553FE4F97
:100EF00080819181892B29F0C114D104E104F1048E
:100F000021F4812FD1DF8FEF9DC080914804909113
:100F10004904A0914A04B0914B040197A109B10979
:100F20008093480490934904A0934A04B0934B04DF
:100F30000297A105B1050CF48ED38BE58C9D500171
:100F40008D9DB00C1124F501ED5EFD4F6081718126
:100F500082819381A7019601B7D2C0E0D0E0FE0163
:100F6000EA0DFB1DE45EFD4F60817181072E000CD0
:100F7000880B990B34DB2296C630D10581F78BE5BF
:100F80008C9DE0018D9DD00D1124C553DE4F4AADDF
:100F90005BAD6CAD7DAD495F5F4F6F4F7F4F487F5D
:100FA000052E000C660B770B88AD99AD092E000C51
:100FB000AA0BBB0B0496A11DB11D841B950BA60BA0
:100FC000B70B87DC888199818430910581F030F4FA
:100FD0008130910549F0029729F127C086309105AB
:100FE00051F0079721F021C01982188267D1C701FB
:100FF000B601B5D21AC0CA5BDF4F8881998127E05C
:10100000289FF001299FF00D1124E45BFB4F8181A3
:101010009281A381B4810196A11DB11D8183928328
:10102000A383B483C701B6016BDD8BE58C9DF00112
:101030008D9DF00D1124E553FE4F11821082812FFA
:1010400033DF81E0DF91CF911F91FF90EF90DF9030
:10105000CF90BF90AF900895CF93DF93C82F21DF3B
:10106000D82FCA3011F48DE099D98C2F97D98D2FB4
:101070001BDF81E0DF91CF910895A1E5B0E0E2E4CC
:10108000F8E096C78E01065A1F4FF801E190F190E3
:101090008F0121E530E040E050E060E070E0CE01FB
:1010A0000196F6D79801A70160E570E0CE010196A0
:1010B000F6D78E010F5F1F4FF80181918F018823B2
:1010C00011F0CADFF9CF81E0CF5ADF4FE6E08CC7DD
:1010D0000F931F93CF93DF9388EF94E0A0E8BB2793
:1010E0000196A11DB11DEC0190935304809352040D
:1010F0002FEE38E03093550420935404ECE4F4E0F0
:101100009183808319821882092E000CAA0BBB0BD5
:101110004FEE58E060E070E08A019B01081B190B5C
:101120002A0B3B0B0A831B832C833D83028313838F
:1011300024833583DF91CF911F910F9108952091E2
:101140000201309103012B30310544F5C9010296AB
:101150009093030180930201A9014F5F5F4F66E006
:10116000629FF001639FF00D1124EA5AFB4F5383F5
:1011700042838FEF9FEF9583848391838083649F65
:10118000F001659FF00D1124EA5AFB4F938382838F
:101190003583248311821082C90108958FEF9FEF58
:1011A00008958F929F92AF92BF92EF92FF920F930A
:1011B0001F93CF93DF934B015C018A01790171DEAC
:1011C000D82F83E088169104A104B10420F08D2F5C
:1011D0006BDECFEF13C029E2289DC001299D900D41
:1011E000112480539F4FFC0174960590F491E02DDB
:1011F000A701B8010995C82F8D2F56DE8C2FDF91DE
:10120000CF911F910F91FF90EF90BF90AF909F9063
:101210008F900895F89404D903D9B4D853CBCF93C1
:101220009C012750310923303105F8F4C6E0C89FEE
:10123000F001C99FF00D1124EA5AFB4F228133813E
:101240002730310594F426DCC69FF001C79FF00DCE
:101250001124EA5AFB4F2FEF3FEF3583248333836A
:101260002283462F372F282F04C04FEF3FEF2FEF59
:101270009FEF642F732F822FCF91089567307105F0
:1012800081059105C8F42BE5269FF001279FF00DFD
:101290001124E553FE4F20813181232B69F022E098
:1012A00030E0318320834091980450919904228149
:1012B00097DD04D081E008958FEF0895CF92DF92FB
:1012C000EF92FF9280919A0490919B04A0919C04CC
:1012D000B0919D04181619061A061B0624F481E025
:1012E00080939E046BC0C090C701D090C801E0906D
:1012F000C901F090CA018BE58C9DF0018D9DF00D28
:101300001124E553FE4F80819181019729F52281B7
:101310003381409198045091990486E0849FD001D4
:10132000859FB00D1124AA5ABB4F12966D917C91E6
:101330001397869FD001879FB00D1124AA5ABB4FE7
:101340008D919C9182179307C8F182E090E0918380
:101350008083C701B60144DD80919804909199047F
:101360005EDF6093C7017093C8018093C9019093B9
:10137000CA012BE5269FD001279FB00D1124FD0146
:10138000E553FE4F41E050E05183408341E050E09F
:1013900060E070E04093BB015093BC016093BD01DD
:1013A0007093BE01BD0161537E4F2C9DC0012D9DE8
:1013B000900D112481539E4F0E946A01FF90EF907F
:1013C000DF90CF900895613071058105910531F06E
:1013D0006230710581059105F1F03FC080919A045A
:1013E00090919B04A0919C04B0919D04AC01BD011F
:1013F0004F5F5F4F6F4F7F4F40939A0450939B0412
:1014000060939C0470939D04892B8A2B8B2B19F578
:1014100010929E0420C080919A0490919B04A09108
:101420009C04B0919D04181619061A061B06ACF40C
:101430000197A109B10980939A0490939B04A0930A
:101440009C04B0939D04892B8A2B8B2B21F48091D3
:101450009E04811133DF81E008958FEF0895CF92CC
:10146000DF92EF92FF921F93CF93DF936B017C018A
:1014700018DD182F87E0C816D104E104F10470F4D8
:101480008BE58C9DF0018D9DF00D1124E553FE4FF1
:1014900080819181009711F0059729F0812F04DD5B
:1014A0008FEF9FEF09C0D281C381C701B601E6DE8D
:1014B000812FFADC8D2F9C2FDF91CF911F91FF9010
:1014C000EF90DF90CF9008958F929F92AF92BF924E
:1014D000CF92DF92EF92FF92CF934B015C016901B3
:1014E0007A01DFDCC82F87E088169104A104B104DB
:1014F00090F48BE5889DF001899DF00D1124E55352
:10150000FE4F80819181009731F0DF01A05BBF4FDA
:101510002C91222321F08C2FC7DC8FEF16C0E45BC7
:10152000FF4FC082D182E282F38221E02C9383308C
:10153000910529F0079731F4C501B40110D0C50118
:10154000B4019CDE8C2FB0DC81E0CF91FF90EF9056
:10155000DF90CF90BF90AF909F908F900895CF92E3
:10156000DF92EF92FF92CF936B017C019ADCC82F40
:1015700087E0C816D104E104F10488F48BE58C9D62
:10158000F0018D9DF00D1124E553FE4F8081918176
:10159000009729F08430910531F0079721F08C2FC6
:1015A00083DC8FEF24C026E02C9DD0012D9DB00D53
:1015B0001124AA5ABB4F12968D919C911397873094
:1015C00091057CF4289FF001299FF00D1124EA5A1F
:1015D000FB4F208131818D919C91820F931F9183CC
:1015E0008083C701B6018CDA8C2F5EDC81E0CF915D
:1015F000FF90EF90DF90CF900895A1DA5ECCCF936B
:1016000061E070E080E090E0DEDEC6E08091B9014C
:101610009091BA01C89FF001C99FF00D1124EA5AB8
:10162000FB4F228133812730310574F4C29FF001D2
:10163000C39FF00D1124EA5AFB4F20813181232BE7
:1016400019F4EDDD1BDEE2CF62E070E080E090E0B7
:10165000BADECF91089583EB91E001D029CC0895B3
:101660000F931F9300E010E0980104171507260759
:10167000370764F4DC01ED91CD010F5F1F4F2F4F51
:101680003F4FE111F2CFB801C90104C06FEF7FEF06
:101690008FEF9FEF1F910F910895A6E0B0E0E2E574
:1016A000FBE07AC4182F9C831B0169017A01F9DBE6
:1016B000082F40E150E060E070E0812F9C81D0DF96
:1016C0004B015C0141E050E060E070E0C101C8DF27
:1016D0002B013C012FEF82169206A206B20649F1B9
:1016E0006F3F7F4F8F4F9F4F21F153E0C516D104BD
:1016F000E104F104F0F480919F049091A004A09182
:10170000A104B091A20484309105A105B1058CF427
:1017100019831C811A8325E1289FA001299F500D60
:1017200011245E834D8320E030E040E050E0BA01B8
:1017300004C0802FB9DB8FEF42C0481559056A05F8
:101740007B059CF4E981FA811191FA83E983ED81AB
:10175000FE81E20FF31FED55FB4F10834F5F5F4F8C
:101760006F4F7F4F2F5F3F4FE8CF141415041604BF
:1017700017045CF4F101208135E1389FF001399FB5
:10178000F00D1124ED55FB4F208B25E1289FF00132
:10179000299FF00D1124ED55FB4FC18AD28AE38AAF
:1017A000F48A0196A11DB11D80939F049093A0041B
:1017B000A093A104B093A204802F76DB81E026964B
:1017C000E2E106C4A0E2B0E0E7EEFBE0E9C386E0B8
:1017D000EFE3F1E0DE015B9601900D928A95E1F76F
:1017E00010929F041092A0041092A1041092A204DF
:1017F0008BE491E034DF80EDA82E80E0B82E88E005
:1018000090E09C01205D30404901DE015B968E0135
:101810000F5F1F4FC12CD12C760138018D91F8013B
:101820008193882339F03FEFC31AD30AE30AF30AFE
:101830008F01F4CFB4016A0D7B1D60537F4F4AE0E6
:1018400050E0CE01419615D4FE017196BFEFCB1A40
:10185000DB0AEB0AFB0A20E1C216D104E104F10421
:1018600064F481919FEB980F9A3108F4805ED8015F
:101870008D938D018111EACF09C030E1C316D104E7
:10188000E104F10419F081E791E00DC0F501259123
:1018900035914591559163E371E0C301FEDE8F3FC1
:1018A00019F486E991E0DBDEF9E2AF0EB11C2BE41E
:1018B000A21621E0B20609F0A8CF2FEF3FEFA90151
:1018C00063E371E08FE391E0E8DE81E0A096EEE073
:1018D00083C34F925F926F927F928F929F92AF924B
:1018E000BF92DF92EF92FF920F931F93CF93DF93FC
:1018F00000D000D01F92CDB7DEB7E0909F04F090EB
:10190000A0040091A1041091A204E982FA820B8341
:101910001C8323EA34E0812C912C5401E980FA8065
:101920000B811C818E149F04A006B106ACF47C01CF
:10193000F901412C512C3201D70141914423C1F0CE
:101940000FEFE01AF00A5C9145130AC01FEF411A2D
:10195000510A610A710AF0CF6FEF7FEFCB0165C0CA
:101960000FEF801A900AA00AB00A2B5E3F4FD6CF25
:101970007D83D62E40E150E060E070E071DE698347
:1019800085E1889D8001899D100D11240D541B4F08
:1019900040E150E060E070E0C80162DEA9812A2FDA
:1019A000AA0F330B440B550B241935094609570967
:1019B0002B013C01B1E04B1A510861087108420E3D
:1019C000531E641E751EE1E14E165104610471043C
:1019D0001CF62B013C01D801ED2DFD8181E0481A58
:1019E00051086108710814141504160417041CF436
:1019F0008D918193F3CF12161306140615064CF43D
:101A0000D7018D917D0181932150310941095109FF
:101A1000F2CF85E1889DF001899DF00D1124ED55EF
:101A2000FB4F61897289838994890F900F900F9081
:101A30000F900F90DF91CF911F910F91FF90EF903A
:101A4000DF90BF90AF909F908F907F906F905F904E
:101A50004F900895CF92DF92EF92FF92FB01C12C3D
:101A6000D12C7601C216D306E406F50664F4619122
:101A7000DC016D93CD01662341F0BFEFCB1ADB0A89
:101A8000EB0AFB0AEFCF8FEF01C081E0FF90EF90F0
:101A9000DF90CF900895A0E1B0E0E0E5FDE082C2E4
:101AA0008B0149015A0120E130E040E050E0BC01E7
:101AB000CE010196CFDF8F3FF1F0C12CD12C760102
:101AC0000DC020E130E040E050E0B801CE010196C9
:101AD000C1DF8FEFC81AD80AE80AF80A80919F047C
:101AE0009091A004A091A104B091A204C816D906B7
:101AF000EA06FB0614F08FEF0AC0B801CE0101968A
:101B0000E8DE681579058A059B05D9F2862F60966F
:101B1000ECE064C2A0E1B0E0EFE8FDE04BC2FC0104
:101B2000CB018A012591359145915591BE016F5F99
:101B30007F4FB1DF682F880F770B880B990B6F3FB2
:101B40002FEF72078207920731F09801AE014F5FC5
:101B50005F4F27DB01C08FEF6096E4E047C2E09162
:101B60000401F091050180E4848384E88283089570
:101B7000CF93DF9385E491E002D1C0E0D0E0FE0195
:101B8000EE0FFF1FEE57FE4F8081918163E070E002
:101B900001D187E491E0F3D02196C430D10579F7E3
:101BA0008AE491E0ECD0DF91CF91089597FD2FC0AA
:101BB0006115710579F4880F991FFC01E658FE4FF5
:101BC000208131811216130614F5208131812451B0
:101BD000310911C061307105D1F4880F991FFC01E2
:101BE000E658FE4F208131812436310584F420816E
:101BF00031812C5E3F4F31832083208131812A54F3
:101C00003F4FFC01EE57FE4F31832083B1CF089543
:101C1000A4E0B0E0EDE0FEE0C7C1E0910801F09182
:101C2000090180818F638083E0910601F0910701B3
:101C300080818F638083F4D075D091DF1F921F92D3
:101C40008DE491E09F938F931F928EE18F931F926B
:101C50008CE38F938DE09FE09F938F930E941C03F2
:101C6000FEDB81E591E07CD083DF8FEF9FEF9C83EB
:101C70008B839A8389830FB6F894DEBF0FBECDBFE6
:101C800001E010E0EE24EA94FE2C93E0C92ED12C62
:101C900022E0A22EB12CB9D0892BE9F358D0853699
:101CA000C1F044F4833601F1E4F4813629F51C8354
:101CB0000B8314C0823781F02CF48137E9F41C8245
:101CC0001B820CC0893799F08A37B1F4BC82AB8291
:101CD00005C01C821B820DC0DC82CB821A82198255
:101CE0000FC01C830B8305C0BC82AB8202C0DC82A8
:101CF000CB821A83098304C0FC82EB82FA82E982D8
:101D000069817A818B819C8151DF8B819C8197FFD6
:101D100004C089819A8197FDBECFFC82EB82FA8252
:101D2000E982B9CFE0910A01F0910B01158287E6B3
:101D3000848386E0828388E181830895E0910A01AB
:101D4000F0910B01908195FFFDCF86830895E0917E
:101D50000A01F0910B01808187FFFDCF86810895F4
:101D6000CF93DF93EC018991882311F0E7DFFBCF5C
:101D70008DE0E4DF8AE0E2DFDF91CF910895CF9339
:101D8000DF93EC018991882311F0D8DFFBCFDF913D
:101D9000CF910895A0E0B0E0EFECFEE005C1AC010A
:101DA0008B01ADB6BEB68DB79EB7861B970B0FB62F
:101DB000F8949EBF0FBE8DBFEDB7FEB731967F0181
:101DC0009B01EAE0F0E01216130664F4CA01BF01B9
:101DD000B4D0AB0121503109D701A20FB31F805DF0
:101DE0008C93F1CF6701C6018E199F098017910767
:101DF0002CF4F60181916F01A1DFF5CF0FB6F894B5
:101E0000BEBE0FBEADBEEAE0EBC0E0910A01F091AC
:101E10000B018081807890E0089586E691E0A0CF64
:101E2000E0910E01F0910F018081808381818960B2
:101E3000818382818283118683E58087E0910C0112
:101E4000F0910D0180818260808380E090E00895B0
:101E50001F920F920FB60F9211242F933F934F931F
:101E60005F936F937F938F939F93EF93FF938091F3
:101E70008A0190918B019C012F5F3F4F30938B0122
:101E800020938A0125333E40E1F410928B01109299
:101E90008A0180E090E041E050E09A01082E01C004
:101EA000220F0A94EAF72093F704E0910601F091DB
:101EB00007013081232B208301968430910569F737
:101EC0002DC0855B91098536910540F520E030E015
:101ED00041E050E0F901EE0FFF1FEE57FE4F608129
:101EE000718180918A0190918B016817790789F43B
:101EF000CA01022E01C0880F0A94EAF78095877CF8
:101F00008093F704E0910601F09107019081892305
:101F100080832F5F3F4F24303105E1F6FF91EF9131
:101F20009F918F917F916F915F914F913F912F91F1
:101F30000F900FBE0F901F90189597FB072E16F469
:101F4000009406D077FD08D05ED007FC05D03EF4A3
:101F5000909581959F4F0895709561957F4F089555
:101F6000052E97FB16F400940FD057FD05D05FD0D7
:101F700007FC02D046F408C0509540953095219555
:101F80003F4F4F4F5F4F08959095809570956195A5
:101F90007F4F8F4F9F4F08952F923F924F925F92A6
:101FA0006F927F928F929F92AF92BF92CF92DF9269
:101FB000EF92FF920F931F93CF93DF93CDB7DEB7CE
:101FC000CA1BDB0B0FB6F894DEBF0FBECDBF099462
:101FD0002A88398848885F846E847D848C849B84B9
:101FE000AA84B984C884DF80EE80FD800C811B81C7
:101FF000AA81B981CE0FD11D0FB6F894DEBF0FBEF6
:10200000CDBFED010895AA1BBB1B51E107C0AA1F5C
:10201000BB1FA617B70710F0A61BB70B881F991F89
:102020005A95A9F780959095BC01CD010895A1E23C
:102030001A2EAA1BBB1BFD010DC0AA1FBB1FEE1F42
:10204000FF1FA217B307E407F50720F0A21BB30B8D
:10205000E40BF50B661F771F881F991F1A9469F709
:1020600060957095809590959B01AC01BD01CF0165
:102070000895FB01DC014150504048F005900D925D
:102080000020C9F701C01D9241505040E0F708956B
:10209000DC0101C06D9341505040E0F70895AEE07F
:1020A000B0E0E4E5F0E186CF8C01FA0186E08C83B4
:1020B0001A83098377FF02C060E070E8CB010197C3
:1020C0009E838D83A901BF01CE01019611D04D8160
:1020D0005E8157FD0AC02F813885421753070CF4E3
:1020E0009A01F801E20FF31F10822E96E4E07ECFF2
:1020F000ABE0B0E0EDE7F0E14FCF6C017B018A018E
:10210000FC0117821682838181FFBFC1CE01019637
:102110003C01F6019381F70193FD859193FF819135
:102120007F01882309F4ADC1853239F493FD85918F
:1021300093FF81917F01853221F4B60190E0C0D1F7
:10214000E8CF912C212C312CFFE1F315D8F08B3204
:1021500079F038F4803279F08332A1F4232D2061B4
:102160001DC08D3261F0803369F4232D216016C0CB
:10217000832D8260382EE32DE4603E2E2AC0F32D9D
:10218000F8601DC037FC2DC020ED280F2A3040F02C
:102190008E32B9F436FC75C1232D2064322E19C05D
:1021A00036FE06C08AE0989E200D1124922E11C0A2
:1021B000EAE02E9E200D1124222EF32DF0623F2EF8
:1021C00008C08C3621F4832D8068382E02C08836F2
:1021D00041F4F70193FD859193FF81917F01811176
:1021E000B3CF982F9F7D9554933028F40C5F1F4FE9
:1021F0009FE399830DC0833631F0833771F08335C7
:1022000009F055C020C0F801808189830E5F1F4FFF
:1022100088248394912C530112C02801F2E04F0EC0
:10222000511CF801A080B18036FE03C0692D70E01A
:1022300002C06FEF7FEFC50138D14C018201F32D51
:10224000FF773F2E15C0280122E0420E511CF801F5
:10225000A080B18036FE03C0692D70E002C06FEF30
:102260007FEFC50117D14C01F32DF0683F2E82019D
:1022700033FC19C0822D90E088169906A0F4B601AF
:1022800080E290E01DD12A94F5CFF50137FC8591CD
:1022900037FE81915F01B60190E012D121102A949E
:1022A00021E0821A91088114910479F7E1C0843603
:1022B00011F0893639F5F80137FE07C06081718168
:1022C000828193810C5F1F4F08C060817181072E4E
:1022D000000C880B990B0E5F1F4FF32DFF763F2EDE
:1022E00097FF09C090958095709561957F4F8F4FAE
:1022F0009F4FF0683F2E2AE030E0A3011DD1882EC9
:10230000861844C0853731F4232D2F7EB22E2AE063
:1023100030E025C0932D997FB92E8F36C1F018F487
:10232000883579F0AEC0803719F0883721F0A9C020
:10233000E92FE061BE2EB4FE0DC0FB2DF460BF2E70
:1023400009C034FE0AC0292F2660B22E06C028E03C
:1023500030E005C020E130E002C020E132E0F801C9
:10236000B7FE07C060817181828193810C5F1F4F2E
:1023700006C06081718180E090E00E5F1F4FA30175
:10238000DBD0882E8618FB2DFF773F2E36FE0DC042
:10239000232D2E7FA22E891458F434FE0BC032FC5C
:1023A00009C0832D8E7EA82E05C0B82CA32C03C097
:1023B000B82C01C0B92CA4FE0FC0FE01E80DF11D20
:1023C0008081803321F49A2D997EA92E09C0A2FE26
:1023D00006C0B394B39404C08A2D867809F0B394F0
:1023E000A3FC10C0A0FE06C0B21480F4280C922CEE
:1023F0009B180DC0B21458F4B60180E290E060D092
:10240000B394F8CFB21418F42B1802C0982C212CD6
:10241000A4FE0FC0B60180E390E052D0A2FE16C029
:10242000A1FC03C088E790E002C088E590E0B60117
:102430000CC08A2D867851F0A1FE02C08BE201C04B
:1024400080E2A7FC8DE2B60190E03AD0891430F426
:10245000B60180E390E034D09A94F8CF8A94F301E7
:10246000E80DF11D8081B60190E02AD08110F6CFF1
:10247000222009F44ECEB60180E290E021D02A94C9
:10248000F7CFF6018681978102C08FEF9FEF2B96E1
:10249000E2E19ECDFC010590615070400110D8F73B
:1024A000809590958E0F9F1F0895FC01615070409C
:1024B00001900110D8F7809590958E0F9F1F089579
:1024C0000F931F93CF93DF93FB01238121FD03C063
:1024D0008FEF9FEF2CC022FF16C0468157812481C9
:1024E00035814217530744F4A081B1819D012F5FCC
:1024F0003F4F318320838C93268137812F5F3F4F5D
:102500003783268314C08B01EC01FB010084F18525
:10251000E02D0995892BE1F6D80116968D919C91B5
:102520001797019617969C938E931697CE01DF917D
:10253000CF911F910F910895FA01AA27283051F1E8
:10254000203181F1E8946F936E7F6E5F7F4F8F4FE4
:102550009F4FAF4FB1E03ED0B4E03CD0670F781F43
:10256000891F9A1FA11D680F791F8A1F911DA11D28
:102570006A0F711D811D911DA11D20D009F4689461
:102580003F912AE0269F11243019305D3193DEF609
:10259000CF010895462F4770405D4193B3E00FD0BF
:1025A000C9F7F6CF462F4F70405D4A3318F0495DAA
:1025B00031FD4052419302D0A9F7EACFB4E0A6958D
:1025C0009795879577956795BA95C9F700976105AF
:1025D000710508959B01AC010A2E06945795479505
:1025E00037952795BA95C9F7620F731F841F951FFA
:0425F000A01D08958D
:1025F400C0000700780025002400C0006F008000A0
:10260400201B5B306D1B5B324A1B5B3B48000A4658
:102614007265654D454D3A25642028627974657369
:10262400290A0A006E756C6C70006D61696E002F6A
:102634006465762F005B002C20005D2000737469B4
:10264400000D52544F535F4C414220494E49434977
:1026540041444F0D0A000D537469636B2073746118
:0626640072740D0A000073
:00000001FF
