:100000004AC1000066C1000064C1000062C1000076
:1000100060C100005EC100005CC100005AC1000068
:1000200058C1000056C1000054C1000052C1000078
:1000300050C100004EC100000BC200004AC10000C8
:1000400048C1000046C10000B2C1000042C100002A
:1000500040C100003EC100003CC100003AC10000A8
:1000600038C1000036C100000C944B010C946901AA
:100070000C9469010C9469010C9469010C94690158
:100080000C9469010C9469010C9469010C94690148
:100090000C9469010C9469010C9469010C94690138
:1000A0000C9428020C9469010C9469010C94690168
:1000B0000C94D7010C9469010C9469010C946901AA
:1000C0000C9469010C9469010C9469010C94690108
:1000D0000000000000000000434F4E534F4C45000D
:1000E0000000110811081108110811080F08110863
:1000F00011080F0800000F080001000000010000B7
:10010000004E554C4C444556000000110811081192
:1001100008110811080F08110811080F0800000F36
:10012000080002000000000000004E414D45535001
:1001300041434500FB0CA30E0F080F080F080F08E2
:100140000F080F080F0800000F08006E616D696E40
:100150006974202864657669636573293A0D0A001D
:100160004552524F522047455453544B2025730A51
:10017000006E616D6573706163653A2064657669D0
:100180006365206E616D6520257320746F6F206C30
:100190006F6E670D0A006E616D6573706163653A1D
:1001A0002063616E6E6F74206D6F756E74202564B0
:1001B0000D0A000A0A416C6C20757365722070721A
:1001C0006F636573736573206861766520636F6D17
:1001D000706C657465642E0A0A000A57656C636F5B
:1001E0006D6520746F2058696E75210A0A0D0958D3
:1001F000696E75204F5320436F7079726967687418
:100200002028632920323031322C20323031350A17
:100210000D09446F75676C617320452E20436F6D27
:10022000657220616E64204352432050726573737F
:100230002C20496E632E0A0A0D0958696E75204FED
:100240005320666F72204156522061746D6567615C
:10025000333238702076302E312028632920323016
:1002600032300A0D0952616661656C2049676E6122
:1002700063696F205A7572697461203C72616661AE
:100280004066692E756E636F6D612E6564752E61B3
:10029000723E0A0A0D0011241FBECFEFD8E0DEBF68
:1002A000CDBF11E0A0E0B1E0EAECF9E202C00590B8
:1002B0000D92AE39B107D9F725E0AEE9B1E001C042
:1002C0001D92A931B207E1F70C9457060E945B0F0B
:1002D000FFC296CEFF93EF93FC0100820FB6F89415
:1002E00004A21182228233824482558266827782FE
:1002F00080869186A286B386C486D586E686F786F2
:10030000008B118B228B338B448B558B668B778BB9
:10031000808F918FA28FB38FC48FD58F0F90068E51
:100320000F90078E0DB600A20EB601A2FB0100A031
:100330000DBE01A00EBE078C0F92068C0F92D58DBC
:10034000C48DB38DA28D918D808D778966895589F5
:1003500044893389228911890089F784E684D58408
:10036000C484B384A284918480847780668055801D
:10037000448033802280118004A00FBE0080EF9162
:10038000FF910895E0910001F0910101158287E647
:10039000848386E0828388E181830895E09100016F
:1003A000F0910101908195FFFDCF868308951F9202
:1003B0000F920FB60F9211248F938091C6008093F5
:1003C000AE018F910F900FBE0F901F901895A4E073
:1003D000B0E0EDEEF1E00C94CA1119821A821B8292
:1003E0001C8219821A821B821C8209811A812B812C
:1003F0003C81061717072807390770F400000981A8
:100400001A812B813C810F5F1F4F2F4F3F4F098374
:100410001A832B833C83E9CF2496E4E00C94E61105
:1004200080E284B92D9A60E47DE083E090E0CFDF44
:100430002D9860E47DE083E090E0C9CF1092D70171
:100440001092D8011092D9011092DA0181E008953A
:100450001F920F920FB60F9211242F933F934F9339
:100460005F936F937F938F939F93AF93BF93EF931C
:10047000FF938091E1019091E201A091E301B0919D
:10048000E4010196A11DB11D8093E1019093E20169
:10049000A093E301B093E401883E9340A105B10528
:1004A000D8F08091E5019091E601A091E701B0912B
:1004B000E8010196A11DB11D8093E5019093E6012D
:1004C000A093E701B093E8011092E1011092E201DC
:1004D0001092E3011092E4018091DB019091DC0124
:1004E00026E0289FF001299FF00D1124E858FB4FCA
:1004F000828193818730910584F4289FF001299FA0
:10050000F00D1124E858FB4F808191810197918370
:100510008083892B11F40E940F0C8091DD01909152
:10052000DE01A091DF01B091E0010197A109B109BD
:1005300049F08093DD019093DE01A093DF01B09339
:10054000E0010DC081E090E0A0E0B0E08093DD012B
:100550009093DE01A093DF01B093E0016AD7FF9191
:10056000EF91BF91AF919F918F917F916F915F912B
:100570004F913F912F910F900FBE0F901F901895A4
:1005800098D69093DC018093DB0181E090E0A0E0BD
:10059000B0E08093DD019093DE01A093DF01B09382
:1005A000E0011092E5011092E6011092E70110922D
:1005B000E8011092E1011092E2011092E301109221
:1005C000E40185B5836085BD84B5826084BD89EF13
:1005D00087BDEEE6F0E08081826080830895CF924F
:1005E000DF92EF92FF92CF93DF936B017C010FD5E7
:1005F000D82F83E0C816D104E104F10420F08D2F38
:1006000009D5CFEF11C029E22C9DC0012D9D900D81
:10061000112480539F4FFC0176960590F491E02DB4
:100620000995C82F8D2FF6D48C2FDF91CF91FF9095
:10063000EF90DF90CF900895A6E0B0E0E2E2F3E023
:100640000C94BC112B8D29838C8CED8CFE8C09A114
:100650003AA13E83DCD4982E40E4E416F1041CF465
:1006600070E4E72EF12C83E0E80EF11C9CEFE92208
:1006700027010F2C000C66087708C301B20169D26C
:100680001C01019679F480E691E00E94480C892DC6
:10069000C1D4FFEFFA832FEF2B833FEF3C834FEF63
:1006A0004D8309C130919E0120919F018091A0014D
:1006B0009091A101A12CB12C1BE5632F722F27E093
:1006C00030E040E050E00E9496116B017C016A83AB
:1006D000DB82EC82FD82169FF001179FF00D112442
:1006E000E351FE4F80819181B701A6014F5F5F4FBB
:1006F0006F4F7F4F892B79F440939E0150939F0158
:100700006093A0017093A1018FEFC816D806E80688
:10071000F806A1F4B8CF342F252FCB01EFEFAE1A96
:10072000BE0AF7E0AF16B10441F640939E01509324
:100730009F016093A0019093A101A5CF2F8D38A1B7
:10074000121613060CF09FCF80916A0490916B04EF
:10075000A0916C04B0916D040196A11DB11D809310
:100760006A0490936B04A0936C04B0936D0485E0CD
:1007700090E0918380833383228331AE20AE42AEFA
:1007800053AE64AE75AEDF01AB5BBF4F1C92A02FC2
:10079000BE818F0180E090E02D91F801E80FF91FF4
:1007A00026AF222321F0019687309105A9F72BE58A
:1007B0002C9DC0012D9D900D1124FC01E351FE4F95
:1007C0005F01EA5BFF4F8FEF9FEF91838083B8D18A
:1007D000F501E85BFF4F60837183828393833896D2
:1007E00010823196118210823296118210823296D6
:1007F000118210828AEAF10180838BA19CA1F5010C
:1008000093A782A720E030E0F801E20FF31F1482E3
:100810002F5F3F4F26323105B9F72BE52C9DF001B4
:100820002D9DF00D1124E351FE4F298124AB85AAA3
:1008300026A387A220E820A7DE01959620E030E0DD
:100840002817390764F44D915D91F901EE0FFF1FF0
:10085000E00FF11F55A744A72F5F3F4FF1CFFC01D9
:100860007696EE0FFF1F4BE54C9D90014D9D300D90
:100870001124E20FF31FE351FE4F11821082F901A0
:10088000E351FE4F848F958F275E3D4F228F338F2C
:100890008DE09CE0D10111978C9311979C93119757
:1008A00039813C9311978C9245E0241A310824A297
:1008B00035A2892DAFD36A817B818C819D8126965B
:1008C000E2E10C94D81161E070E080E090E00895DE
:1008D00037D1A9C3A0E0B0E0E0E7F4E00C94C21186
:1008E000EC016A017B0193D3C114D104E104F1044A
:1008F00009F447C02091740430917504C217D307DE
:1009000008F43FC020917604309177042C173D07FE
:10091000C0F197E0C90ED11CE11CF11C98EFC9226F
:10092000A601DD0C660B770BE0916E04F0916F046D
:10093000AEE6B4E0309741F0EC17FD0740F5DF017B
:100940000190F081E02DF6CF94E0AE36B907D1F1F9
:100950001296CD90DD90ED90FC9015978D010B2EA9
:10096000000C220B330B0C0D1D1D2E1D3F1D6E01A7
:100970000D2E000CEE08FF08C016D106E206F306A5
:1009800018F448D38FEF82C0309741F41EC094E032
:10099000AE36B907E9F600E010E098016E010D2EC1
:1009A000000CEE08FF08C40ED51EE61EF71E4F0110
:1009B0000F2E000CAA08BB088C149D04AE04BF04C3
:1009C00020F4DFCF00E010E09801C0907004D090D8
:1009D0007104E0907204F0907304C40ED51EE61EFC
:1009E000F71EC0927004D0927104E0927204F092EB
:1009F00073046E010D2E000CEE08FF08C016D10620
:100A0000E206F30691F412960D911D912D913C9101
:100A10001597400F511F621F731F12964D935D93E0
:100A20006D937C931597ED0108C0F983E8834A83A1
:100A30005B836C837D83CD93DC934A815B816C8186
:100A40007D818E010D2E000C220B330B040F151F20
:100A5000261F371F6F010F2E000CEE08FF080C1524
:100A60001D052E053F0581F4028113812481358106
:100A7000400F511F621F731F4A835B836C837D830A
:100A80002081318139832883C5D281E0CDB7DEB79B
:100A9000ECE00C94DE1126E0AC01249FC001259F00
:100AA000900D1124FC01E858FB4F428153814730DF
:100AB00051051CF5BA01052E000C880B990B249FDB
:100AC000F001259FF00D1124E858FB4FA281B3815E
:100AD00044815581249FF001259FF00D1124E85891
:100AE000FB4FB383A2832A9FF0012B9FF00D1124AB
:100AF000E858FB4F5583448308956FEF7FEFCB0198
:100B0000089546E0469FF001479FF00D1124E858F4
:100B1000FB4FA281B38124813581429FF001439F25
:100B2000F00D1124E858FB4FB383A2834A9FF001D4
:100B30004B9FF00D1124E858FB4F35832483089513
:100B40006091E9017091EA018091EB019091EC01D3
:100B50000895A0E0B0E0EFEAF5E00C94C6116B0157
:100B60007C0155D2C114D104E104F10449F197E0AC
:100B7000C90ED11CE11CF11C98EFC9220D2C000CF0
:100B8000EE08FF08E0916E04F0916F04A0E0B0E081
:100B9000C0E0D0E02EE634E0309781F0428153810E
:100BA000648175814C155D056E057F0510F0D901D6
:100BB000EF019F010190F081E02DEECF209721F40D
:100BC00029D28FEF9FEF41C00A811B812C813D818B
:100BD000C016D106E206F30629F4288139812D9347
:100BE0003C9311C00C191D092E093F090A831B8370
:100BF0002C833D83AE01DD0F660B770B040F151FB1
:100C0000261F371FE80140917004509171046091D4
:100C10007204709173044C195D096E097F09409349
:100C20007004509371046093720470937304F2D152
:100C3000D701C6010497A109B109AE01DD0F660B0A
:100C4000770B840F951FA61FB71FCDB7DEB7E8E05F
:100C50000C94E211CF92DF92EF92FF92CF93DF9349
:100C60006B017C01D4D1D82F83E0C816D104E104F4
:100C7000F10420F08D2FCED1CFEF11C029E22C9DB1
:100C8000C0012D9D900D112480539F4FFC01729641
:100C90000590F491E02D0995C82F8D2FBBD18C2F95
:100CA000DF91CF91FF90EF90DF90CF9008956CD3BC
:100CB00082E191E09F938F9396D28AED91E0E8D5FF
:100CC000C1D210926A0410926B0410926C041092BC
:100CD0006D041092BC041092BD041092BE041092D8
:100CE000BF04EDEEF1E08AE694E00F900F901182E0
:100CF000108216AE11AE10AE13821282E55AFF4F6B
:100D00008E179F07A1F79ADBD4D29093BB048093F0
:100D1000BA0460E070E0CB019DDF61E070E080E04C
:100D200090E098DF62E070E080E090E093DF28DC04
:100D3000E0916E04F0916F0480E090E0DC01309768
:100D400061F04281538164817581840F951FA61FD4
:100D5000B71F0190F081E02DF2CFBF93AF939F9327
:100D60008F9380E291E09F938F933DD21F921F92C9
:100D70001F921F9286E391E09F938F931F928AE0C8
:100D80008F931F9280E48F931F921F9255DC2BE567
:100D9000269FF001279FF00D1124E351FE4F81E0C3
:100DA00090E09183808338D11F921F921F921F92EF
:100DB0008CE391E09F938F931F928EE18F9381E05C
:100DC0008F931F928BE59FE09F938F9335DC02D426
:100DD0008DB79EB74E960FB6F8949EBF0FBE8DBFCF
:100DE000FFCF1F93CF93DF93FA013797339708F024
:100DF00054C0673071058105910508F04EC03BE590
:100E0000369FF001379FF00D1124E351FE4F019002
:100E1000F081E02DEF2B09F440C036E0349FF00163
:100E2000359FF00D1124E858FB4F42815381022E6B
:100E3000000C330BC6E016E0C49FF001C59FF00D17
:100E40001124E858FB4FA081B181A217B30718F015
:100E500042815381F0CFC481D581169FD001179F65
:100E6000B00D1124A858BB4F13965C934E93129764
:100E70001596DC93CE9314972D933C931C9FD00131
:100E80001D9FB00D1124A858BB4F13967C936E93F1
:100E900012977583648381E001C08FEFDF91CF915A
:100EA0001F9108954F925F926F927F928F929F92BF
:100EB000AF92BF92CF92DF92EF92FF92CF93DF93E8
:100EC00000D000D0CDB7DEB76B017C01CA01079717
:100ED000039708F088C087E0C816D104E104F10444
:100EE00008F081C08BE58C9DF0018D9DF00D1124E3
:100EF000E351FE4F80819181892B09F474C04A012E
:100F0000052E000CAA08BB0886E0849FF001859F8F
:100F1000F00D1124E858FB4F82819381092E000CBB
:100F2000AA0BBB0B4F5F5F4F2A01550F660877086E
:100F300049825A826B827C8266E049805A806B804B
:100F40007C8084159505A605B70569F566E06C9D5E
:100F5000F0016D9DF00D1124E858FB4F5382428241
:100F60009582848231832083689DA001699D500D04
:100F70001124FA01E858FB4FD382C282649DF0012C
:100F8000659DF00D1124E858FB4FD582C48284156D
:100F90009505A605B70529F180819181821B930BE8
:100FA000918380831EC0689FF001699FF00D11241A
:100FB000E858FB4F408151812417350758F0241B16
:100FC000350B428153814C015D01CA01550FAA0BBB
:100FD000BB0BB3CF2C013D0189819A81AB81BC81D0
:100FE000B5CF81E001C08FEF0F900F900F900F9061
:100FF000DF91CF91FF90EF90DF90CF90BF90AF90B7
:101000009F908F907F906F905F904F9008958FB7D3
:10101000F89408958FBF089578940895FFCF8FEFC7
:10102000089581E00895AF92BF92CF92DF92EF9240
:10103000FF921F93CF93DF936B017C01E8DF182FA2
:1010400087E0C816D104E104F10488F48BE58C9D97
:10105000F0018D9DF00D1124E351FE4F80819181AF
:10106000892B29F0C114D104E104F10421F4812F6A
:10107000D1DF8FEF9DC080916A0490916B04A091A5
:101080006C04B0916D040197A109B10980936A04C1
:1010900090936B04A0936C04B0936D040297A10528
:1010A000B1050CF4E8D38BE58C9D50018D9DB00CFF
:1010B0001124F501EB5CFD4F608171818281938188
:1010C000A7019601BCD2C0E0D0E0FE01EA0DFB1DF5
:1010D000E25CFD4F60817181072E000C880B990B3B
:1010E0007EDA2296C630D10581F78BE58C9DE00132
:1010F0008D9DD00D1124C351DE4F4AAD5BAD6CAD5B
:101100007DAD495F5F4F6F4F7F4F487F052E000CCD
:10111000660B770B88AD99AD092E000CAA0BBB0BA3
:101120000496A11DB11D841B950BA60BB70BD2DB3A
:10113000888199818430910581F030F48130910566
:1011400049F0029729F127C08630910551F00797A1
:1011500021F021C0198218826CD1C701B6010FD3CA
:101160001AC0CA5BDF4F8881998127E0289FF00170
:10117000299FF00D1124E259FB4F81819281A381B7
:10118000B4810196A11DB11D81839283A383B48391
:10119000C701B601B6DC8BE58C9DF0018D9DF00D8D
:1011A0001124E351FE4F11821082812F33DF81E041
:1011B000DF91CF911F91FF90EF90DF90CF90BF9084
:1011C000AF900895CF93DF93C82F21DFD82FCA3077
:1011D00011F48DE0E3D88C2FE1D88D2F1BDF81E057
:1011E000DF91CF910895A1E5B0E0E9EFF8E00C942C
:1011F000C8118E01065A1F4FF801E190F1908F013E
:1012000021E530E040E050E060E070E0CE01019682
:101210000E9433129801A70160E570E0CE010196AB
:101220000E943A128E010F5F1F4FF80181918F01CA
:10123000882311F0C7DFF9CF81E0CF5ADF4FE6E016
:101240000C94E4110F931F93CF93DF9389E195E002
:10125000A0E8BB270196A11DB11DEC019093750478
:10126000809374042FEE38E0309377042093760453
:10127000EEE6F4E09183808319821882092E000C37
:10128000AA0BBB0B4FEE58E060E070E08A019B01B7
:10129000081B190B2A0B3B0B0A831B832C833D83F2
:1012A0000283138324833583DF91CF911F910F91A4
:1012B000089520910201309103012B30310544F54E
:1012C000C90102969093030180930201A9014F5F27
:1012D0005F4F66E0629FF001639FF00D1124E858B4
:1012E000FB4F538342838FEF9FEF958384839183DA
:1012F0008083649FF001659FF00D1124E858FB4F37
:10130000938382833583248311821082C9010895D7
:101310008FEF9FEF08958F929F92AF92BF92EF92BF
:10132000FF920F931F93CF93DF934B015C018A01D0
:1013300079016DDED82F83E088169104A104B104F1
:1013400020F08D2F67DECFEF13C029E2289DC0016A
:10135000299D900D112480539F4FFC017496059098
:10136000F491E02DA701B8010995C82F8D2F52DE09
:101370008C2FDF91CF911F910F91FF90EF90BF9035
:10138000AF909F908F900895F8944AD849D80E94C2
:10139000C20199CACF939C012750310923303105EE
:1013A000F8F4C6E0C89FF001C99FF00D1124E85879
:1013B000FB4F228133812730310594F46CDBC69FCB
:1013C000F001C79FF00D1124E858FB4F2FEF3FEFBE
:1013D0003583248333832283462F372F282F04C05D
:1013E0004FEF3FEF2FEF9FEF642F732F822FCF919F
:1013F00008956730710581059105C8F42BE5269F96
:10140000F001279FF00D1124E351FE4F208131811F
:10141000232B69F022E030E0318320834091BA042D
:101420005091BB042281DDDC04D081E008958FEF70
:101430000895CF92DF92EF92FF928091BC04909139
:10144000BD04A091BE04B091BF04181619061A0677
:101450001B0624F481E08093C0046BC0C090E901B6
:10146000D090EA01E090EB01F090EC018BE58C9DCF
:10147000F0018D9DF00D1124E351FE4F808191818B
:10148000019729F5228133814091BA045091BB0420
:1014900086E0849FD001859FB00D1124A858BB4FD2
:1014A00012966D917C911397869FD001879FB00D06
:1014B0001124A858BB4F8D919C9182179307C8F1B6
:1014C00082E090E091838083C701B6018ADC80913D
:1014D000BA049091BB045EDF6093E9017093EA0166
:1014E0008093EB019093EC012BE5269FD001279F81
:1014F000B00D1124FD01E351FE4F41E050E0518356
:10150000408341E050E060E070E04093DD015093A3
:10151000DE016093DF017093E001BD016F507E4FEB
:101520002C9DC0012D9D900D11248F509E4F0E9427
:101530006A01FF90EF90DF90CF90089561307105C0
:101540008105910531F06230710581059105F1F059
:101550003FC08091BC049091BD04A091BE04B091A5
:10156000BF04AC01BD014F5F5F4F6F4F7F4F409392
:10157000BC045093BD046093BE047093BF04892BD8
:101580008A2B8B2B19F51092C00420C08091BC04CB
:101590009091BD04A091BE04B091BF041816190625
:1015A0001A061B06ACF40197A109B1098093BC048B
:1015B0009093BD04A093BE04B093BF04892B8A2BE3
:1015C0008B2B21F48091C004811133DF81E00895D9
:1015D0008FEF0895CF92DF92EF92FF921F93CF93F8
:1015E000DF936B017C0113DD182F87E0C816D1044F
:1015F000E104F10470F48BE58C9DF0018D9DF00DFC
:101600001124E351FE4F80819181009711F00597DD
:1016100029F0812FFFDC8FEF9FEF09C0D281C381BA
:10162000C701B601E6DE812FF5DC8D2F9C2FDF91FF
:10163000CF911F91FF90EF90DF90CF9008958F9200
:101640009F92AF92BF92CF92DF92EF92FF92CF9391
:101650004B015C0169017A01DADCC82F87E088164A
:101660009104A104B10490F48BE5889DF001899D5B
:10167000F00D1124E351FE4F80819181009731F0EC
:10168000DF01A05BBF4F2C91222321F08C2FC2DC05
:101690008FEF16C0E45BFF4FC082D182E282F382FB
:1016A00021E02C938330910529F0079731F4C5018F
:1016B000B40165D0C501B4019CDE8C2FABDC81E0A8
:1016C000CF91FF90EF90DF90CF90BF90AF909F9021
:1016D0008F900895CF92DF92EF92FF92CF93DF9396
:1016E00097FD33C06B017C01672B682B692B11F4CC
:1016F000C6D029C08CDCD82F4091DB015091DC0191
:101700006091E9017091EA018091EB019091EC0107
:101710009601C8DBC82F8F3F19F48D2F7BDC16C0D4
:101720008091E9019091EA012BE5289FF001299F22
:10173000F00D1124E351FE4F84E090E0918380830B
:1017400078DE8D2F67DCC1E001C0CFEF8C2FDF91F9
:10175000CF91FF90EF90DF90CF9008956C3924ECFB
:10176000720720E28207910540F49B01AC01A8EECC
:10177000B3E0F8D5AFDF81E008958FEF0895CF9201
:10178000DF92EF92FF92CF936B017C0140DCC82F78
:1017900087E0C816D104E104F10488F48BE58C9D40
:1017A000F0018D9DF00D1124E351FE4F8081918158
:1017B000009729F08430910531F0079721F08C2FA4
:1017C00029DC8FEF24C026E02C9DD0012D9DB00D8B
:1017D0001124A858BB4F12968D919C911397873076
:1017E00091057CF4289FF001299FF00D1124E85801
:1017F000FB4F208131818D919C91820F931F9183AA
:101800008083C701B6017DD98C2F04DC81E0CF91A4
:10181000FF90EF90DF90CF90089592D904CCCF93B2
:1018200061E070E080E090E089DEC6E08091DB015D
:101830009091DC01C89FF001C99FF00D1124E85878
:10184000FB4F228133812730310574F4C29FF001B0
:10185000C39FF00D1124E858FB4F20813181232BC9
:1018600019F498DDC6DDE2CF62E070E080E090E040
:1018700065DECF91089583EB91E00AD0CFCBCF9373
:10188000C6DBC82FD6DD8C2FC5DB81E0CF91089554
:1018900008950F931F9300E010E0980104171507B7
:1018A0002607370764F4DC01ED91CD010F5F1F4F70
:1018B0002F4F3F4FE111F2CFB801C90104C06FEFC4
:1018C0007FEF8FEF9FEF1F910F910895A6E0B0E09B
:1018D000EBE6FCE051C5182F9C831B0169017A01DE
:1018E00096DB082F40E150E060E070E0812F9C81A2
:1018F000D0DF4B015C0141E050E060E070E0C101ED
:10190000C8DF2B013C012FEF82169206A206B20619
:1019100049F16F3F7F4F8F4F9F4F21F153E0C51625
:10192000D104E104F104F0F48091C1049091C20467
:10193000A091C304B091C40484309105A105B10500
:101940008CF419831C811A8325E1289FA001299F0B
:10195000500D11245E834D8320E030E040E050E0E4
:10196000BA0104C0802F56DB8FEF42C048155905DD
:101970006A057B059CF4E981FA811191FA83E98378
:10198000ED81FE81E20FF31FEB53FB4F10834F5F9E
:101990005F4F6F4F7F4F2F5F3F4FE8CF14141504F9
:1019A000160417045CF4F101208135E1389FF00141
:1019B000399FF00D1124EB53FB4F208B25E1289F1D
:1019C000F001299FF00D1124EB53FB4FC18AD28AFD
:1019D000E38AF48A0196A11DB11D8093C1049093FE
:1019E000C204A093C304B093C404802F13DB81E02E
:1019F0002696E2E1DDC4A0E2B0E0E0E0FDE0C0C494
:101A000086E0E1E4F1E0DE015B9601900D928A95BB
:101A1000E1F71092C1041092C2041092C304109214
:101A2000C4048BE491E034DF80EDA82E80E0B82E72
:101A300088E090E09C01205D30404901DE015B962A
:101A40008E010F5F1F4FC12CD12C760138018D9173
:101A5000F8018193882339F03FEFC31AD30AE30AD0
:101A6000F30A8F01F4CFB4016A0D7B1D60537F4FE1
:101A70004AE050E0CE014196E7D4FE017196BFEFF7
:101A8000CB1ADB0AEB0AFB0A20E1C216D104E104FF
:101A9000F10464F481919FEB980F9A3108F4805E11
:101AA000D8018D938D018111EACF09C030E1C316B1
:101AB000D104E104F10419F081E791E00DC0F501D2
:101AC000259135914591559165E371E0C301FEDEA5
:101AD0008F3F19F486E991E0DBDEF9E2AF0EB11C2D
:101AE0002BE4A21621E0B20609F0A8CF2FEF3FEFBA
:101AF000A90165E371E081E491E0E8DE81E0A09670
:101B0000EEE05AC44F925F926F927F928F929F92B3
:101B1000AF92BF92DF92EF92FF920F931F93CF93FA
:101B2000DF9300D000D01F92CDB7DEB7E090C104A4
:101B3000F090C2040091C3041091C404E982FA82B7
:101B40000B831C8325EC34E0812C912C5401E9801B
:101B5000FA800B811C818E149F04A006B106ACF4A0
:101B60007C01F901412C512C3201D70141914423D0
:101B7000C1F00FEFE01AF00A5C9145130AC01FEFA5
:101B8000411A510A610A710AF0CF6FEF7FEFCB0162
:101B900065C00FEF801A900AA00AB00A2B5E3F4F73
:101BA000D6CF7D83D62E40E150E060E070E071DE5C
:101BB000698385E1889D8001899D100D11240B5258
:101BC0001B4F40E150E060E070E0C80162DEA98197
:101BD0002A2FAA0F330B440B550B2419350946093C
:101BE00057092B013C01B1E04B1A510861087108FB
:101BF000420E531E641E751EE1E14E16510461042F
:101C000071041CF62B013C01D801ED2DFD8181E012
:101C1000481A5108610871081414150416041704B1
:101C20001CF48D918193F3CF12161306140615063A
:101C30004CF4D7018D917D018193215031094109E7
:101C40005109F2CF85E1889DF001899DF00D1124A5
:101C5000EB53FB4F61897289838994890F900F90B0
:101C60000F900F900F90DF91CF911F910F91FF90E8
:101C7000EF90DF90BF90AF909F908F907F906F908C
:101C80005F904F900895CF92DF92EF92FF92FB0109
:101C9000C12CD12C7601C216D306E406F50664F4F5
:101CA0006191DC016D93CD01662341F0BFEFCB1A4A
:101CB000DB0AEB0AFB0AEFCF8FEF01C081E0FF9058
:101CC000EF90DF90CF900895A0E1B0E0E9E6FEE06C
:101CD00059C38B0149015A0120E130E040E050E056
:101CE000BC01CE010196CFDF8F3FF1F0C12CD12C8A
:101CF00076010DC020E130E040E050E0B801CE01B7
:101D00000196C1DF8FEFC81AD80AE80AF80A809155
:101D1000C1049091C204A091C304B091C404C81638
:101D2000D906EA06FB0614F08FEF0AC0B801CE010F
:101D30000196E8DE681579058A059B05D9F2862F9C
:101D40006096ECE03BC3A0E1B0E0E8EAFEE022C32D
:101D5000FC01CB018A012591359145915591BE0138
:101D60006F5F7F4FB1DF682F880F770B880B990B60
:101D70006F3F2FEF72078207920731F09801AE0193
:101D80004F5F5F4FC8DA01C08FEF6096E4E01EC37B
:101D9000E0910401F091050180E4848384E882836A
:101DA0000895E0910401F09105019481907F892BC1
:101DB0008483828180648283828186FDFDCF8081DD
:101DC000218190E0922B08958091AA019091AB011E
:101DD000E0910801F0910901892B19F4808180625A
:101DE00002C080818F7D80838091A6019091A701A0
:101DF000892B29F464EF71E080E090E016C08091B7
:101E0000A6019091A7010A9729F46EE170E080E0A5
:101E100090E00BC06091A6017091A70184EF91E062
:101E200072D2072E000C880B990B54CCE09106015E
:101E3000F091070180818072282F30E03093AB0150
:101E40002093AA012091A8013091A901232B11F020
:101E5000BBDF09C0882339F0E0910801F091090146
:101E600080818F7D808361E070E080E090E032DCF3
:101E7000DDCF813669F48091A4019091A5011816F7
:101E80001906C4F48091A4019091A50144970EC055
:101E9000843681F48091A4019091A501843B910541
:101EA0004CF48091A4019091A50144969093A501D2
:101EB0008093A4010895DBD06BDFC3D1F7D1E0910B
:101EC0000A01F0910B0180818E628083E09108010C
:101ED000F091090180818D7D80831F921F9287E49C
:101EE00091E09F938F931F92CEE1CF931F9280E852
:101EF0008F9389E090E19F938F930E941C036ADB8C
:101F00001F921F928CE491E09F938F931F92CF9327
:101F10001F92D0E4DF9386E19FE09F938F930E940E
:101F20001C0358DB1F921F9280E591E09F938F93D3
:101F30001F92CF9381E08F931F9282EB90E19F934A
:101F40008F930E941C0346DB1F921F9205E511E050
:101F50001F930F931F92CF931F92DF9388E290E11C
:101F60009F938F930E941C032DB73EB7285D3F4F70
:101F70000FB6F8943EBF0FBE2DBF2CDB1F921F92F1
:101F80001F930F931F92CF931F92DF9380ED90E1E9
:101F90009F938F930E941C031DDB8DB79EB70A96FB
:101FA0000FB6F8949EBF0FBE8DBFC1E0D0E0D2D077
:101FB000892B49F171D08E3671F48091A8019091EE
:101FC000A901892B19F489E591E06FD0D093A9017B
:101FD000C093A80118C0823671F48091A801909135
:101FE000A901892B19F08CE691E05FD01092A9012C
:101FF0001092A80108C0813611F0843621F4082E11
:10200000000C990B36DF61E070E080E090E062DB6D
:10201000CECFC6E6D0E08091A8019091A901892B8E
:1020200071F080E090E0BDDEBE016DD17093A7013C
:102030006093A6018091A6019091A70102C080E063
:1020400090E018D161E070E080E090E043DBE3CF06
:102050008091A2019091A30101969093A301809396
:10206000A20161E070E080E090E078DBF1CFE091E8
:102070000C01F0910D01158287E6848386E082834E
:1020800088E181830895E0910C01F0910D01908128
:1020900095FFFDCF86830895E0910C01F0910D012D
:1020A000808187FFFDCF86810895CF93DF93EC0178
:1020B0008991882311F0E7DFFBCF8DE0E4DF8AE030
:1020C000E2DFDF91CF910895CF93DF93EC01899107
:1020D000882311F0D8DFFBCFDF91CF910895A0E0E6
:1020E000B0E0E4E7F0E150C1AC018B01ADB6BEB6A3
:1020F0008DB79EB7861B970B0FB6F8949EBF0FBE89
:102100008DBFEDB7FEB731967F019B01EAE0F0E0AD
:102110001216130664F4CA01BF01F5D0AB012150B9
:102120003109D701A20FB31F805D8C93F1CF6701F6
:10213000C6018E199F09801791072CF4F601819131
:102140006F01A1DFF5CF0FB6F894BEBE0FBEADBED6
:10215000EAE036C1E0910C01F0910D0180818078B8
:1021600090E008952091AC013091AD018091A401DF
:102170009091A5012817390769F08091A4019091E9
:10218000A501A4D08091A4019091A5019093AD01E7
:102190008093AC0161E070E080E090E09BDAE2CFF8
:1021A000C0E1DEE08CE3C82ED12C1AE02091A20120
:1021B0003091A3018091A2019091A301BE018FD023
:1021C0007C01C901BE018BD0CB0162E070E087DFEA
:1021D0008AE390E058DFC701B60181D09B017C0102
:1021E00062E070E0C9017BDF8AE390E04CDF62E0EF
:1021F00070E0C70174DF8DE791E066DF8091A60192
:102200009091A70163E070E09C01129FC001139FB1
:10221000900D112464DF8BE891E056DF8091A401DA
:102220009091A50163E070E05ADF85E991E04CDF11
:1022300089E891E03ADF61E070E080E090E08EDADA
:10224000B5CFE0910E01F0910F018081826A808309
:1022500081818A618183828182838CE987838FE394
:10226000868311861086138612861482158280E07A
:1022700090E008952FE93FE0AC01429FC001439FE9
:10228000900D529F900D1124AC0160E070E0452F3D
:10229000562F672F772767FD7A95E0910E01F09111
:1022A0000F014187808780E090E00895E091100160
:1022B000F091110180818368808381818A608183AC
:1022C00013821482128280E090E00895E091100160
:1022D000F091110182E3838380E090E00895AA1BCE
:1022E000BB1B51E107C0AA1FBB1FA617B70710F001
:1022F000A61BB70B881F991F5A95A9F78095909533
:10230000BC01CD01089597FB072E16F4009406D06A
:1023100077FD08D0E4DF07FC05D03EF49095819569
:102320009F4F0895709561957F4F0895052E97FBF7
:1023300016F400940FD057FD05D055D007FC02D0FD
:1023400046F408C050954095309521953F4F4F4F2A
:102350005F4F089590958095709561957F4F8F4F51
:102360009F4F089562D0A59F900DB49F900DA49F9C
:10237000800D911D112408952F923F924F925F92EC
:102380006F927F928F929F92AF92BF92CF92DF9285
:10239000EF92FF920F931F93CF93DF93CDB7DEB7EA
:1023A000CA1BDB0B0FB6F894DEBF0FBECDBF09947E
:1023B0002A88398848885F846E847D848C849B84D5
:1023C000AA84B984C884DF80EE80FD800C811B81E3
:1023D000AA81B981CE0FD11D0FB6F894DEBF0FBE12
:1023E000CDBFED010895A1E21A2EAA1BBB1BFD0172
:1023F0000DC0AA1FBB1FEE1FFF1FA217B307E407E4
:10240000F50720F0A21BB30BE40BF50B661F771F3B
:10241000881F991F1A9469F760957095809590951B
:102420009B01AC01BD01CF010895A29FB001B39FF4
:10243000C001A39F700D811D1124911DB29F700DCD
:10244000811D1124911D0895FB01DC014150504074
:1024500048F005900D920020C9F701C01D9241502F
:102460005040E0F70895DC0101C06D9341505040A9
:10247000E0F70895AEE0B0E0EFE3F2E18BCF8C013E
:10248000FA0186E08C831A83098377FF02C060E03B
:1024900070E8CB0101979E838D83A901BF01CE0116
:1024A000019611D04D815E8157FD0AC02F8138857C
:1024B000421753070CF49A01F801E20FF31F108240
:1024C0002E96E4E083CFABE0B0E0E8E6F2E154CF53
:1024D0006C017B018A01FC0117821682838181FFD6
:1024E000BFC1CE0101963C01F6019381F70193FD36
:1024F000859193FF81917F01882309F4ADC18532D5
:1025000039F493FD859193FF81917F01853221F408
:10251000B60190E0C0D1E8CF912C212C312CFFE105
:10252000F315D8F08B3279F038F4803279F08332B9
:10253000A1F4232D20611DC08D3261F0803369F438
:10254000232D216016C0832D8260382EE32DE46098
:102550003E2E2AC0F32DF8601DC037FC2DC020EDA3
:10256000280F2A3040F08E32B9F436FC75C1232D85
:102570002064322E19C036FE06C08AE0989E200DD7
:102580001124922E11C0EAE02E9E200D1124222E3D
:10259000F32DF0623F2E08C08C3621F4832D806825
:1025A000382E02C0883641F4F70193FD859193FFE0
:1025B00081917F018111B3CF982F9F7D95549330E6
:1025C00028F40C5F1F4F9FE399830DC0833631F0D1
:1025D000833771F0833509F055C020C0F801808140
:1025E00089830E5F1F4F88248394912C530112C05E
:1025F0002801F2E04F0E511CF801A080B18036FE98
:1026000003C0692D70E002C06FEF7FEFC50138D1C4
:102610004C018201F32DFF773F2E15C0280122E0E7
:10262000420E511CF801A080B18036FE03C0692D16
:1026300070E002C06FEF7FEFC50117D14C01F32DA1
:10264000F0683F2E820133FC19C0822D90E088167D
:102650009906A0F4B60180E290E01DD12A94F5CF4E
:10266000F50137FC859137FE81915F01B60190E05D
:1026700012D121102A9421E0821A91088114910428
:1026800079F7E1C0843611F0893639F5F80137FE63
:1026900007C060817181828193810C5F1F4F08C0E8
:1026A00060817181072E000C880B990B0E5F1F4F04
:1026B000F32DFF763F2E97FF09C09095809570957A
:1026C00061957F4F8F4F9F4FF0683F2E2AE030E09B
:1026D000A3011DD1882E861844C0853731F4232DDF
:1026E0002F7EB22E2AE030E025C0932D997FB92E9F
:1026F0008F36C1F018F4883579F0AEC0803719F004
:10270000883721F0A9C0E92FE061BE2EB4FE0DC0CC
:10271000FB2DF460BF2E09C034FE0AC0292F2660AD
:10272000B22E06C028E030E005C020E130E002C053
:1027300020E132E0F801B7FE07C06081718182813B
:1027400093810C5F1F4F06C06081718180E090E033
:102750000E5F1F4FA301DBD0882E8618FB2DFF775D
:102760003F2E36FE0DC0232D2E7FA22E891458F445
:1027700034FE0BC032FC09C0832D8E7EA82E05C00E
:10278000B82CA32C03C0B82C01C0B92CA4FE0FC0D8
:10279000FE01E80DF11D8081803321F49A2D997E90
:1027A000A92E09C0A2FE06C0B394B39404C08A2D1A
:1027B000867809F0B394A3FC10C0A0FE06C0B21442
:1027C00080F4280C922C9B180DC0B21458F4B6015A
:1027D00080E290E060D0B394F8CFB21418F42B18D4
:1027E00002C0982C212CA4FE0FC0B60180E390E01B
:1027F00052D0A2FE16C0A1FC03C088E790E002C040
:1028000088E590E0B6010CC08A2D867851F0A1FED3
:1028100002C08BE201C080E2A7FC8DE2B60190E02D
:102820003AD0891430F4B60180E390E034D09A9421
:10283000F8CF8A94F301E80DF11D8081B60190E094
:102840002AD08110F6CF222009F44ECEB60180E2C4
:1028500090E021D02A94F7CFF6018681978102C0BB
:102860008FEF9FEF2B96E2E1A3CDFC010590615025
:1028700070400110D8F7809590958E0F9F1F089596
:10288000FC016150704001900110D8F7809590953F
:102890008E0F9F1F08950F931F93CF93DF93FB011C
:1028A000238121FD03C08FEF9FEF2CC022FF16C0B4
:1028B00046815781248135814217530744F4A08112
:1028C000B1819D012F5F3F4F318320838C932681FF
:1028D00037812F5F3F4F3783268314C08B01EC0174
:1028E000FB010084F185E02D0995892BE1F6D801E3
:1028F00016968D919C911797019617969C938E939F
:102900001697CE01DF91CF911F910F910895FA0193
:10291000AA27283051F1203181F1E8946F936E7F1E
:102920006E5F7F4F8F4F9F4FAF4FB1E03ED0B4E00F
:102930003CD0670F781F891F9A1FA11D680F791F50
:102940008A1F911DA11D6A0F711D811D911DA11D61
:1029500020D009F468943F912AE0269F1124301971
:10296000305D3193DEF6CF010895462F4770405D0C
:102970004193B3E00FD0C9F7F6CF462F4F70405DBB
:102980004A3318F0495D31FD4052419302D0A9F716
:10299000EACFB4E0A6959795879577956795BA9510
:1029A000C9F700976105710508959B01AC010A2ED6
:1029B00006945795479537952795BA95C9F7620FAD
:0A29C000731F841F951FA01D0895CA
:1029CA00C00007007800230025002400C000800012
:1029DA00B000201B5B306D1B5B324A1B5B3B48001F
:1029EA000A467265654D454D3A2564202862797418
:1029FA006573290A0A006E756C6C70006D61696EE8
:102A0A00002F6465762F006D6F7472006C65640028
:102A1A007365727600727463000D4D4F544F5220E5
:102A2A00454E43454E4449444F0D0A000D4D4F54FF
:102A3A004F52204150414741444F0D0A002E207603
:102A4A00656C6F63696461643A2000252E207365A2
:0E2A5A0072766F3A0020677261646F732E000F
:00000001FF
